:0200000280007C
:10000000004008207D490800794908007949080026
:100010007949080079490800794908000000000082
:100020000000000000000000000000007949080006
:100030007949080000000000794908007949080062
:1000400079490800794908004915080079490800EC
:100050007949080079490800794908007949080078
:10006000A136080079490800E9020800FD020800ED
:1000700079490800B10D080079490800794908005C
:100080007949080079490800794908007949080048
:100090007949080079490800213A0800794908009F
:1000A0007949080079490800794908007949080028
:1000B00079490800794908007949080010B5054CCC
:1000C000237833B9044B13B10448AFF30080012304
:1000D000237010BDE00F00200000000024B30800D2
:1000E0000C4B43B10C4810B50C49AFF300800C48E1
:1000F000036823B910BD0A48036833B97047094B38
:10010000002BF7D0BDE810401847064B002BF5D068
:10011000184700BF0000000024B30800E40F0020CF
:1001200024B30800000000000FB438B50499642916
:1001300005D066295BD010202F4B984757E04FF031
:10014000405120202D4CA0474FF040512120A04786
:100150004FF040512220A0474FF040512320A047AC
:100160004FF040512420A0470A20254DA8470B20DE
:10017000A847244D29460E20A04729460F20A04716
:1001800029461020A04729461120A04729461820BB
:10019000A04729461920A04729461A20A0472946EA
:1001A0001B20A04729461C20A04729461D20A04708
:1001B00029463620A04729463720A047294638201F
:1001C000A04711496720114B98470123022210498B
:1001D0006820104CA04764200F4B984764200F4BB9
:1001E000984764200E4B984764200E4B9847002098
:1001F000BDE8384004B07047150F08007D42080084
:100200007D44080001000028409B08008D34080050
:10021000809B080079150800693C0800250B080040
:10022000C93E0800D11908002DE9F041044688466E
:100230000E4B9847054620460D4B9847054013D076
:100240000C4C04F1600603E0B4420DD010345DB1F3
:1002500020684045F8D161682942F5D0E3689847A5
:10026000636825EA0305EFE7BDE8F0810342080073
:1002700007420800FC0F0020F8B5184C2668062E2F
:1002800029D84FF0000C6446154F04E00134E4B265
:10029000A446A64209D3A64625017D598D42F5D133
:1002A00007EB04156D689542F0D10D4D4FEA0E1E17
:1002B00005EB0E0445F80E106260A3600699E1603C
:1002C0000136664504BF05490E6011461A46054BC6
:1002D00098470020F8BD0120F8BD00BF6C10002039
:1002E000FC0F0020D141080008B50A210148024B4B
:1002F000984708BD000C0E402902080008B50B21E4
:100300000148024B984708BD000E0E402902080024
:1003100010B40B01934214D9C9004B0803EBC2027D
:10032000B2FBF1F2D3085C1E4FF6FE718C4201D98C
:10033000012017E0416841F4002141600CE00120F8
:1003400010E0590801EBC202B2FBF3F2D3085C1EC5
:100350004FF6FE718C42F2D8120402F4E0221A43E6
:100360000262002010BC70470A4BC0F8E430002342
:1003700043604362836288230360242303604FF455
:10038000807303604FF4002303604FF40033036075
:10039000704700BF0041535570B505460C461646E0
:1003A0000F4B984700220F4B1A60A4B132462168C8
:1003B00028460D4B9847024678B96368A1680B43FD
:1003C00021690B43E1680B4306490B6069680B43E5
:1003D0006B60104670BD0122FBE70122F9E700BF08
:1003E00069030800701000201103080010B50446CE
:1003F000064B984740B90246636823F00F0343F069
:1004000001036360104610BD0122FBE79903080059
:10041000402303607047102303607047816070477A
:10042000C1607047406970474FF4004343607047B4
:100430002DE9F04184B00391642800F0DD80662846
:1004400040F02781BDF80D709E4C9DF80C303A4667
:100450009D4920469D4DA847214667209C4CA047BA
:100460009C496720A0479C4D29466720A0470E2045
:100470009A4B9847002840F0CD8099496720A047C3
:10048000984C21466720924EB04797496720B04765
:1004900029466720B0470F20904B9847002840F02E
:1004A000BE808F496720B04721466720DFF8208251
:1004B000C0478E496720C0478D4E31466720C047F0
:1004C0001020864B9847002840F0AE808449672072
:1004D000C04721466720DFF8F881C047854967207B
:1004E000C04731466720C04711207C4B9847002801
:1004F00040F09F807A496720C04721466720DFF897
:10050000D081C0477C496720C04731466720C0473B
:100510001820724B9847002840F09080704967205F
:10052000C04721466720DFF8A881C047734967208C
:10053000C04731466720C0471920684B98470028BC
:1005400040F0818066496720C04721466720604EA1
:10055000B0476B496720B04729466720B0471A204B
:100560005E4B9847002873D15D496720B04721460C
:100570006720574EB04763496720B0472946672038
:10058000B0471B20554B9847002866D15449672037
:10059000B047214667204E4EB0475B496720B047C1
:1005A00029466720B0471C204C4B9847002859D15A
:1005B0004B496720B04721466720454EB047534915
:1005C0006720B04729466720B0471D20434B984716
:1005D00000284CD142496720B047214667203C4B58
:1005E00098479DF80C30013B042B00F2A480DFE813
:1005F00003F043535A619B0045496720344B9847A9
:10060000039B1B0223F07F4323F0FF0343F001030E
:10061000039317E73F4967202D4B984730E73D4943
:1006200067202B4B98473FE73A496720284B98476C
:100630004FE738496720264B98475EE735496720E2
:10064000234B98476DE733496720214B98477CE758
:10065000304967201E4B984789E72E4967201C4B7D
:10066000984796E72B496720194B9847A3E72949F4
:100670006720174B9847B0E72020274B98474FF447
:100680007A730093039B0133662224491046244C5D
:10069000A04704B0BDE8F0812020224B98472120DC
:1006A0001D4B9847EBE721201E4B984722201A4B01
:1006B0009847E4E722201B4B98472320164B984786
:1006C000DDE700BF181A0020B49B0800C1510800E4
:1006D0008D340800C49B0800D09B08000B42080022
:1006E000D49B0800A4A20800DC9B0800E89B08003B
:1006F000EC9B0800F49B0800F89B0800009C080095
:10070000049C0800149C0800209C0800309C0800F1
:10071000A09B0800D89B080027420800310408006D
:1007200021380800414208002320134B9847242019
:10073000124B9847A3E720200F4CA0472120A04749
:100740002220A0472320A0472420A04727B1013F13
:10075000BFB2ADF80D7027B909496720094B98471A
:1007600097E700230093039B1B0A64220649662037
:10077000064CA047F0E700BF4142080027420800AE
:10078000409C08008D34080031040800213808001E
:1007900010B542F21663984222D045F2DB1398421C
:1007A0001DD01C4900201C4B98470446A8B11B4B88
:1007B0009847014620461A4B984742F216639842E2
:1007C00020D012D943F22B13984217D04CF29863E1
:1007D000984202D16520134B9847134B984710BDA0
:1007E00012496720124B984710BD40F2346398427B
:1007F000F3D1002166200B4B9847EEE735200D4BD7
:100800009847EAE709496720094B984730200A4B87
:100810009847E2E7CC9E0800993A08000D5208007C
:10082000A90E080079150800553A0800D09C080068
:100830008D340800274208004142080070B590B08E
:1008400051490020514B9847002800F08880044609
:100850004F4B9847014620464E4B984743F22B1387
:10086000984200F0878050D840F2346398427AD0A2
:1008700042F21663984272D1474B98474249002092
:10088000424B9847454B98470646002867D0444955
:100890006720444CA047444D324644492846444BC7
:1008A000984729466720A0474FF080513020414BA0
:1008B0009847414B03AD93E8070085E807001920EE
:1008C0003E4B98473E4C032120463E4B98472946D5
:1008D00020463D4B98470C23079364230A93322309
:1008E0000993032510A941F8285D2046374B984706
:1008F00029462046364B98470096002342F216625E
:1009000034496620344CA04729E04CF29863984261
:1009100020D04DF62E43984221D11F4B98471A49BB
:1009200000201A4B984718B31C4B984704461E4D9D
:1009300002462A4928461E4B984729466720194BEC
:100940009847002300932346642225496620224CC1
:10095000A04704E06520234CA0476420A0470E4B2D
:10096000984710B070BD012166201E4B9847F6E7EE
:100970000124E6E74FF0605135200E4B98473520B3
:10098000194B9847EBE700BFCC9E0800993A080046
:100990000D520800A90E0800553A0800CD50080075
:1009A000B09C08008D340800181A0020C49C080070
:1009B000C15108007D420800949B08007D44080056
:1009C00000C00840394608000545080049450800B0
:1009D0002F4608009107080021380800A09C080055
:1009E00031040800791508004142080010B582B0B2
:1009F00042490020424B984738B30446414B984740
:100A000001462046404B98474BF2403398421CD158
:100A10003E4967203E4B98473E4B9B683E4A1360D9
:100A2000023303F00F03092B13DC117863F3030186
:100A30001170384BDA68384B5A60009304234FF436
:100A400080527F216620354CA047354B984702B035
:100A500010BD314A13786FF303031370C3F302130D
:100A6000052B05DC0133117863F306111170E0E703
:100A7000294B1A786FF306121A705B7803F00F0394
:100A8000092B06DC244A0133517863F303015170CA
:100A9000CFE7214A53786FF303035370C3F3021374
:100AA000052B05DC0133517863F306115170C0E763
:100AB000194B5A786FF306125A709B7803F00F03A4
:100AC000092B06DC144A0133917863F3030191701A
:100AD000AFE7114A93786FF303039370C3F30113E5
:100AE000022B05DC0133917863F305119170A0E7C7
:100AF000094B9A786FF305129A709AE7CC9E08001A
:100B0000993A08000D520800A90E0800789C0800C8
:100B10008D34080060120E40C0110020D119080069
:100B2000553A08000FB4F0B583B00899642916D07F
:100B30000ED801297BD0022940F0FB80804B814AEE
:100B40001A605A604FF6FF721A81002098823CE0CA
:100B500066293FD0672940F0EC807A4835E0784D2F
:100B60000127AF740220FFF7DDFF00242C820D2047
:100B7000754B9847754D764A76492846764B984787
:100B80004FF000611220754EB0474FF00061132006
:100B9000B0474FF000612720B0474FF0FF312846A3
:100BA0006F4B9847394628466E4B98474FF4005292
:100BB0006D4B1A6028466D4B984728466C4B9847FA
:100BC0006C4967206C4B9847204603B0BDE8F04065
:100BD00004B070470A9E694C324669492046694B09
:100BE000984721466720644CA047674F39466720E5
:100BF000A047099D2A4653496920A04739466720E6
:100C0000A0470220FFF78EFF3EB14D4B1D8303220C
:100C10009A759A7440F6B8321A824A4A2A44484B66
:100C20001A60022149484F4B98470020CDE7444BBA
:100C30001B8A002B00F08280013B9BB2404A13824A
:100C40000BB10020C1E7514967204B4DA8473C4CF0
:100C5000A28A3C496920A847484EA389E2894C49A9
:100C60003046484FB84731466720A8474949672072
:100C7000A847A37C042B0BD0072B09D0032B21D032
:100C800001222F4B9A740220FFF74CFF00209CE7B3
:100C90002B4BDA899B899A4207D00122284B9A7400
:100CA0000220FFF73FFF00208FE700240094234637
:100CB000012239496620394DA8470220FFF732FF4B
:100CC000204682E71E4A937D013BDBB2937593B1C8
:100CD00033496720284B9847194B1A4A5A60198B99
:100CE0000A441A6040F6B8321A82022117481D4B96
:100CF0009847002069E72B4967201F4DA847114CF2
:100D00000323227828491D481E4FB84731466720E3
:100D1000A84723780024009402221F4966201F4D13
:100D2000A8470122064B9A740220FFF7FBFE2046DB
:100D30004BE720201D4B9847002046E7002044E762
:100D4000D0110020741000207D44080000000940EC
:100D500000D8B805549E0800ED0308007D42080045
:100D6000210408001D04080000E100E0110408004F
:100D700017040800E49C08008D340800181A0020AD
:100D8000F89C0800C1510800109D0800509D080003
:100D90009C9D0800B49D0800D11908002138080066
:100DA000009E0800109E0800389E0800150F0800DD
:100DB00038B5354C2046354B98470546236913F026
:100DC000010F34D010F0010F31D0314B9B7C032B3D
:100DD0000AD0042B0BD02C4B9B6902202D4B98473B
:100DE00001222B4B9A7422E00422294B9A74284C3E
:100DF000C82323822368244A92691A706389A381D5
:100E00002189618123681878234B98472081E389E1
:100E10001B029BB2E381226812F8011B0B43E381A2
:100E2000A38A0133A38222601C4B9A4216D2164B2E
:100E30001B6913F0020F10D015F0020F0DD0144AE9
:100E400053681268934216D05A1C11494A601978A7
:100E50000D4BD961114B9A4205D238BD0021232098
:100E60000F4B9847E3E7022107480E4B98470220B3
:100E7000084B984738BD022103480A4B9847022087
:100E8000044B9847E9E700BF00000940250408002B
:100E9000D0110020250B0800DD0E0800761100207F
:100EA000150F08002104080089B110B441184FF64D
:100EB000FF72094C10F8013B5340DBB254F8233069
:100EC00083EA12228142F5D1104610BC70474FF6DA
:100ED000FF721046704700BF240100204840C0B296
:100EE000024B53F8200080EA1120704724010020B3
:100EF000074A80EA0103DBB252F8233083EA11216A
:100F000081EA1023DBB252F8230080EA11207047F7
:100F1000240100200FB42DE9F84F6E4C0B9B0A9A68
:100F20006D4920466D4DA847214667206C4B984778
:100F30006C486D4B984772B6BFF35F8F00226B4BC6
:100F40001A704FF060513320694B98474FF00508F5
:100F5000654C684F31E03320674B98476748A0479E
:100F60003320674B984748E03320634B98476348EA
:100F7000A0473320624B984757E033205E4B984799
:100F80005E48A04733205E4B984767E033205A4BBA
:100F900098475A48A0473320594B984779E0332067
:100FA000554B98475548A0473320554B98474D48D7
:100FB000A047B8F1010800F0868033204E4B9847D7
:100FC0005048A04733204E4B98474F48A047DDF884
:100FD0002890B9F1090FBED9A7FB0923DB085E00F1
:100FE0005BB10025DFF830B1DFF830A13320D847FE
:100FF0005046A0470135B542F8D14348A047A7FB6A
:101000000936F60806EB8606B9EB4606ACD0760044
:101010000BD00025DFF800A1DFF800913320D04786
:101020004846A0470135B542F8D12E48A047DDF823
:101030002C90B9F1630FA0D9344BA3FB09235B09B2
:101040005E005BB10025DFF8D0B0DFF8D0A0332020
:10105000D8475046A0470135B542F8D12A48A047A5
:10106000A7FB0923DB08A7FB0326F60806EB860689
:10107000B3EB46068AD076000BD00025DFF898B097
:10108000DFF898A03320D8475046A0470135B54235
:10109000F8D11D48A047A7FB0936F60806EB8606DF
:1010A000B9EB46063FF47BAF760080D00025DFF831
:1010B00068A0DFF868903320D0474846A047013544
:1010C000B542F8D173E71248124B9847BDE8F84F84
:1010D00004B07047181A00206C9E0800C151080027
:1010E0008D340800B7A16800010000202806002008
:1010F0007D420800CDCCCCCC2742080093F29C0066
:101100004142080025E5390193B453001F85EB5196
:1011100000120E40014908005B42080025ED140052
:101120000FB470B50499662914D0672938D06529A1
:1011300003D03D20334B984707E0334B334A1A60C6
:101140005A6033496720334B98472046BDE87040CA
:1011500004B07047304967202E4DA847059C2F4E9C
:1011600022462F4930462F4B984731466720A847E3
:10117000254B1A6814601B6804332B4A93420BD228
:10118000214A1360204B1A685B689A42DDD1002126
:101190003E201C4B9847D8E71C4A1B4B1A60F1E7CE
:1011A000224967201B4B9847174B5A681B689A4285
:1011B00021D01A4D12681E4928461A4B98472946D5
:1011C0006720144B9847104B5B6853F8044B04940A
:1011D000154A93420CD30D4A0B4B5A6022461049D4
:1011E0000E48104B9847294667200A4B9847ACE7B2
:1011F000054A5360F2E70F496720064B98470024E1
:10120000A3E700BF150F0800EC110020F411002027
:101210008C9E08008D340800A09E0800181A00203B
:10122000B49E0800C1510800F4190020C09E0800B7
:10123000D09E0800DC9E08000FB4F0B587B00C9972
:10124000642921D014D8012900F00E81002900F072
:10125000BB80022913D10F9B1A1F052A40F2488137
:10126000032B00F01B810A2B00F02D810024D1E01C
:10127000672940D0682900F08D8066291AD00E2099
:101280009E4B98470024C5E000209D4B98479D4CFD
:10129000A0470028FCD09C4B0421C3F88010C3F861
:1012A0008011102283F8022319609848984B9847C0
:1012B0000024AFE00F9B0E9A0D999448954CA047DF
:1012C00004460C90002840F0A580934B9978DA787A
:1012D000043B9B7803F03F03009301F01F0302F0EF
:1012E0003F0249090220FFF7A7FF8C4B1A7860F3F1
:1012F00082021A708EE00E9C631E0B2B02D94FF0F7
:10130000FF3487E00D9F864AD55C0F9E3146012051
:10131000FFF792FF2844874202D94FF0FF3479E06B
:10132000A6F26C73C72B02D94FF0FF3472E07D4DEB
:10133000A5FB06356D09642303FB1565632D02D9F2
:101340004FF0FF3466E03346224639460020FFF76F
:1013500073FF00903B46224629466C48724CA047DA
:1013600004460C90002855D16B4B9978DA78043BF1
:101370009B7803F03F03009301F01F0302F03F024C
:1013800049090220FFF758FF644B1A7860F3820284
:101390001A703FE002AB009303AB04AA05A95B48B7
:1013A000624CA047029B013B614A52F82320059BF7
:1013B0000193049B013B5F4951F823300093039B49
:1013C0005D490D985D4CA0470E99022928D90F98C8
:1013D0000D9A8318023303EB9003524AA2FB0020BC
:1013E00003EBD01301EB4102C1EBC2025449A1FB54
:1013F000021203EB5203A3EB5013524AA2FB031257
:10140000991A02EB51029208C2EBC2029B1A0133F5
:101410000C930C9C204607B0BDE8F04004B0704728
:101420000F9A501E0D9B1344043301EB4102C1EB94
:10143000C2024349A1FB021203EB520303EB9003E8
:10144000384AA2FB001203EBD213A3EB52133D4A1E
:10145000A2FB0312991A02EB51029208C2EBC202DC
:101460009B1A01330C93D4E70D9B13F0030F07D1A4
:101470002C4AA2FB03125209642101FB12325AB911
:10148000284CA4FB0324E4094FF4C87202FB143473
:10149000B4FA84F46409BDE70124BBE70E9C182C60
:1014A00028D90D9A012A08D0183C64B252B2A41A65
:1014B000002CD4BF00240124ACE7109C012C94BF65
:1014C00000240124A6E70E9C182C15D90D9A012A98
:1014D00008D0183C64B252B2A41A002CCCBF00242D
:1014E000012497E7109C012C8CBF0024012491E774
:1014F00001248FE700248DE700248BE7150F0800F7
:10150000B1430800D543080000E100E060120E403E
:1015100043460800A14608006C120E40F419002052
:10152000049F08001F85EB51A947080035470800B4
:101530002405002040050020F49E0800C151080049
:10154000398EE3382549922410B582B0042106482B
:10155000064B984700230093042205496620054C5A
:10156000A04702B010BD00BF60120E4061480800E5
:101570004D230800213808000FB438B504994B1EDC
:10158000682B00F20082DFE813F00D015D016701B6
:10159000710183018F019B010302A901DB01FE019F
:1015A000FE01FE01FE01FE01FE01FE01FE01FE0143
:1015B000FE01FE01FE01FE01FE01FE01FE01FE0133
:1015C000FE01FE01FE01FE01FE01FE01FE01FE0123
:1015D000FE01FE01FE01FE01FE01FE01FE01FE0113
:1015E000FE01FE01FE01FE01FE01FE01FE01FE0103
:1015F000FE01FE01FE01FE01FE01FE01FE01FE01F3
:10160000FE01FE01FE01FE01FE01FE01FE01FE01E2
:10161000FE01FE01FE01FE01FE01FE01FE01FE01D2
:10162000FE01FE01FE01FE01FE01FE01FE01FE01C2
:10163000FE01FE01FE01FE01FE01FE01FE01FE01B2
:10164000FE01FE01FE01FE01FE01FE01FE01FE01A2
:101650006900B8000201E200ED00DD000920FFF79B
:101660008BFF4FF040510420AE4CA0474FF040514B
:101670000520A0474FF040510620A0474FF04051B1
:101680000720A0470420A84CA0470620A04705201B
:10169000A0470720A54B9847A548A64CA047302156
:1016A0000220FFF769FF4AF2B700A047302102206D
:1016B000FFF762FF43F29350A04730210220FFF76B
:1016C0005BFF43F29350A04738210220FFF754FFFD
:1016D00008210220FFF750FF01210220FFF74CFFF5
:1016E00006210220FFF748FF0C210220FFF744FFEC
:1016F0000122914B1A6000244BE108210220FFF7E0
:101700003BFF0A20FFF738FF4FF040510420854C83
:10171000A0474FF040510520A0474FF04051062010
:10172000A0474FF040510720A04704207E4CA0471F
:101730000620A0470520A0470720A04700247E4B95
:101740001C6026E17C4B1C6804F0010421E1079A2F
:1017500006990720FFF710FF05990320FFF70CFFFC
:10176000002416E1079A06990720FFF705FF059C5C
:101770002178002900F012810325013405942846C0
:10178000FFF7FAFE21780029F7D1002401E1059C3A
:1017900024B10720654B98470024FAE00720624BEC
:1017A0009847F6E00920FFF7E7FE05205E4B9847D3
:1017B0000520FFF7E1FE059C14F0800F4FF00300B9
:1017C00014BF5A4B584B9847E4B214F0400F4FF0F7
:1017D000020014BF554B544B984714F0200F4FF0A4
:1017E000010014BF514B504B984714F0100F4FF0AD
:1017F000000014BF4D4B4C4B984714F0080F4FF0AE
:101800002B0014BF494B484B984714F0040F4FF07E
:101810002A0014BF454B444B984714F0020F4FF079
:10182000290014BF414B404B984714F0010F4FF073
:10183000280014BF3D4B3C4B98470620FFF79CFE09
:101840000024A6E00620384B98479DF8141001208C
:10185000FFF792FE00249CE00620344B98479DF849
:1018600014100120FFF788FE002492E040F6655036
:10187000304CA04704202D4B984740F2AE20A047A3
:101880000420294B984740F66550A047002480E08B
:1018900040F66550274CA0470420244B984740F25F
:1018A0005710A047002474E040F25710214CA04785
:1018B00004201D4B984740F66550A047002468E07F
:1018C000059B03F003031D4AD15C069B194441F0BC
:1018D00080010220FFF750FE00245AE04FF04051F3
:1018E0000020104CA0474FF040510120A0474FF07E
:1018F00040510220A0474FF040510320A0474FF035
:1019000040512820A0474FF040512920A0474FF0D8
:1019100040512A20A0474FF040512B20A0470024DF
:1019200037E000BF7D42080041420800274208001E
:10193000DC50340001000020F8190020C09F08008E
:101940004FF020510020164CA0474FF020510120AD
:10195000A0474FF020510220A0474FF02051032014
:10196000A0474FF020512820A0474FF020512920B8
:10197000A0474FF020512A20A0474FF020512B20A4
:10198000A047002405E00F20064B9847002400E004
:1019900000242046BDE8384004B070470024F8E732
:1019A0007D420800150F080008B5C0F11400054B72
:1019B00098474FF07C51044B9847044B9847C0B26E
:1019C00008BD00BF3D4D0800ED4D08008D500800DA
:1019D0000FB42DE9F04F83B00C99082900F09284E0
:1019E00034D8042900F05C8410D9062900F0BF80A7
:1019F00000F27C8498496720984B98470821984BBF
:101A0000598200226620974B9847B0E0012900F0E8
:101A10004C82022927D194496720904CA047934DCE
:101A20000D9A93492846934B984729466720A0472B
:101A30008B4A138823F00803138064230093002348
:101A40006E228D4966208D4CA04790E0672900F0FA
:101A5000E6810CD96E2900F02581C92900F0B880F3
:101A6000682900F096812120854B98477FE0642902
:101A700000F083806629F6D167207A4B984780462C
:101A80000C9006469DF834A080F800A04FF6FF7138
:101A90005046DFF80CB2D847714F38810E9CE0B247
:101AA00088F801003989D8473881C4F3072088F8BD
:101AB00002003989734B98473881DDF83C901FFA52
:101AC00089F425464FEA092020F07F4020F0FF00EE
:101AD00040EA142080B2A8F803003989694B98477E
:101AE00038814FEA4900C0B288F805003989D847E3
:101AF000388100230E93BCB11F46DFF86491DFF8F4
:101B000084B1109B33F81730180240EA132080B2DA
:101B100006EB4703D880B9F80810D847A9F80800A1
:101B200001370E97BD42ECD14D4B19890A0208EBE3
:101B3000440342EA1122DA80BAF17F0F484A13883F
:101B400014BF43F0020323F002031380444B1B88AD
:101B500013F0020F40F0FB806100093189B2404B65
:101B600059821A88C2F3400266203E4B98470020F3
:101B700003B0BDE8F04F04B070476520424B984772
:101B80000023424A1360364C2360012323756720EB
:101B90003F4B9847C0B2207350B9238843F00103EC
:101BA0002380062303223B4968203B4CA047DEE705
:101BB0006720374B98472D4CC2B2384920462D4BF1
:101BC000984703231A4621466820334CA047CEE7A6
:101BD0006720244FB84705460C907F2028704FF6A9
:101BE000FF71DFF8BC80C0471D4C20816420687005
:101BF0002189C04720810026AE7021893046C04728
:101C00002081EE7021893046C04783B223810002D3
:101C100020F07F4020F0FF0040EA1320A88006213A
:101C2000618232466620B847238803F01603162BDC
:101C300009D041F2883300933346C9220E49662009
:101C40000E4CA04793E70023009365220A496620C3
:101C50000A4CA0478BE700BF78A108008D3408002C
:101C6000001A0020250B0800B0A10800181A002057
:101C7000DCA10800C1510800D11908002138080072
:101C8000150F0800F10E080021110800FC190020B2
:101C9000C93E0800C49F080079150800CC9F0800C1
:101CA000DD0E0800AB4B1B8813F00C0F44D1A94C80
:101CB00043F0080323806720A74B984705460C9004
:101CC000A64EA74F3B6816F82300287060734FF6A6
:101CD000FF71DFF8CC82C0472081652068702189C0
:101CE000C04720810020A8702189C04782B222818C
:101CF000000220F07F4323F0FF0343EA1223A5F8FC
:101D00000330238843F0020323803B68013356F8F5
:101D10002320D2B1924A136005218E4B59820122B1
:101D200066208D4B98476423009300236E228D49D3
:101D300066208D4CA0471AE76423009300236E228F
:101D400088496620884CA04711E73A60E4E7DFF84D
:101D50000492864D99F80C3098F800208449284662
:101D6000844FB84729466720834EB04798F8012032
:101D700082492846B84729466720B047B9F800206D
:101D8000C2F340027E492846B84729466720B0473B
:101D9000E2E66720704FB84705469DF8346006704C
:101DA0006C4C66734FF6FF713046DFF8F481C04724
:101DB000208101206870A0722189C04720810E9B7C
:101DC0001802C3F3072300F47F4018436880E081C2
:101DD0002189DFF8D081C04720810F9B1802C3F30F
:101DE000072300F47F401843A88020822189C04740
:101DF00083B22381000220F07F4020F0FF0040EA00
:101E00001320E880238843F00203238008216182A5
:101E1000B6F17F0218BF01226620B847A7E6672007
:101E20004D4FB84705469DF834600670494C6673BF
:101E30004FF6FF713046DFF86881C04720810520EA
:101E40006870A0722189C04720810E9B1802C3F3DD
:101E5000072300F47F4018436880E0812189DFF880
:101E60004481C04720810F9B1802C3F3072300F46D
:101E70007F401843A88020822189C04783B22381F4
:101E8000000220F07F4020F0FF0040EA1320E880AD
:101E9000238843F00203238008216182B6F17F0288
:101EA00018BF01226620B84761E636496720324EE6
:101EB000B047284D2A882D4C02F0010232492046B5
:101EC0002C4B984721466720B0472B8813F0010F11
:101ED00000F0B4802D496720B0472A88C2F3400241
:101EE0002B492046234B984721466720B0472B8833
:101EF00013F0020F3FF43BAE6720174B984705469F
:101F00000C90417805294FD018D9642956D06529FD
:101F100040F0908082781F491448164B984721461C
:101F20006720154B9847A978012954D0002977D00C
:101F3000052965D04720184B98475BE0012979D1E6
:101F4000044A138823F004031380144967200A4BC2
:101F500098470CE6001A0020250B0800ECA10800A9
:101F6000FC190020D119080021380800181A002097
:101F7000DC9F0800C15108008D34080000A0080053
:101F800010A0080024A0080038A0080048A00800FD
:101F900058A00800C0A00800150F080090A0080075
:101FA000DD0E0800F10E0800A74A138823F0040391
:101FB0001380A6496720A64B9847D8E58278A549A3
:101FC000A548A64B984721466720A14B9847022079
:101FD000A34B9847CBE5A34967209D4B98479A4967
:101FE0000B8843F004030B8001231A46497B6820C9
:101FF000FFF7EEFC944A138823F008031380B6E53C
:1020000099496720924B98478F490B8843F0040306
:102010000B8001231A46497B6720FFF7D9FCE9E7CB
:10202000924967208A4B9847874A138823F0020316
:102030001380DFE712208E4B984798E56720884B86
:10204000984705460C90074602787F4B1B7B9A42C7
:1020500001D07F2A2DD1DFF8009286494846DFF86B
:10206000FC81C04721466720794EB0476A78824993
:102070004846C04721466720B0472B787F2B04D0C5
:10208000714A138843F0020313806B78052B00F02C
:10209000A88017D9642B71D0652B7BD0102B18D05A
:1020A000002300930123042274496620744CA04746
:1020B0005DE570496848694DA84721466720644B33
:1020C000984754E5012B00F0B280032B3FF44FAD4D
:1020D000E6E7AB78102B48D15B4AD2899A4233D0DD
:1020E000684A936913F0040FFBD0664A136843F003
:1020F00003031360936913F0010FFBD0614A0123BE
:10210000D3610C9BD888010241EA1021D98018893B
:10211000010241EA102119815889010241EA102186
:1021200059819889010241EA10219981D3F806105A
:10213000554B19600C9BD3F80A10544B1960136867
:1021400023F00303136012E5B7F8031019443E4A65
:10215000128A13449942C3DB002300930223042212
:1021600046496620464CA04701E500230093022320
:10217000042242496620424CA047F8E4324A1388C0
:1021800043F0320313803320414B98476920FFF717
:102190001FFCECE400262E704FF6FF7130463D4FD9
:1021A000B847294C2081652068702189B847208173
:1021B0006720394B9847C0B2A8702189B84782B2CE
:1021C0002281030223F07F4323F0FF0343EA12231B
:1021D000A5F803300521618232466620204B9847DE
:1021E000C5E421202A4B98477A88B888130243EA2D
:1021F00012236A78010241EA102189B200919BB250
:1022000026491548154EB04721466720104B984780
:102210007988BA88130243EA12230A0242EA112299
:102220009BB292B269780520FFF7D2FB9FE4202091
:10223000174B984721466720054B984701221146C6
:102240000720FFF7C5FB92E4001A002070A00800E9
:102250008D340800A8A00800181A0020C1510800F9
:10226000250B0800E0A00800FCA0080020A1080041
:10227000150F0800DC9F080000A00800D119080015
:102280002138080060120E4068120E406C120E4099
:102290005B420800DD0E08002111080030A1080093
:1022A0006720244FB84704464FF6FF710078224E4E
:1022B000B047224D2881637881B243F08000B04757
:1022C00028819DF83400A0702989B04783B22B8102
:1022D000000220F07F4020F0FF0040EA1320A4F825
:1022E0000300002205216620B84740E41449672016
:1022F000144B98470821114B5982002266200D4B40
:10230000984734E40D4B5B88002B3FF430AC013B25
:102310009BB20A4A53802BB9084A138823F0320330
:10232000138024E46620084B984700283FF41FAC34
:10233000F2E700BF250B0800DD0E0800001A0020A0
:1023400098A108008D340800C93E08000FB42DE99B
:10235000F04387B00E9905293DD017D9072900F021
:10236000F98529D364295DD0662940F073860F9BD7
:1023700001330F939B4A52F82320002A40F08880B3
:1023800000230F933420984B984788E0032900F0EE
:102390006A8300F29180022940F05C86934B1B7F98
:1023A000062B00F25283DFE813F0D10051015401F3
:1023B000680139033C038902109B1A784AB19DF8E1
:1023C0003C108A4205D0013310931A780AB18A4230
:1023D000F9D1904656E0DDF8408008F1FF331093C4
:1023E000B8F1000F4ED0824E6625824C0F9B1B78B1
:1023F0001B09F15C2846A0470F9B1B7803F00F03D5
:10240000F15C2846A04720212846A0470F9B0133B6
:102410000F93DDF8408008F1FF331093B8F1000FFF
:10242000E4D12FE074496720724DA8476F4B002418
:102430009C615C611C7702221A8064206F4B984774
:102440004FF0605134206E4EB0474FF06051332052
:10245000B0473320644B984764206A4B9847642008
:10246000A84769496720A847009423460422674982
:102470006620674DA847009423466B226549662075
:10248000A847A046404607B0BDE8F04304B07047F7
:1024900013F0010F3FF476AF34205F4B98470F9B4A
:1024A000504A52F823200092662258491046584C50
:1024B000A0474FF00008E5E705AB0FAA0EA9574863
:1024C000574CA047494B1B8813F0040F30D06920AC
:1024D0004A4B984780460028D4D00EAD55F8042BBF
:1024E000504C06AE56F8043D00930F9B4E492046D3
:1024F000DFF84481C04706230122214668203F4F70
:10250000B84704AB009333462A460EA94348474DCB
:10251000A8470E9B00930F9B059A45492046C0474C
:102520000523002221466820B8474FF00008A9E79C
:102530003C4C059B00930F9B0E9A3E4920463E4D16
:10254000A847214667202B4B9847C0E70F9AD3B284
:10255000083B182B2DD8DFE813F08405840584058B
:102560002C002C0084052C002C002C002C002C00AE
:102570002C002C002C002C002C002C002C002C00FB
:1025800019002C002C002C002C008405174C14235F
:10259000A3612A4BA3601B2003F8010C0125E581F0
:1025A0004FF6FF71264B9847208225774FF00008A1
:1025B00068E70E4C238843F00403238000256561FF
:1025C000204B636003F8012C0123A3811E4967207F
:1025D000084EB0479DF83C106620B0470323237790
:1025E000A8464FE7D4A20800414208001C1D002065
:1025F000E8A208008D340800F8A108007915080049
:102600007D4208003912080008A208004D23080086
:1026100021380800C93E08002742080060120E4019
:1026200047460800BC1D00202CA2080035470800C2
:102630003CA208001CA20800C15108003D1D00205A
:10264000DD0E0800191C00204CA208000222914B4C
:102650001A77904C1423A361A3685A1CA2600F9AA6
:102660001A70E3890133E381218A9DF83C008A4B8B
:10267000984720824FF0000804E70022854B5A61FA
:102680000F9AD1B2A1F10803132B00F29480DFE876
:1026900003F0361E74929274929292929292929257
:1026A00092929292920A7B4C1423A3617B4BA3607B
:1026B0001B2003F8010C0123E3814FF6FF71764BD9
:1026C00098472082042323774FF00008DAE6744B02
:1026D00093E803000290ADF80C10090C8DF80E1071
:1026E000704B1860BDF80C209A806A4B0622DA8184
:1026F00005221A7701229A614FF00008C2E6654B65
:102700009A89002A00F0B184674C22440E925B68DB
:1027100005939A4208D91A7803F8012C059B0133D6
:1027200005930E9A9A42F6D8202203F8012C5F4DA9
:10273000294667205E4EB047564A516801395160BC
:102740009389013B9BB29381621C1A44521A682000
:10275000B0478046431E059300283FF493AE67269A
:10276000534C29463046A047DDF8148008F1FF336A
:102770000593B8F1000FF4D184E6464B9B896BB901
:10278000444B1A8822F004021A804FF0000883F8A4
:102790001C800D216620464B984773E606223D4B70
:1027A0001A77002400940D23022242496620424DEC
:1027B000A847A04666E6D2B2364B9B8983B9202A49
:1027C00000F05784334C6368581C60601A706620B0
:1027D000374B9847A3890133A3814FF0000851E696
:1027E000FF2B00F259842B48008810F0010F12D102
:1027F000284840682C4C1C44A04202D10133254C8F
:10280000A381441C234B5C6002706620284B9847D0
:102810004FF0000836E61F4A5168234A1A44914295
:102820000FD0214A13440E935A1E914209D81949D8
:1028300012781A700E9A531E0E93023A486890420C
:10284000F6D9144C63685A1C62600F991970C9B2AA
:102850006620174DA847A38901339BB2A381616805
:10286000114A1A44521A6820A8478046431E0E9304
:1028700000283FF407AE0D4E67250D4C3146284623
:10288000A047DDF8388008F1FF330E93B8F1000F50
:10289000F4D1F7E51C1D0020DD0E08003D1D0020D1
:1028A000CCA208003C1D0020181C002050A20800EB
:1028B0008D3408004D23080021380800914A93897F
:1028C00052689149521A9B1A5A1E059253B18F4E63
:1028D00067258F4C31462846A047059B5A1E059216
:1028E000002BF7D1874DAA89874C131901336B60F0
:1028F000002616550720FFF729FDAA891319013371
:102900006B60165583496720814DA8472146672093
:10291000A847814B984781492046814B98470446F8
:102920000E9068B97F496720794B9847754B4FF0F7
:10293000000883F81C801A8822F004021A80A1E59E
:10294000794B984701462046784B984781B26D4BAA
:1029500019820596764B1B88F3B199421ED001234C
:10296000734A00E02B4632F8334024B15D1CA1428B
:10297000F8D1059300E005936D4C04EBC3035D684B
:1029800075B10E9C2046684B9847611C01445D4818
:10299000A847684B9847C5E70023EDE70023EBE71E
:1029A00000230593644B1B8813B3994222D0012363
:1029B000614C00E02B4634F8332022B15D1C91427B
:1029C000F8D1059300E005935B4901EBC3035D6813
:1029D00095B10E9C2046544B9847611C01444948D0
:1029E000A847544B98474F496720494B984799E768
:1029F0000023E9E70023E7E7424B1B8813F0020FAF
:102A000090D04E4C82B24E4920464E4B98472146BC
:102A100067203F4B9847474B984783E70522394B40
:102A20001A77384C1423A361A3685A1CA2600F9A2A
:102A30001A70E3890133E381218A9DF83C00424BFF
:102A4000984720824FF000081CE540496720304B32
:102A500098472C4B4FF0000883F81C801A8822F00E
:102A600004021A800EE5274B9B69B3B103F1FF38CE
:102A7000244BC3F81880B8F1000F0ED1197F052937
:102A800000F26482DFE811F009000600160062021D
:102A90009500A10000221B4B1A771A4BD3F8148023
:102AA000B8F1000F3FF4EEAC08F1FF325A614FF07D
:102AB0000008E7E4134CE18925481C4B984780B295
:102AC00020824CF2F57398420CD04CF2FA73984283
:102AD00011D00C4B1B8813F0020F56D10022094B6A
:102AE0001A77DAE7002300931A4B064A1A49662040
:102AF0001A4CA047D1E7034B9B898BBB0022014BAB
:102B00001A77CAE71C1D0020181C002054A20800D8
:102B10008D34080058A208006D3A0800CC9E0800C9
:102B2000993A0800A4A208000D520800A90E080056
:102B3000589C0800553A0800F8A50800BC1D002064
:102B400060A20800C1510800DD0E080078A208004C
:102B50003C1D0020FCA20800E532080021380800D6
:102B6000984C228842F00402228000226261964E34
:102B70003344636095496720954DA847A289314643
:102B80006820A8470323237787E792496720904C62
:102B9000A0478C4EF28990490520FFF7D7FB8F4D57
:102BA000328A8F4928468F4B984729466720A0478D
:102BB00094E78D496720864B9847824B00221A770D
:102BC0001A8822F004021A8067E77E4CE189824865
:102BD000864B984780B220824CF23A13984200F01C
:102BE0000D8132D845F2E233984200F0E0801DD8E2
:102BF00040F2BB53984200F01C8140F27B63984244
:102C00001DD1704A938970490B4452689A4207D289
:102C1000774967206E4B98476A4A5368013353607F
:102C2000684B00225A6103221A772BE446F60E7392
:102C3000984233D04AF64F53984200F04981614B95
:102C400000225A6103221A771CE44CF2BA639842BC
:102C500064D01BD84CF2E333984272D04CF23A4322
:102C60009842ECD1574B5A68574B9A4207D9614961
:102C70006720574B9847534A5368013B5360514B69
:102C800000225A6103221A77FFF7FCBB4CF2F5735E
:102C900098424FD04CF6BA439842D0D1494B9B89C9
:102CA0002BB1494A1344474A52689A4215D0454BC2
:102CB0005B68591E444A914217D34F4C224613F881
:102CC000011C0620FFF742FB78B13E4B5B682246B1
:102CD00019780620FFF73AFB38B93A4A5368013BA6
:102CE0005360444967203A4B9847434D354B5B68E6
:102CF0002A4619780620FFF729FB002840F0CB80F0
:102D0000304B5B68591E304A914280F0DD802D4B7C
:102D100000225A6103221A77FFF7B4BB32496720B9
:102D20002B4B9847274B1A8822F004021A80002266
:102D30001A77B2E6234B00225A6103221A77FFF773
:102D4000A1BB204A536801330E931F4992890A445C
:102D500093420AD21B481A7803F8012C0E9B0133C8
:102D60000E9382890A449A42F5D8202203F8012C56
:102D7000144B59680E9A521A6820154B9847431EF7
:102D80000E9350B11B4E6725114C31462846A04783
:102D90000E9B5A1E0E92002BF7D10A4B9A89013ACC
:102DA0009A8100225A6103221A77FFF76BBB054B09
:102DB0001A8882F001021A8000225A6103221A77CF
:102DC000FFF760BB1C1D0020181C0020A4A20800F7
:102DD0008D340800A8A208003C1D0020BC1D002066
:102DE000B8A20800C1510800C4A20800A90E08003A
:102DF00054A2080050A2080000A308009F4B5B6883
:102E00009F4A9B1A5A1E0E9253B19E4E67259E4CA6
:102E100031462846A0470E9B5A1E0E92002BF7D132
:102E2000964B974A5A6000225A6103221A77FFF79D
:102E300029BB924A938992490B4452689B1A5A1EA5
:102E40000E9253B1914E67258F4C31462846A047CC
:102E50000E9B5A1E0E92002BF7D1884B9A898849F7
:102E60000A445A6000225A6103221A77FFF70ABB0C
:102E7000013B636031466720834B984763682A466D
:102E800019780620FFF762FA00283FF439AF63682B
:102E9000BB42EDD834E7794C794F7A4EEEE7636860
:102EA000013B636039466720B0476368591E744A26
:102EB0009142FFF42CAF2A4613F8011C0620FFF7BD
:102EC00045FA0028EBD022E76C4C6E4F6E4EF2E7CD
:102ED0006F4D6A4B5B682A4619780620FFF736FA71
:102EE000B8B1664C664F694E1DE0013363603146F0
:102EF0006720654B984763682A4619780620FFF7D4
:102F000025FA0028EDD16368A2893A449342ECD3B4
:102F1000E7E75A4C5A4F5D4EEDE7013363603146A7
:102F20006720594B984763682A4619780620FFF7AF
:102F30000DFA20B16368A2893A449342EDD34F4B16
:102F400000225A6103221A77FFF79CBA2920514BBD
:102F50009847A2E54A4D0E954D4E062432460E9BEB
:102F600019782046FFF7F2F9804618B10E9B01331D
:102F70000E93F3E70E9B5A1B05929AB13F4A4049C4
:102F8000516092892A4493420CD23C494A68501CB1
:102F90004860581C0E901B7813700E9B8A892A4437
:102FA0009A42F3D805996B180E93344A93895B1AA9
:102FB00093811446062704E0A3892B440E9A93427A
:102FC00014D80E9BA2892A449A427FF65BAA324605
:102FD00019783846FFF7BAF90028EDD10E9B013376
:102FE0000E93A2892A449A42F1D8EAE702F1010934
:102FF000CDF83890C4F804904B4588BF4B460CD9A7
:10300000324619783846FFF7A1F930B10E9B0133EB
:103010000E93A2892A449A42F2D80E9B6168591AEB
:10302000059189B1A2892A4493420DD26268511C4C
:103030006160591C0E911B781370059921B10E9B8C
:10304000A2892A449A42F1D8A389591AA181CDF8BC
:103050003890B6E70D200F4B98474FF00008FFF768
:1030600011BA4FF00008FFF70DBA4FF00008FFF754
:1030700009BA4FF00008FFF705BA00BF1C1D002079
:10308000181C002050A208008D34080054A208002B
:1030900000A30800150F08004FF00008FFF7F2B971
:1030A00038B5054608460A490A4B984770B10446A8
:1030B000094B984701462046084B984745F2E5736F
:1030C000984203D12B8843F002032B8038BD00BF08
:1030D000CC9E0800695208000D520800A90E080095
:1030E00038B5054608460A490A4B984770B1044668
:1030F000094B984701462046084B984745F2E5732F
:10310000984203D12B8823F002032B8038BD00BFE7
:10311000CC9E0800695208000D520800A90E080054
:1031200038B50D4603496720034CA0472946672060
:10313000A04738BD38A408008D34080008B50249FE
:103140006720024B984708BD0CA308008D34080087
:1031500070B53A4900203A4B9847002856D00446AB
:10316000384B984701462046374B984747F227335C
:10317000984204D04EF2A913984224D070BD33492E
:1031800000202F4B9847C0B1314B9847C4B22F490C
:1031900000202B4B984790B12D4B9847C5B22B4937
:1031A0000020274B984760B1294B9847C3B22A4665
:1031B00021466620274CA04770BD0024E7E7002584
:1031C000EDE70023F3E7214900201D4B9847F0B1BC
:1031D0001F4B9847C4B21D490020194B9847C0B1F6
:1031E0001B4B9847C5B219490020154B984790B121
:1031F000174B984786B218496720184B98473346B3
:103200002A4621466720134CA04730B170BD0024E8
:10321000E1E70025E7E70026EDE7114D29466720A5
:103220000E4CA0470F4E314668200A4B9847314656
:103230006720A04729466720A047E7E7CC9E080003
:10324000993A08000D520800A90E080028A40800A9
:10325000CD5008003912080030A408008D34080051
:10326000A4A20800181A002070B582B004460D46CA
:10327000038843F004030380104E0A461049304689
:10328000104B9847314667200F4B984755B90F4967
:1032900067200D4B98470E4B013BFDD10D480E4B5F
:1032A0009847FEE74FF47A7300936B1E22460B4952
:1032B00066200B4CA04702B070BD00BF181A00205A
:1032C00000A40800C15108008D3408004CA3080078
:1032D00020A1070000120E400149080069320800D1
:1032E0002138080010B582B00446038843F0040377
:1032F00003800846054B9847002300930346224667
:1033000003496620034CA04702B010BDCD50080011
:1033100069320800213808002DE9F0438BB001A97B
:103320004448454B984745496720454CA047019A7A
:10333000013AD2B2434F413243493846434B984752
:1033400039466720A04742496720A047029A414B6F
:1033500053F822106720A0473F4E31466720A04710
:103360003E496720A0473E4D039B55F82310672038
:10337000A04731466720A0473A496720A047049BF1
:1033800055F823106720A04731466720A0473649EB
:103390006720A047059A354B53F822106720A047B5
:1033A00031466720A0470699192938D0304B0024B0
:1033B00001341A7B12B10C338A42F9D12D496720AE
:1033C0001F4DA847DFF8A8804FEA440909EB040322
:1033D00008EB830359686720A84727496720A84757
:1033E0004C4408EB8408D8F808106720A8473146F9
:1033F0006720A84721496720A847079A204B53F820
:1034000022106720A84731466720A847089B43B988
:103410001C4967200A4B98470BB0BDE8F083002495
:10342000CCE7099A18490748084B9847394667205E
:10343000A847EDE740070E40E940080014A3080044
:103440008D340800181A002050A30800C15108004C
:1034500060A3080070050020A4A208006CA3080067
:103460009005002078A3080084A30800E40500204C
:1034700048A4080090A308009CA30800A4A3080087
:10348000D0050020C4A30800B0A308000FB4F8B50D
:103490000699A1F16403052B00F2DD80DFE813F04B
:1034A0000600DB003B005A008700B4006C4B6D4AFD
:1034B0001A605A6008206C4B98474FF000610C204E
:1034C0006A4CA0476A490B20A0476A496A486B4B7F
:1034D000984738B94FF48072694B1A60664C694E50
:1034E000694F06E01820694B9847F3E706A9204684
:1034F000B8472046B04705460028F7D15E4C204625
:10350000634B984701212046624B98472846BDE807
:10351000F84004B07047524B1A68511C1960079963
:1035200011701A685C4B9A4203D3A3F580624C4B2E
:103530001A604B4B1A685B689A4206D04FF40071D0
:103540004D48544B98470125E0E7002117204F4B89
:103550009847F3E700230693079B19461A78FAB1B8
:103560003F4C4D4E444D2268501C20600133079360
:103570000B781370069B013306932368B34224BF74
:10358000384B2360226863689A420BD04FF4007175
:103590002846404B9847079B19461A78002AE2D1E3
:1035A000069DB3E700211720384B9847EEE700232C
:1035B0000693089B0BB32A4C374E2F4D23685A1C99
:1035C0002260079A511C079112781A70089B013BE0
:1035D0000893069B013306932368B34224BF214B13
:1035E0002360226863689A4209D04FF4007128462C
:1035F000284B9847089B002BE0D1069D86E70021C9
:103600001720224B9847F0E700230693089B03B34B
:10361000224D66242026079B1B781B09E95C204667
:10362000FFF734FF079B1B7803F00F03E95C20468C
:10363000FFF72CFF31462046FFF728FF079B013399
:103640000793089B013B0893069A01320692002BD0
:10365000E1D1069D5AE70C200C4B9847002555E711
:10366000FC1D0020041E00207D4408007D4208004F
:103670000100000868AD080000060E40A5480800DB
:1036800000E100E0E7480800EF480800150F0800D7
:10369000E3480800DB48080004220020E8A20800F4
:1036A00010B582B01648174B9847044610F4007FB7
:1036B00011D0154A53681268934211D05A1C12490E
:1036C0004A6019780E4BD961104B9A4203D3A3F587
:1036D00080620D4B5A6014F0010F07D102B010BD8B
:1036E0004FF4007106480A4B9847F4E7044B9B6976
:1036F00000220092022207496620074CA047EDE70E
:1037000000060E40E3480800FC1D002004220020B3
:10371000DF4808004D230800213808000FB410B519
:103720000299A1F16403042B73D8DFE803F003725C
:10373000133F6500039B059A1A81049A5A601A6028
:10374000069A9A724AF6CD329A810020BDE810405E
:1037500004B07047039CA2894AF6CD339A4203D045
:10376000662133202D4B98472389A17A626801FB9B
:10377000032322689A4212D000230293A37A9BB1BA
:10378000049A013A002312F8010F2168C85401334A
:10379000A17A9942F7D8236819442160D5E76621B8
:1037A00034201E4B9847E7E70021F4E7039CA289E9
:1037B0004AF6CD339A4203D067213320174B9847FE
:1037C000226863689A4212D0A27A23689B1A236007
:1037D00000230293002AB8D0049A013A2168C95CF8
:1037E00002F8011F0133A17A9942F7D8ADE76721AA
:1037F00035200A4B9847E7E7039CA2894AF6CD3368
:103800009A4203D068213320044B984763682360B1
:103810009BE71F20014B984797E700BF150F080053
:103820000FB4F0B583B00899642928D01ED9662951
:103830006BD0672940F0CD80684B9847684A536841
:103840001268934200F0AE801D685C6808949E6820
:103850001033644A9342C0F0A280634A604B5A60BE
:10386000624B984731462046A84748E0012940F07E
:10387000B080002508955E4C2F4666269AE0584B8E
:10388000594A1A605A605A4B03F5C8610022DA603F
:1038900010338B42FBD1574B02221A665A655A628B
:1038A000C3F88020196F21F0020119675A601620B1
:1038B000514B9847514C524A00212046514B984752
:1038C00040F2EE22002120464F4B984740F20D2255
:1038D000002120464D4B9847002120464C4B9847ED
:1038E0004C4B4FF48002C3F88020C3F880210021A4
:1038F00083F816131A6004222046474B984700208D
:1039000003B0BDE8F04004B07047344B98470C9DBD
:1039100045B300230893364BDB68A3B1012308931A
:10392000334A00201C46D16951B101331032204680
:10393000642BF8D100211620384B9847642302E00D
:1039400070B9642BF6D02A491B01CA180998C850CF
:103950000A9B53600B9B9360D560244B9847CEE73E
:103960000893EEE71E4B1A68099911601B680A9AC2
:103970005A600B9A9A6010331A4A93420BD2184A33
:103980001360174B1A685B689A42E6D10021152034
:10399000224B9847E1E7144A114B1A60F1E7104AAD
:1039A00053605DE7114B9847A9E70135089510343E
:1039B000642DA4D0E368002BF7D0013BE360002B1B
:1039C000F3D1A3686268216800973046FFF728FFAB
:1039D000EBE70B20114B984791E700BF1149080016
:1039E0004423002044230020042200204D490800E5
:1039F0004C230020000C0E407D44080000000840CD
:103A000003C00900654808008D4808008548080083
:103A10007D48080000E100E095480800150F080007
:103A200008B500210648074B98470120064B9847E8
:103A30000320064B98470120054B984708BD00BF5F
:103A4000000008409D480800213808004D23080068
:103A5000250B0800034B1B6813B1034A12781A7038
:103A6000704700BF78110020761100200023024A21
:103A70001370024A136070477611002078110020FD
:103A80000B783BB1984205D011F8013F13B1834246
:103A9000FAD10346184670472DE9F84300282BD089
:103AA0001D4A10601C4B1D682C78002C30D08846B5
:103AB0001A4E194F41462046B04720B101353D60AE
:103AC0002C78002CF6D1164B1D602C78F4B12E46C4
:103AD000124FDFF84C9041462046B84728B90136CE
:103AE000C9F800603478002CF5D10E4B1C7000230F
:103AF00033702846BDE8F883094B1D68002DF8D0C7
:103B0000084B1B782B70044B1D60CBE72E46ECE76F
:103B1000034B1D602E46E8E77C110020813A080027
:103B200078110020761100200FB408B504496720F1
:103B3000044B98470020BDE8084004B0704700BF20
:103B40008CAE08008D3408000FB408B50449672016
:103B5000044B98470020BDE8084004B0704700BF00
:103B6000A8AE08008D3408000FB410B509496720CD
:103B7000094B98470023032208496820084CA047B6
:103B80000023032207496820A0470020BDE8104019
:103B900004B0704748AE08008D34080064AE0800D9
:103BA000791508007CAE08000FB410B509496720EC
:103BB000094B98470023032208496820084CA04776
:103BC0000023032207496820A0470020BDE81040D9
:103BD00004B0704748AE08008D34080064AE080099
:103BE000791508002CAE08000FB410B509496720FC
:103BF000094B98470023032208496820084CA04736
:103C00000023032207496820A0470020BDE8104098
:103C100004B0704748AE08008D34080064AE080058
:103C2000791508002CAE08000FB410B509496720BB
:103C3000094B98470023032208496820084CA047F5
:103C40000023032207496820A0470020BDE8104058
:103C500004B0704748AE08008D34080064AE080018
:103C6000791508003CAE08000FB470B582B0069913
:103C7000A1F16403072B00F2C280DFE813F0080013
:103C80005E0075009800C000AA00C00058005E49A0
:103C900067205E4B98475E4C01224FF480612046BE
:103CA0005C4EB0475C4B009350234FF480620A2176
:103CB00020465A4DA84701224FF400712046B047D4
:103CC000574B009350234FF400720A212046A84717
:103CD00001224FF480712046B047524B009350238D
:103CE0004FF480720A212046A8474F4B4FF480655D
:103CF000C3F880511D6020464C4B9847294620460A
:103D00004B4DA8474FF400712046A8474FF48071EF
:103D10002046A847082300930A23464A46496420C0
:103D2000464CA047464B00221A60464A5A60002083
:103D300002B0BDE8704004B070476620424B98471F
:103D400005216620414B98473D4A136801331360B3
:103D500052681B01D3581BB16920FFF785FFE6E7C6
:103D60000022374B1A60F7E701216620374B98474E
:103D7000334A1168536803EB0113DA6812B100206B
:103D80009047D4E79B68002BD1D02D4C22462A497E
:103D900066202A4B98472268636803EB02139B68EE
:103DA0006360002323606920FFF75EFFBFE7244ABA
:103DB0001168536803EB01135B6833B11E49672038
:103DC0001E4B98476920FFF74FFF6E20204B984706
:103DD000ADE7002302221F4968201F4CA047184A64
:103DE000136852681B01D55828461C4B98471C4B3A
:103DF00098470346022229466820A04797E71120EA
:103E0000184B984793E700BF74AD08008D34080045
:103E1000000C0E4079410800693E08007902080054
:103E2000893E0800A93E080000E100E003420800C6
:103E3000FF4108008C290020DC2900201D370800E4
:103E4000EC290020DCAD0800C93E08002111080063
:103E5000D119080084AD0800791508000D5208003A
:103E6000A9190800150F080010B582B000230093AF
:103E7000652203496620034CA04702B010BD00BF75
:103E8000693C08002138080010B582B00023009377
:103E9000662203491046034CA04702B010BD00BF84
:103EA000693C08002138080010B582B00023009357
:103EB000672203496620034CA04702B010BD00BF33
:103EC000693C0800213808000FB42DE9F04383B0A5
:103ED0000A99A1F16403072B00F29580DFE803F053
:103EE00004937F8E914F932C49496720494EB047E8
:103EF00049496720B047494D00242C704FF6FF71A7
:103F00002046474FB847814646496720B047DFF80B
:103F100038812A7844494046444B984741466720B7
:103F2000B047FF2068704946B8476880204603B014
:103F3000BDE8F04304B0704734203D4B98476620FD
:103F4000FFF7C2FF044668B93A496720314B9847EA
:103F50004FF4FA73009300236B2237496620374DE4
:103F6000A847E3E7364967202A4B98470024009486
:103F70002346662233491046304DA847D6E79DF8C0
:103F80002C00264C20704FF6FF71254DA8479DF858
:103F90003030637001461846A84760802A4D637828
:103FA00022782A492846214EB04729466720194BD6
:103FB0009847227826492846B047002303222549FE
:103FC0006820254CA0472846244B9847244B984707
:103FD0000346032229466820A0470024A6E70F4C89
:103FE000194D21782846114B984729466720094BDF
:103FF00098472478FF3C18BF012497E7074B1C78AB
:1040000094E7184C92E71320174B984700248DE74C
:104010008CAF08008D340800A0AF080024060020F3
:10402000DD0E0800B8AF0800C4AF0800C151080099
:104030005B420800D8AF0800C93E080021380800DC
:10404000ECAF08004D230800181A00200CB008003F
:1040500034B0080084AD0800791508000D5208003E
:10406000A919080025060020150F080010B51248F0
:10407000124B98473E20124B9847124CA0470028FD
:10408000FCD04FF08070104B9847104CA047002890
:10409000FCD00F4B98470F4A0F4B9A620F4CA0472A
:1040A0000028FCD010200E4B98470E4B9847024832
:1040B000024B984710BD00BF00D8B805B5000020DE
:1040C000F54308001D4408003D4408002D44080045
:1040D0005D440800013F0F2000040E406D440800BD
:1040E0004D430800154A080011B3026802F01F0290
:1040F0000A600268C2F342124A600268C2F30322F5
:104100008A6002680022CA600268C2F303420A6140
:104110000268C2F307524A610268C2F302728A61FE
:104120000268D20FCA6132B142680A620020704749
:104130004FF0FF307047002070474264B1F1805F5C
:1041400016D00BD849B1B1F1006F05D1036F016FE3
:104150000B4023EA0203036742607047B1F1405FFE
:10416000FBD0B1F1605FF8D0B1F1205FF4D17047BE
:10417000036F13430367EFE7416412F0010F14BFAD
:104180004166016612F00A0F14BF0162416212F02B
:10419000020F07D112F0080F18BFC0F88410416158
:1041A00001607047C0F88010F9E710B4019C4164C9
:1041B00044B9016643B1016542B9416301610160DF
:1041C00010BC70474166F5E74165F5E70163F5E727
:1041D00012F0100F10D0C0F8B01012F0200F14BF62
:1041E000C0F8D410C0F8D01012F0400F14BFC0F8BF
:1041F000C010C0F8C4107047C0F8B4107047016414
:104200007047C06C7047806C7047430903F500131A
:1042100003F206735B02DB6B00F01F0023FA00F071
:1042200000F001007047430903F5001303F2067321
:104230005B0200F01F00012202FA00F018637047D1
:10424000430903F5001303F206735B0200F01F003D
:10425000012202FA00F058637047430903F5001386
:1042600003F206735B02996B00F01F02012090407D
:10427000014214BF586318637047000070B582B0E4
:104280000D46430903F5001303F206735C0201F0C7
:10429000F043B3F1205F31D016D8B3F1006F1BD0DB
:1042A000B3F1805F16D100F01F0001268640324630
:1042B0004FF080512046224B984715F0010F14BF54
:1042C00066662666012017E0B3F1405F21D0B3F1A6
:1042D000605F1ED000200FE000F01F000126864026
:1042E00032464FF000612046154B984715F0010FFC
:1042F00014BF66662666012002B070BD00F01F0183
:1043000001262A4606FA01F120460E4B9847304610
:10431000F2E705F0605200F01F01012605EA0603EE
:104320000093C5F38003B2F1605F14BF0022012245
:1043300006FA01F12046044CA0473046DCE700BFF6
:104340003B41080079410800AB410800174A136B54
:1043500023F0700318431063936E13F0080F0AD113
:104360004FF4006311498A6E12F0080F03D1013B2C
:10437000F9D1012070470D4A136B23F0030343F07A
:1043800002031363936E13F0080F0AD14FF4006316
:1043900006498A6E12F0080F05D1013BF9D10120C0
:1043A0007047002070470020704700BF00040E4097
:1043B000012803D0054A064B1A607047044A9368E7
:1043C00043F0254343F480139360F3E7080000A50E
:1043D00010120E40054B5B6913F0800F1DBF044B9C
:1043E000986EC0F3C0100020704700BF10120E403E
:1043F00000040E40084A136A23F0030343F45C13DD
:1044000043F00103000280B203431362936E13F082
:10441000010FFBD0704700BF00040E40024B986EA6
:1044200000F00100704700BF00040E40024B986E80
:1044300000F48030704700BF00040E40064B1B6A3A
:1044400030B923F0807343F45C13034A136270475E
:1044500043F08073F7E700BF00040E404FF00052B6
:10446000014B9A62704700BF00040E40024B986EE9
:1044700000F00200704700BF00040E401D280ED857
:104480001F280ED8094B9A690123834093430AD011
:10449000012303FA00F0054B18610020704701204A
:1044A0007047002070470020704700BF00040E4096
:1044B000F0B48CB007460E4601AC114D0FCD0FC4C1
:1044C0000FCD0FC495E8070084E8070001AA002378
:1044D00052F8040BB6FBF0F0B0FBF7F0B0F5807FBC
:1044E00007D901330B2BF3D14FF6FF700CB0F0BCA2
:1044F00070470A2B94BF40EA03204FF6FF70F5E7A0
:1045000048B0080070B506460D460C6844B189688D
:1045100020460C4B984704464FF6FF7398420CD048
:10452000686840B1A968074B98474FF6FF739842F7
:1045300005D044EA004434600024204670BD04469F
:10454000FBE700BFB144080070B40A684B6803F091
:104550000F038C8A23430C8923438C7A43EA442338
:104560008C7D43EA0443CC7D43EA44430C7E43EA1A
:10457000844300EB4214C4F80032CB68C4F8043220
:104580000B69C4F80C328B7D3BB18C8B4B8B43EAAF
:10459000044300EB4214C4F81832856C4FF0011349
:1045A0009340DB431D40CC7F04FA02F68C7F94409D
:1045B00044EA06442C438464446C234091F821402F
:1045C00004FA02F591F82040944044EA054423435C
:1045D00043640123934091F822401CB3046A1C43B6
:1045E000046291F82440012C846E0CBF1C439C4350
:1045F000846691F82540012C846E0CBF44EA034385
:1046000024EA03438366D200C46EFF23934024EA66
:10461000030491F8233003FA02F22243C266002019
:1046200070BC7047046A24EA03040462D9E70123DA
:1046300003FA01F141607047012303FA01F181603F
:1046400070470162704730B485688468A54203D022
:1046500085688468AC42FBD161B1C4F3015000EBC2
:104660008005C4F3034000EB450014F4800F18BF2D
:104670000C30086042B1C4F3023101EB8101C4F394
:10468000032000EB4101116043B1C4F3021202EBBD
:10469000820204F00F0404EB42041C6030BC70473B
:1046A000F0B4446814F0010F05D00C293DD90C3941
:1046B0004FF4800700E000271D4CA4FB0356F608CA
:1046C00006EB8605A3EB450343EA0613A4FB02654C
:1046D000ED0843EA053305EB8505A2EB450543EA02
:1046E00005233B43A4FB0142D20843EA025302EBF9
:1046F0008202A1EB420143EA0141836913F0040FF6
:10470000FBD0036843F001030360836913F0010FDA
:10471000FBD00123C3618160036823F001030360C0
:10472000C06A00F00100F0BC70470027C4E700BF7A
:10473000CDCCCCCCF0B4049EC568C468A54203D0EF
:10474000C568C468AC42FBD199B1C4F3033000EB37
:104750008000C4F3032707EB4007C4F3021000EB0B
:10476000800504F00F0000EB4500642505FB007098
:10477000086042B1C4F3005081000844C4F303410F
:1047800001EB4001116043B1C4F3017202EB8202FC
:10479000C4F3036101EB42021A6016B1C4F3425440
:1047A0003460F0BC7047000070B42A4DA5FB03468E
:1047B000F608039C640544EA067406EB8606A3EB40
:1047C000460344EA0363A5FB0264E40843EA045396
:1047D00004EB8404A2EB440243EA02421E4BA3FB17
:1047E00001439B0942EA03121C4BA3FB01435B09F3
:1047F000A5FB0364E40804EB8404A3EB44031A431D
:10480000A5FB0143DB0803EB8304A1EB440142EA6F
:104810000122A5FB0315ED0805EB8505A3EB450576
:1048200042EA0532836913F0040FFBD0036843F0BA
:1048300002030360836913F0010FFBD00123C361FE
:10484000C260036823F002030360C06A00F0020044
:1048500070BC7047CDCCCCCCD34D62101F85EB51D2
:10486000C161704710B489014318022444504FF0CD
:10487000FF319962196A5A6010BC7047890105239B
:104880004350704700EB81114A61704700EB811182
:10489000CA61704700EB81114A62704700EB8111D9
:1048A000086A704710B4AC2303600B684A68B3FB16
:1048B000F2F31B095C1E4FF6FE7294420BD80362A2
:1048C0008B68436040F20223C0F82031502303601C
:1048D000002010BC70470120FBE781607047C16079
:1048E000704740697047406900F0010070474369B4
:1048F00013F0010F1DBF83690B700020012070476A
:10490000014B0360704700BF050000A57047000021
:104910000B4B1B682BB9EFF310833BB10022094B03
:104920001A70074A136801331360704772B6BFF3F9
:104930005F8F0022044B1A700122024B1A70F0E7BD
:10494000801100208411002028060020074B1A68DF
:10495000013A1A601B6843B9054B1B782BB1012241
:10496000044B1A70BFF35F8F62B67047801100204E
:104970008411002028060020FEE7000008B51C4B2B
:104980001C4A9A4210D01C4B194A9A420CD2013B45
:104990009B1A23F0030304331344164951F8040B04
:1049A00042F8040B9A42F9D1144B154A9A420AD2A2
:1049B000013B9B1A23F0030304331344002142F804
:1049C000041B9342FBD10F4B23F0604222F07F0285
:1049D0000D498A6003F16043B3F5404F03D28B6801
:1049E00043F000538B60094B9847094B9847FEE70B
:1049F0000000002024B30800E00F00201C2A002043
:104A0000E00F00200000080000ED00E0D550080095
:104A1000654B08003D4B1B6B03F00303032B0ED8C3
:104A2000DFE803F0021C3838394B5B6913F0800F64
:104A300014BF4FF400424FF4FA42364B1A60334B26
:104A40001B6B03F07003702B57D0304B1A6B31493E
:104A5000C2F302120B68D3400B6070472B4B1B6AEA
:104A600013F0807F03D02C4A2A4B1A60E7E72B4AC9
:104A7000284B1A60254B1B6A03F07003102B05D0DE
:104A8000202BDCD1244A234B1A60D8E7244A214B3F
:104A90001A60D4E71D4B1B6A13F0807F0CD01E4AAE
:104AA0001C4B1A60194B1B6B03F00303022B16D02F
:104AB0001C4A184B1A60C2E7184A164B1A60134B6F
:104AC0001B6A03F07003102B05D0202BEAD1124A89
:104AD000104B1A60E6E7124A0E4B1A60E2E70B4AE7
:104AE000916A926A0B48C1F30A41036801FB0333E0
:104AF000D2B2B3FBF2F30360A1E7064A13680A4996
:104B0000A1FB03135B081360704700BF00040E4055
:104B100010120E402C060020001BB70000093D00BB
:104B200000127A00001C4E0EABAAAAAA0A4B1B6800
:104B300053B1094B1B681A180849914208DB10460B
:104B4000054A106018467047054A034B1A60F0E7A3
:104B50004FF0FF30704700BF88110020FC3F082055
:104B60000040082000B583B072B6BFF35F8F104ECF
:104B7000002434700F48104B9847104B9847104B47
:104B8000984764200F4DA84764200F4B9847012396
:104B90003370BFF35F8F62B60094234664220B49E3
:104BA0006620A8476725074C2846A047FCE700BFBA
:104BB0002806002050120E40290408006D4008000D
:104BC0000D490800213808004D230800290108007C
:104BD00080F0004002E000BF81F0004142001FBFB2
:104BE0005FEA410392EA030F7FEA226C7FEA236CBB
:104BF0006AD04FEA1262D2EB1363C1BFD2184140B0
:104C000048404140B8BF5B42192B88BF704710F045
:104C1000004F40F4000020F07F4018BF404211F0E8
:104C2000004F41F4000121F07F4118BF494292EA50
:104C3000030F3FD0A2F1010241FA03FC10EB0C007C
:104C4000C3F1200301FA03F100F0004302D5494209
:104C500060EB4000B0F5000F13D3B0F1807F06D3B6
:104C600040084FEA310102F10102FE2A51D2B1F1AE
:104C7000004F40EBC25008BF20F0010040EA0300A3
:104C80007047490040EB000010F4000FA2F1010250
:104C9000EDD1B0FA80FCACF1080CB2EB0C0200FADA
:104CA0000CF0AABF00EBC25052421843BCBFD04028
:104CB0001843704792F0000F81F4000106BF80F4A2
:104CC00000000132013BB5E74FEA41037FEA226C65
:104CD00018BF7FEA236C21D092EA030F04D092F030
:104CE000000F08BF0846704790EA010F1CBF002064
:104CF000704712F07F4F04D1400028BF40F00040C1
:104D0000704712F100723CBF00F50000704700F0E0
:104D1000004343F0FE4040F4000070477FEA226207
:104D200016BF08467FEA23630146420206BF5FEAD8
:104D3000412390EA010F40F4800070474FF00003D8
:104D400004E000BF10F0004348BF40425FEA000C9F
:104D500008BF704743F0964301464FF000001CE047
:104D600050EA010208BF70474FF000030AE000BF9D
:104D700050EA010208BF704711F0004302D54042DB
:104D800061EB41015FEA010C02BF8446014600204D
:104D900043F0B64308BFA3F18053A3F50003BCFA68
:104DA0008CF2083AA3EBC25310DB01FA02FC634415
:104DB00000FA02FCC2F12002BCF1004F20FA02F21C
:104DC00043EB020008BF20F00100704702F120020F
:104DD00001FA02FCC2F1200250EA4C0021FA02F270
:104DE00043EB020008BF20EADC7070474FF0FF0C75
:104DF0001CEAD0521EBF1CEAD15392EA0C0F93EA70
:104E00000C0F6FD01A4480EA010C400218BF5FEA11
:104E100041211ED04FF0006343EA501043EA511184
:104E2000A0FB01310CF00040B1F5000F3EBF49007E
:104E300041EAD3715B0040EA010062F17F02FD2A82
:104E40001DD8B3F1004F40EBC25008BF20F0010065
:104E5000704790F0000F0CF0004C08BF49024CEA7C
:104E6000502040EA51207F3AC2BFD2F1FF0340EA0E
:104E7000C250704740F400004FF00003013A5DDC7F
:104E800012F1190FDCBF00F000407047C2F10002C0
:104E9000410021FA02F1C2F1200200FA02FC5FEAAD
:104EA000310040F1000053EA4C0308BF20EADC70F7
:104EB000704792F0000F00F0004C02BF400010F469
:104EC000000F013AF9D040EA0C0093F0000F01F016
:104ED000004C02BF490011F4000F013BF9D041EA38
:104EE0000C018FE70CEAD15392EA0C0F18BF93EA3A
:104EF0000C0F0AD030F0004C18BF31F0004CD8D164
:104F000080EA010000F00040704790F0000F17BFEA
:104F100090F0004F084691F0000F91F0004F14D030
:104F200092EA0C0F01D142020FD193EA0C0F03D188
:104F30004B0218BF084608D180EA010000F000408B
:104F400040F0FE4040F40000704740F0FE4040F466
:104F5000400070474FF0FF0C1CEAD0521EBF1CEA05
:104F6000D15392EA0C0F93EA0C0F69D0A2EB030223
:104F700080EA010C49024FEA402037D04FF08053BD
:104F800043EA111143EA10130CF000408B4238BF82
:104F90005B0042F17D024FF4000C8B4224BF5B1A90
:104FA00040EA0C00B3EB510F24BFA3EB510340EADE
:104FB0005C00B3EB910F24BFA3EB910340EA9C008C
:104FC000B3EBD10F24BFA3EBD10340EADC001B01FC
:104FD00018BF5FEA1C1CE0D1FD2A3FF650AF8B42A0
:104FE00040EBC25008BF20F0010070470CF0004CAD
:104FF0004CEA50207F32C2BFD2F1FF0340EAC250D8
:10500000704740F400004FF00003013A37E792F098
:10501000000F00F0004C02BF400010F4000F013AF6
:10502000F9D040EA0C0093F0000F01F0004C02BFF1
:10503000490011F4000F013BF9D041EA0C0195E75A
:105040000CEAD15392EA0C0F08D142027FF47DAFF3
:1050500093EA0C0F7FF470AF084676E793EA0C0FE3
:1050600004D14B023FF44CAF08466EE730F0004CE1
:1050700018BF31F0004CCAD130F000427FF45CAF71
:1050800031F000437FF43CAF5FE700BF42000ED237
:10509000B2F1FE4F0BD34FF09E03B3EB126209D473
:1050A0004FEA002343F0004323FA02F070474FF029
:1050B0000000704712F1610F01D1420202D14FF09E
:1050C000FF3070474FF00000704700BF0A220021F8
:1050D00000F098B970B50F4E0F4D761BB61018BF83
:1050E000002405D0013455F8043B9847A642F9D175
:1050F0000A4E0B4D06F000F9761BB61018BF0024BF
:1051000006D0013455F8043B9847A642F9D170BD4A
:1051100070BD00BF04B3080004B308000CB308005E
:1051200004B3080070B4860746D0541E002A41D04C
:10513000CAB2034602E014F1FF343BD303F8012B5B
:105140009D07F8D1032C2ED9CDB245EA05250F2CA9
:1051500045EA054519D9264603F11002103E0F2EE7
:1051600042F8105C42F80C5C42F8085C42F8045CBF
:1051700002F11002F2D8A4F1100222F00F0204F0A2
:105180000F041032032C13440DD91E462246043A54
:10519000032A46F8045BFAD8221F22F003020432E5
:1051A000134404F003042CB1C9B21C4403F8011BDE
:1051B0009C42FBD170BC704714460346C2E700BF57
:1051C0000EB40146F0B56FF000454FF402774FF68C
:1051D000FF769CB021AC54F8042B0B4B0291069146
:1051E000186802A923460194ADF814700495079538
:1051F000ADF8166000F01CF90022029B1A701CB07A
:10520000BDE8F04003B070473006002020F00301F5
:1052100010F00300C0F1000051F8043B00F1040C51
:105220004FEACC0C6FF000021CBF22FA0CF21343C1
:105230004FF0010C4CEA0C2C4CEA0C4CA3EB0C028A
:1052400022EA030212EACC1204BF51F8043B0430F4
:10525000F4D0C2F1000102EA0102B2FA82F2C2F114
:105260001F0200EBD2007047024A012312685C3231
:1052700000F002B830060020F0B418B307460D461F
:1052800017F8016B01E0A64217D015F8014B002C6E
:10529000F9D1E6B10C4617F8015B01E0002BF9D01B
:1052A00014F8013B9D42F9D155B1002307F8013CA8
:1052B000064617603046F0BC704753B13846DDE70C
:1052C0002F46F5E710680028D8D10646F2E71660A9
:1052D000F0E7176006460370ECE700BF2DE9F84FD2
:1052E000DDF828900F46804616461D468A4600E0A7
:1052F000A2465446484614F801BB02F0F9FA584455
:10530000427812F00802F3D1BBF12D0F4FD0BBF160
:105310002B0F04BF94F800B00AF102041DB1102D48
:1053200056D0AC4604E0BBF1300F60D00A25AC4645
:10533000002A0CBF6FF000494FF000490021B9FB73
:10534000FCFE08460CFB1E9A05E029D001210CFB4F
:10535000003014F801BBABF13003092B05D9ABF1D8
:105360004103192B0BD8ABF137039D420FDDB1F18F
:10537000FF3FEED08645E8D24FF0FF31E9E7ABF1D1
:105380006103192B03D8ABF157039D42EFDC4B1C93
:1053900013D002B1404246B1C1B93760BDE8F88FC1
:1053A0009A45D3DA4FF0FF31D3E7BDE8F88F94F890
:1053B00000B001220AF10204B0E72223C8F800304D
:1053C000EEB1671E48463760BDE8F88F8146F8E7C2
:1053D000BBF1300FA5D1237803F0DF03582BA0D108
:1053E0004FF0100C94F801B065460234A0E7237822
:1053F00003F0DF03582BF3D00825AC4698E7484666
:10540000BDE8F88F084B70B51D68084E6C6B82B014
:10541000002C08BF3446134600940A46014628462D
:10542000FFF75CFF02B070BD30060020640A002068
:105430002DE9F04FC3B00C460B9192460F930C90A0
:1054400002F05AFA036818461A93FFF7DFFEA389A1
:105450001990190603D52369002B01F0358000232C
:105460000DF1C809C84615931393149318931B9311
:1054700009931693179327932693CDF894909AF84F
:1054800000305446EBB1252B02D11AE0252B03D076
:1054900014F8013F002BF9D1A4EB0A058DB1269B2E
:1054A000279A01332A44072BC8F800A0C8F80450F3
:1054B0002792269300F38A8008F10808099B2B4461
:1054C00009932378002B00F0898000234FF0FF30F0
:1054D0001A468DF8773019460D939B46637804F190
:1054E000010A0A900AF1010AA3F12000582800F2EB
:1054F000B783DFE810F04C03B503B5035403B503DD
:10550000B503B503B503B503B50359005903B50396
:1055100066001402B5032F02A503A503A503A50386
:10552000A503A503A503A503A503B503B503B5030B
:10553000B503B503B503B503B503B503B5038B02D6
:10554000D302B503D302B503B503B503B5031B03FB
:10555000B503B5032003B503B503B503B503B50320
:105560003402B503B5034B02B503B503B503B50368
:10557000B503B503B503B503B503B50376029E03C2
:10558000D302D302D30263039E03B503B5036803BA
:10559000B5037503DD018C035E03B503F201B503AA
:1055A0008700B503B50332030F9C236818460D939B
:1055B0002346002803F104030F9304DA0D9B5B429A
:1055C0000D934BF0040B9AF800308BE725AA0B994A
:1055D0000C9803F031F840B9C8466FE7279B23B118
:1055E0000C9825AA0B9903F027F80B9B9B8913F0C5
:1055F000400F099B18BF4FF0FF330993099843B040
:10560000BDE8F08F1BF0200F119340F0AF810F9A8F
:105610001BF0100F134640F09A851BF0400F00F06E
:10562000968500250123148804320F920022174624
:105630008DF877200A994A1C00F010822BF0800226
:10564000079254EA050240F00F82002940F03184AD
:10565000002B40F039851BF001030E9300F06286A9
:10566000302342AE06F8413D0A9B0E9A9342B8BFE2
:10567000134608930023129317B1089B0133089334
:10568000079B13F00203109302D0089B0233089388
:10569000079B13F0840540F010830D9B089AA3EB41
:1056A000020BBBF1000F40F30883BBF1100F40F376
:1056B000B287279C43462146A8461027269A0C9C71
:1056C0000B9D06E0ABF1100BBBF1100F03F10803CB
:1056D00018DD0132AB481031072A2791269283E862
:1056E0008100EFDD25AA2946204602F0A5FF00280B
:1056F0007FF47BAFABF1100BBBF1100F4B4627993A
:10570000269AE6DC45460C46984601329D4B5C44A1
:10571000072A2794269288E8080800F3C3829DF898
:10572000777008F1080887B10121269B0C440B44CF
:105730000DF17702072B27942693C8F80410C8F8B8
:10574000002000F3CD8308F10808109B7BB10221F3
:10575000269B0C4401331EAA072B27942693C8F8D6
:105760000410C8F8002000F3118408F10808802D07
:1057700000F004830A9B0E9A9F1A002F37DD102F2A
:1057800040F37986804D42462146B0464FF0100BDB
:105790002E46269B0C9C0B9D04E0103F102F02F11F
:1057A000080215DD01331031072B2791269382E87B
:1057B0004008F2DD25AA2946204602F03DFF0028D8
:1057C0007FF413AF103F102F4A462799269BE9DC40
:1057D00035460C464646904601333C44072B2794F9
:1057E000269388E8A00000F3708308F10808079B5F
:1057F000DF0500F16482269B0E9901330C44072BD0
:105800002794C8F80060C8F80410269300F3B38307
:1058100008F10808079B5B073BD50D9B089A9D1A6A
:10582000002D36DD102D40F321871026269B0C9F7E
:10583000DDF82CB004E0103D102D08F1080816DD4D
:105840000133504A1034072B2794269388E84400EC
:10585000F1DD25AA5946384602F0EEFE00287FF415
:10586000C4AE103D102DC846279C269BE8DC0133B2
:10587000444A2C44072B2794269388E8240008DD0B
:1058800025AA0B990C9802F0D7FE00287FF4ADAE44
:10589000279C099B0D9A08998A42ACBF9B185B18FC
:1058A0000993002C40F0FB820023C8462693E6E5CE
:1058B00011931BF0200340F045811BF0100240F0D3
:1058C00066841BF0400300F062840F9913460A4679
:1058D00004320C8800250F92A8E600250F9A119338
:1058E00016688DF87750141D002E00F0CD860A9AA8
:1058F000531C00F01B862946304602F0C7FA0028E8
:1059000000F00D87831B0A950E930F94CDF81CB001
:1059100023EAE373089312959DF87770ACE69AF842
:1059200000300AF101042A2B00F0C287A3F13000F5
:105930000928A24600F2188700231C461AF8013BEA
:1059400004EB840400EB4404A3F130000928F5D9EA
:105950000A94C9E54BF0800B9AF80030C2E54BF091
:10596000100B1BF0200F11933FF451AE0F9C073426
:1059700024F0070303F10802D3E900450F92012345
:1059800054E600BFBCB00800CCB008001193002A58
:1059900040F0AD87BE4B1BF0200F189340F0E7801E
:1059A0000F9A1BF0100F134640F0D8831BF0400FE6
:1059B00000F0D4830025043314880F931BF0010FEB
:1059C00000F0E38054EA050300F0DF8030239DF807
:1059D00044208DF878308DF879204BF0020B0223AB
:1059E00024E601221193002311460F9808920268C1
:1059F0001F468DF877300A931293031DCDF81CB023
:105A00000E918DF8A0200F9328AE39E61193002A4D
:105A100040F084874BF0100B1BF0200F40F0758492
:105A20000F9A1BF0100F134640F09D831BF0400FA0
:105A300000F09983B2F900400433E5170F93224632
:105A40002B46002A73F10003C0F298830A999DF84F
:105A500077704A1C4FF001037FF4F0AD54EA050261
:105A600000F02982CDF81CB0012B00F00E83022B30
:105A700040F09C824E461898230943EA0573290991
:105A800004F00F020D461C46835C06F8013D54EA03
:105A90000503F1D1A9EB06030E93E5E51193002A66
:105AA00040F038870F9C1BF0080F04F1070400F04A
:105AB000CF8424F0070303F108020F921A685B6891
:105AC00015921493149B159D23F0004428462146FB
:105AD0004FF0FF326F4B03F06DFE002840F034842E
