S00F0000537461727455702E7372656342
S214080000004008203D1B0800391B0800391B080063
S214080010391B0800391B0800391B080000000000BF
S214080020000000000000000000000000391B080067
S214080030391B080000000000391B0800391B08009F
S214080040391B0800391B08009D290800391B0800C1
S214080050391B0800391B0800391B0800391B080023
S21408006069410800391B08004D1208006112080093
S214080070391B08001D060800391B0800391B080034
S214080080391B0800391B0800391B0800391B0800F3
S214080090391B0800391B0800E5430800391B08000F
S2140800A0391B0800391B0800391B0800391B0800D3
S2140800B0391B0800391B0800391B080010B5054C09
S2140800C0237833B9044B13B10448AFF300800123F7
S2140800D0237010BDD80F0020000000008CAA08006E
S2140800E00C4B43B10C4810B50C49AFF300800C48D4
S2140800F0036823B910BD0A48036833B97047094B2B
S214080100002BF7D0BDE810401847064B002BF5D05B
S214080110184700BF000000008CAA0800DC0F00206B
S2140801208CAA0800000000000FB438B504996429AA
S21408013005D0662959D010202E4B984755E04FF029
S214080140405120202C4CA0474FF040512120A0477A
S2140801504FF040512220A0474FF040512320A0479F
S2140801604FF040512420A0470A20244DA8470B20D2
S214080170A847234D29460E20A04729460F20A0470A
S21408018029461020A04729461120A04729461820AE
S214080190A04729461920A04729461A20A0472946DD
S2140801A01B20A04729461C20A04729461D20A047FB
S2140801B029463620A04729463720A0472946372013
S2140801C0A04710496720104B9847012302220F4981
S2140801D068200F4CA04764200E4B984764200E4BAF
S2140801E09847002164200D4B98470020BDE838400A
S2140801F004B070478124080031140800311608003E
S21408020001000028C8940800553F08000895080013
S214080210CD290800390F08008D03080015070800C7
S21408022011B3026802F01F020A600268C2F34212A3
S2140802304A600268C2F303228A6002680022CA6023
S2140802400268C2F303420A610268C2F307524A61AF
S2140802500268C2F302728A610268D20FCA6132B1BA
S21408026042680A62002070474FF0FF30704700204F
S214080270704710B40B01934214D9C9004B0803EB1E
S214080280C202B2FBF1F2D3085C1E4FF6FE718C4236
S21408029001D9012017E0416841F4002141600CE0D3
S2140802A0012010E0590801EBC202B2FBF3F2D308B2
S2140802B05C1E4FF6FE718C42F2D8120402F4E0225D
S2140802C01A430262002010BC704700000A4BC0F8B0
S2140802D0E430002343604362836288230360242358
S2140802E003604FF4807303604FF4002303604FF4F9
S2140802F000330360704700BF0041535570B505468C
S2140803000C4616460F4B984700220F4B1A60A4B1AE
S2140803103246216828460D4B9847024678B96368E6
S214080320A1680B4321690B43E1680B4306490B6040
S21408033069680B436B60104670BD0122FBE701221B
S214080340F9E700BFCD020800F40F0020730208008A
S21408035010B50446064B984740B90246636823F032
S2140803600F0343F001036360104610BD0122FBE74C
S214080370FD0208004023036070471023036070479F
S21408038081607047C1607047406970470FB4F0B528
S21408039083B00899642916D00ED801297BD0022983
S2140803A040F0FB80814B824A1A605A604FF6FF7213
S2140803B01A81002098823CE066293FD0672940F0E1
S2140803C0EC807B4835E0794D0127AF740220FFF7B3
S2140803D0DDFF00242C820D20764B9847764D774A11
S2140803E077492846774B98474FF000611220764E9B
S2140803F0B0474FF000611320B0474FF00061272048
S214080400B0474FF0FF312846704B98473946284684
S2140804106F4B98474FF400526E4B1A6028466E4B47
S214080420984728466D4B98476D4967206D4B984707
S214080430204603B0BDE8F04004B070470A9E6A4CF8
S21408044032466A4920466A4B984721466720654CDB
S214080450A047684F39466720A047099D2A46544951
S2140804606920A04739466720A0470220FFF78EFF7D
S2140804703EB14E4B1D8303229A759A7440F6B832E5
S2140804801A824B4A2A44494B1A6002214A48504B62
S21408049098470020CDE7454B1B8A002B00F082804A
S2140804A0013B9BB2414A1382002B7DD1937C042BDF
S2140804B00BD0072B09D0032B37D001223B4B9A745D
S2140804C00220FFF763FF0020B3E7384BDA899B89E1
S2140804D09A4207D00122354B9A740220FFF756FF3E
S2140804E00020A6E7444967203E4CA0472F4DAA8A1D
S2140804F02F496920A0473C4EAB89EA893F493046D8
S2140805003B4DA84731466720A0473D496720A0478E
S21408051000240094234601223A4966203A4DA8470B
S2140805200220FFF733FF204683E7204A937D013BEE
S214080530DBB2937593B1354967202A4B98471B4B16
S2140805401B4A5A60198B0A441A6040F6B8321A8257
S214080550022119481E4B984700206AE72C49672055
S214080560204DA847124C204E0323227829493046AE
S2140805701F4FB84731466720A847237800240094C1
S214080580022220496620204DA8470122074B9A746C
S2140805900220FFF7FBFE20464BE720201E4B98471D
S2140805A0002046E7002044E7002042E7BC11002070
S2140805B0F80F0020311608000000094000D8B805DA
S2140805C08C960800510308003114080085030800BB
S2140805D08103080000E100E0750308007B030800BB
S2140805E01C950800553F0800EC12002030950800BE
S2140805F0494B08004895080088950800D4950800D7
S214080600EC95080015070800E5410800389608002C
S21408061048960800709608008124080038B5354CBE
S2140806202046354B98470546236913F0010F35D009
S21408063010F0010F32D0314B9B7C032B0AD0042BD1
S2140806400BD02C4B9B6902202D4B984701222B4B35
S2140806509A7423E00422294B9A74284C4FF4487362
S21408066023822368234A92691A706389A3812189A1
S214080670618123681878234B98472081E3891B02F9
S2140806809BB2E381226812F8011B0B43E381A38A1D
S2140806900133A38222601C4B9A4216D2154B1B6963
S2140806A013F0020F10D015F0020F0DD0134A53683E
S2140806B01268934216D05A1C10494A6019780D4B96
S2140806C0D961114B9A4205D238BD002123200F4B21
S2140806D09847E3E7022107480D4B98470220084B46
S2140806E0984738BD02210348094B98470220044B17
S2140806F09847E9E70000094089030800BC11002074
S2140807008D03080049240800FA10002081240800F8
S214080710850308000FB42DE9F04F83B00C9905291E
S21408072000F0A8824CD964295FD056D9662979D0BA
S21408073067294ED16720A94FB84705469DF834600B
S2140807400670A74C66734FF6FF713046DFF8CC820A
S214080750C047208105206870A0722189C047208183
S2140807600E9B1802C3F3072300F47F4018436880E3
S214080770E0812189DFF88482C04720810F9B180218
S214080780C3F3072300F47F401843A88020822189FA
S214080790C04783B22381000220F07F4020F0FF008C
S2140807A040EA1320E880237843F0020323700821E8
S2140807B06182B6F17F0218BF01226620B8470EE0B4
S2140807C0022900F06382042900F02E82012900F035
S2140807D0CC802120834B984701E00629F9D10020D8
S2140807E003B0BDE8F04F04B070477D4900230B60A6
S2140807F00D9AD3B20B7343B901220A70062303225B
S21408080079496820794CA047E9E7794CD2B279490A
S2140808102046794B984703231A4621466820734C8E
S214080820A047DCE767206D4B984780460C90064645
S2140808309DF834A080F800A04FF6FF715046DFF808
S214080840DCB1D847664F38810E9CE0B288F80100C4
S2140808503989D84738812002C4F3072400F47F403A
S2140808602043A8F802003989644B98473881DDF898
S2140808703C901FFA89F425464FEA092020F07F406D
S21408088020F0FF0040EA142080B2A8F80400398956
S2140808905A4B984738814FEA4900C0B288F8060094
S2140808A03989D847388100230E93C4B11F46DFF82C
S2140808B03091DFF848B1109B33F81730180240EA39
S2140808C0132080B206EB4703A3F80700B9F8081010
S2140808D0D847A9F8080001370E97BD42EBD1404B20
S2140808E019890A0208EB440342EA1122A3F80720F2
S2140808F0BAF17F0F3A4A137814BF43F0020323F085
S21408090002031370364B1B7813F0020F0BD16100ED
S214080910093189B2324B59821A78C2F340026620EE
S2140809202E4B98475BE7DFF8B890314D99F80C30B6
S21408093098F80020324928462F4FB847294667209E
S214080940304EB04798F801202F492846B847294620
S2140809506720B04799F80020C2F340022B49284682
S214080960B84729466720B047D1E71D4B1B7813F0D8
S214080970010F55D026496720224DA847184C2278E3
S2140809801B4EC2F34002234930461B4B984731465C
S2140809906720A847237813F0020F3FF420AF67209C
S2140809A00E4B984704460C90417805290CD11A49F5
S2140809B06720A8472378162B09D101231A46202139
S2140809C06720FFF7A7FE02E01220064B9847044A66
S2140809D0137823F00203137001E700BF8D030800A5
S2140809E0D812002081240800A4960800CD29080003
S2140809F0EC120020AC960800494B08005D2408005D
S214080A00BC960800553F0800E0960800F0960800D7
S214080A100497080014970800289708004924080037
S214080A206720A14B984704460C90064602789F4BD1
S214080A301B7B9A4201D07F2A38D19D4D9D49284676
S214080A40DFF87C82C047294667209B4FB847627804
S214080A509A492846C04729466720B8476378013B25
S214080A600F2B00F2D88001A252F823F0D30B08000F
S214080A70170C0800DF070800170C0800830B08008F
S214080A80170C0800170C0800170C0800170C0800AD
S214080A90170C0800170C0800170C0800170C08009D
S214080AA0170C0800170C0800C10A0800804C81497A
S214080AB02046834DA847214667207F4B98478EE6F9
S214080AC07288130243EA12231BB2B3F5805F4FD134
S214080AD0764BDB8993423BD07A4A936913F0040F2E
S214080AE0FBD0784A136843F003031360936913F046
S214080AF0010FFBD0734A0123D3610C9BB3F80700A0
S214080B00010241EA1021A3F80710B3F80900010210
S214080B1041EA1021A3F80910B3F80B00010241EAD4
S214080B201021A3F80B10B3F80D00010241EA1021BA
S214080B30A3F80D10D3F80710634B19600C9BD3F875
S214080B400B10624B1960136823F00303136046E624
S214080B50B1881144554B1B8A1A449142BCDB0023CA
S214080B600093022304225A4966205A4CA04736E6C8
S214080B70002300930223042255496620554CA047BB
S214080B802DE62020544FB8472120B8477288B088F1
S214080B90130243EA12236278010241EA102189B25D
S214080BA000919BB24D494248454FB84729466720B1
S214080BB0414B98477188B288130243EA12230A0207
S214080BC042EA11229BB292B261780520FFF7A2FD95
S214080BD005E6B6F80720130243EA1223A4F80730FE
S214080BE020203D4CA0472120A047B6F80720130236
S214080BF043EA12239BB23A492D48314CA04729466E
S214080C0067202D4B9847002300930422304966201E
S214080C10304CA047E3E500230093012304222C4927
S214080C2066202C4CA047DAE567201F4FB8470446D5
S214080C304FF6FF7100782B4EB0471C4D288163781D
S214080C4081B243F08000B04728819DF83400A07038
S214080C502989B04783B22B81000220F07F4020F01C
S214080C60FF0040EA1320A4F80300002205216620AE
S214080C70B847B4E51C4967200F4B984708210B4B2B
S214080C80598200226620084B9847A8E5174967202E
S214080C90094CA047064D0D9A15492846084B984713
S214080CA029466720A0479AE58D030800D812002039
S214080CB0EC120020BC960800553F0800E096080095
S214080CC0494B080060120E4068120E406C120E4027
S214080CD015070800E54108001114080048970800A1
S214080CE090970800492408009C970800BC970800BD
S214080CF0E89708000FB410B50299A1F16403042B15
S214080D0073D8DFE803F00372133F6500039B059A68
S214080D101A81049A5A601A60069A9A724AF6CD326E
S214080D209A810020BDE8104004B07047039CA28951
S214080D304AF6CD339A4203D0662133202D4B984786
S214080D402389A17A626801FB032322689A4212D09B
S214080D5000230293A37A9BB1049A013A002312F85F
S214080D60010F2168C8540133A17A9942F7D823683D
S214080D7019442160D5E7662134201E4B9847E7E7DB
S214080D800021F4E7039CA2894AF6CD339A4203D0A1
S214080D9067213320174B9847226863689A4212D017
S214080DA0A27A23689B1A236000230293002AB8D0ED
S214080DB0049A013A2168C95C02F8011F0133A17A36
S214080DC09942F7D8ADE7672135200A4B9847E7E7F9
S214080DD0039CA2894AF6CD339A4203D06821332071
S214080DE0044B9847636823609BE71F20014B98478E
S214080DF097E700BF812408000FB408B504496720A8
S214080E00044B98470020BDE8084004B0704700BF70
S214080E1010990800553F08000FB408B50449672024
S214080E20044B98470020BDE8084004B0704700BF50
S214080E302C990800553F08000FB410B509496720DB
S214080E40094B98470023032208496820084CA04706
S214080E500023032207496820A0470020BDE8104069
S214080E6004B07047CC980800553F0800E89808007A
S214080E70CD290800009908000FB410B50949672065
S214080E80094B98470023032208496820084CA047C6
S214080E900023032207496820A0470020BDE8104029
S214080EA004B07047CC980800553F0800E89808003A
S214080EB0CD290800B09808000FB410B50949672076
S214080EC0094B98470023032208496820084CA04786
S214080ED00023032207496820A0470020BDE81040E9
S214080EE004B07047CC980800553F0800E8980800FA
S214080EF0CD290800B09808000FB410B50949672036
S214080F00094B98470023032208496820084CA04745
S214080F100023032207496820A0470020BDE81040A8
S214080F2004B07047CC980800553F0800E8980800B9
S214080F30CD290800C09808000FB4F0B583B008990A
S214080F40A1F16403072B00F2C280DFE813F0080063
S214080F505A0070009500C000AA00C00054005E4900
S214080F6067205E4B98475E4C01224FF4806120460E
S214080F705C4FB8475C4B009350234FF480620A21BD
S214080F8020465A4EB0474FF480612046584DA84731
S214080F9001224FF400712046B847564B0093502361
S214080FA04FF400720A212046B0474FF400712046DD
S214080FB0A84701224FF480712046B8474E4B00934D
S214080FC050234FF480720A212046B0474FF48071B0
S214080FD02046A8474FF48062484B1A6008230093BF
S214080FE00A23474A47496420474CA047474B0022F4
S214080FF01A60474A5A60002003B0BDE8F04004B0C3
S214081000704701231A4618216720424CA0473F4ADA
S21408101013680133136052681B01D3581BB169204B
S214081020FFF78AFFE7E70022384B1A60F7E7012345
S2140810301A4620216720374CA047344A116853685F
S21408104003EB0113DA6812B100209047D3E79B68D8
S214081050002BD0D02D4C22462A4966202A4B98478A
S2140810602268636803EB02139B68636000232360AF
S2140810706920FFF761FFBEE7244A1168536803EB4F
S21408108001135B6833B11F4967201F4B98476920D7
S214081090FFF752FF01231A46162167201D4CA0476A
S2140810A0A9E7002302221C4968201C4CA047174ABF
S2140810B0136852681B01D5582846194B9847194B90
S2140810C098470346022229466820A04793E711203E
S2140810D0154B98478FE700BFF8970800553F08005C
S2140810E0000C0E402F1308002D110800DD11080013
S2140810F0B51308004D1108006D11080000E100E066
S214081100EC1400203C150020F50C08004C150020B7
S214081110609808001507080008980800CD290800F8
S214081120954B0800FD2D08008124080010B582B0F4
S21408113000230093652203496620034CA04702B0AB
S21408114010BD00BF390F0800E541080010B582B091
S21408115000230093662203491046034CA04702B0BA
S21408116010BD00BF390F0800E541080010B582B071
S21408117000230093672203496620034CA04702B069
S21408118010BD00BF390F0800E54108002DE9F04101
S214081190044688460E4B9847054620460D4B98470A
S2140811A0054013D00C4C04F1600603E0B4420DD0A1
S2140811B010345DB120684045F8D161682942F5D001
S2140811C0E3689847636825EA0305EFE7BDE8F0811A
S2140811D0B9130800BD130800FC100020F8B5184C19
S2140811E02668062E29D84FF0000C6446154F04E0F2
S2140811F00134E4B2A446A64209D3A64625017D5981
S2140812008D42F5D107EB04156D689542F0D10D4D6A
S2140812104FEA0E1E05EB0E0445F80E106260A3603A
S2140812200699E1600136664504BF05490E60114619
S2140812301A46054B98470020F8BD0120F8BD00BFA8
S2140812406C110020FC1000208713080008B50A213E
S2140812500148024B984708BD000C0E408D11080047
S21408126008B50B210148024B984708BD000E0E40F2
S2140812708D11080010B51248124B98473E20124BA5
S2140812809847124CA0470028FCD04FF08070104BAF
S2140812909847104CA0470028FCD00F4B98470F4A99
S2140812A00F4B9A620F4CA0470028FCD010200E4B1C
S2140812B098470E4B98470248024B984710BD00BF08
S2140812C000D8B805B5000020A9150800D1150800F3
S2140812D0F1150800E115080011160800013F0F2057
S2140812E000040E402116080001150800D51B08004A
S2140812F04264B1F1805F16D00BD849B1B1F1006FE6
S21408130005D1036F016F0B4023EA020303674260AF
S2140813107047B1F1405FFBD0B1F1605FF8D0B1F132
S214081320205FF4D17047036F13430367EFE7416408
S21408133012F0010F14BF4166016612F00A0F14BFBF
S2140813400162416212F0020F07D112F0080F18BFAF
S214081350C0F88410416101607047C0F88010F9E752
S21408136010B4019C416444B9016643B1016542B9B1
S21408137041630161016010BC70474166F5E741654D
S214081380F5E70163F5E712F0100F10D0C0F8B010BB
S21408139012F0200F14BFC0F8D410C0F8D01012F006
S2140813A0400F14BFC0F8C010C0F8C4107047C0F88B
S2140813B0B410704701647047C06C7047806C704703
S2140813C0430903F5001303F206735B02DB6B00F0B8
S2140813D01F0023FA00F000F001007047430903F5E8
S2140813E0001303F206735B0200F01F00012202FAE4
S2140813F000F018637047430903F5001303F20673F9
S2140814005B0200F01F00012202FA00F058637047E2
S214081410430903F5001303F206735B02996B00F0A9
S2140814201F0201209040014214BF5863186370479A
S21408143070B582B00D46430903F5001303F2067330
S2140814405C0201F0F043B3F1205F31D016D8B3F157
S214081450006F1BD0B3F1805F16D100F01F00012685
S214081460864032464FF080512046224B984715F06A
S214081470010F14BF66662666012017E0B3F1405FC9
S21408148021D0B3F1605F1ED000200FE000F01F00EF
S2140814900126864032464FF000612046154B984795
S2140814A015F0010F14BF66662666012002B070BDEF
S2140814B000F01F0101262A4606FA01F120460E4BC7
S2140814C098473046F2E705F0605200F01F01012603
S2140814D005EA06030093C5F38003B2F1605F14BF04
S2140814E00022012206FA01F12046044CA0473046A5
S2140814F0DCE700BFF11208002F130800611308008C
S214081500174A136B23F0700318431063936E13F097
S214081510080F0AD14FF4006311498A6E12F0080FBB
S21408152003D1013BF9D1012070470D4A136B23F014
S214081530030343F002031363936E13F0080F0AD1F4
S2140815404FF4006306498A6E12F0080F05D1013B76
S214081550F9D101207047002070470020704700BF6F
S21408156000040E40012803D0054A064B1A6070474F
S214081570044A936843F0254343F480139360F3E7E3
S214081580080000A510120E40054B5B6913F0800F8B
S2140815901DBF044B986EC0F3C0100020704700BFF4
S2140815A010120E4000040E40084A136A23F0030384
S2140815B043F45C1343F00103000280B20343136252
S2140815C0936E13F0010FFBD0704700BF00040E4067
S2140815D0024B986E00F00100704700BF00040E40F2
S2140815E0024B986E00F48030704700BF00040E402F
S2140815F0064B1B6A30B923F0807343F45C13034A26
S2140816001362704743F08073F7E700BF00040E408C
S2140816104FF00052014B9A62704700BF00040E401C
S214081620024B986E00F00200704700BF00040E40A0
S2140816301D280ED81F280ED8094B9A690123834007
S21408164093430AD0012303FA00F0054B18610020E3
S214081650704701207047002070470020704700BF81
S21408166000040E40704700000B4B1B682BB9EFF3C5
S21408167010833BB10022094B1A70074A13680133DE
S2140816801360704772B6BFF35F8F0022044B1A7060
S2140816900122024B1A70F0E7701100207411002026
S2140816A024010020074B1A68013A1A601B6843B9E0
S2140816B0054B1B782BB10122044B1A70BFF35F8FC2
S2140816C062B67047701100207411002024010020B3
S2140816D0F0B48CB007460E4601AC114D0FCD0FC4C2
S2140816E00FCD0FC495E8070084E8070001AA002379
S2140816F052F8040BB6FBF0F0B0FBF7F0B0F5807FBD
S21408170007D901330B2BF3D14FF6FF700CB0F0BCA2
S21408171070470A2B94BF40EA03204FF6FF70F5E7A0
S214081720109A080070B506460D460C6844B18968DC
S21408173020460C4B984704464FF6FF7398420CD049
S214081740686840B1A968074B98474FF6FF739842F8
S21408175005D044EA004434600024204670BD0446A0
S214081760FBE700BFD116080070B40A684B6803F0A0
S2140817700F038C8A23430C8923438C7A43EA442339
S2140817808C7D43EA0443CC7D43EA44430C7E43EA1B
S214081790844300EB4214C4F80032CB68C4F8043221
S2140817A00B69C4F80C328B7D3BB18C8B4B8B43EAB0
S2140817B0044300EB4214C4F81832856C4FF001134A
S2140817C09340DB431D40CC7F04FA02F68C7F94409E
S2140817D044EA06442C438464446C234091F8214030
S2140817E004FA02F591F82040944044EA054423435D
S2140817F043640123934091F822401CB3046A1C43B7
S214081800046291F82440012C846E0CBF1C439C4350
S214081810846691F82540012C846E0CBF44EA034385
S21408182024EA03438366D200C46EFF23934024EA67
S214081830030491F8233003FA02F22243C26600201A
S21408184070BC7047046A24EA03040462D9E70123DB
S21408185003FA01F141607047012303FA01F1816040
S21408186070470000014B0360704700BF050000A5E5
S2140818700162704730B485688468A54203D08568DD
S2140818808468AC42FBD161B1C4F3015000EB80051B
S214081890C4F3034000EB450014F4800F18BF0C3067
S2140818A0086042B1C4F3023101EB8101C4F303209E
S2140818B000EB4101116043B1C4F3021202EB82024D
S2140818C004F00F0404EB42041C6030BC70470000B0
S2140818D0F0B4446814F0010F05D00C293DD90C3932
S2140818E04FF4800700E000271D4CA4FB0356F608BB
S2140818F006EB8605A3EB450343EA0613A4FB02653D
S214081900ED0843EA053305EB8505A2EB450543EAF2
S21408191005233B43A4FB0142D20843EA025302EBE9
S2140819208202A1EB420143EA0141836913F0040FE6
S214081930FBD0036843F001030360836913F0010FCB
S214081940FBD00123C3618160036823F001030360B1
S214081950C06A00F00100F0BC70470027C4E700BF6B
S214081960CDCCCCCCF0B4049EC568C468A54203D0E0
S214081970C568C468AC42FBD199B1C4F3033000EB28
S2140819808000C4F3032707EB4007C4F3021000EBFC
S214081990800504F00F0000EB4500642505FB007089
S2140819A0086042B1C4F3005081000844C4F3034100
S2140819B001EB4001116043B1C4F3017202EB8202ED
S2140819C0C4F3036101EB42021A6016B1C4F3425431
S2140819D03460F0BC7047000070B42A4DA5FB03467F
S2140819E0F608039C640544EA067406EB8606A3EB31
S2140819F0460344EA0363A5FB0264E40843EA045387
S214081A0004EB8404A2EB440243EA02421E4BA3FB07
S214081A1001439B0942EA03121C4BA3FB01435B09E3
S214081A20A5FB0364E40804EB8404A3EB44031A430D
S214081A30A5FB0143DB0803EB8304A1EB440142EA60
S214081A400122A5FB0315ED0805EB8505A3EB450567
S214081A5042EA0532836913F0040FFBD0036843F0AB
S214081A6002030360836913F0010FFBD00123C361EF
S214081A70C260036823F002030360C06A00F0020035
S214081A8070BC7047CDCCCCCCD34D62101F85EB51C3
S214081A90C161704710B489014318022444504FF0BE
S214081AA0FF319962196A5A6010BC7047890105238C
S214081AB04350704700EB81114A61704700EB811173
S214081AC0CA61704700EB81114A62704700EB8111CA
S214081AD0086A704710B4AC2303600B684A68B3FB07
S214081AE0F2F31B095C1E4FF6FE7294420BD8036293
S214081AF08B68436040F20223C0F82031502303600D
S214081B00002010BC70470120FBE781607047C16069
S214081B10704740697047406900F0010070474369A4
S214081B2013F0010F1DBF83690B700020012070475A
S214081B304FF4004343607047FEE7000008B51C4BAF
S214081B401C4A9A4210D01C4B194A9A420CD2013BA6
S214081B509B1A23F0030304331344164951F8040B65
S214081B6042F8040B9A42F9D1144B154A9A420AD203
S214081B70013B9B1A23F0030304331344002142F865
S214081B80041B9342FBD10F4B23F0604222F07F02E6
S214081B900D498A6003F16043B3F5404F03D28B6862
S214081BA043F000538B60094B9847094B9847FEE76C
S214081BB0000000208CAA0800D80F00200823002068
S214081BC0D80F00200000080000ED00E05D4A08007D
S214081BD0ED4408003D4B1B6B03F00303032B0ED8A4
S214081BE0DFE803F0021C3838394B5B6913F0800FC6
S214081BF014BF4FF400424FF4FA42364B1A60334B88
S214081C001B6B03F07003702B57D0304B1A6B31499F
S214081C10C2F302120B68D3400B6070472B4B1B6A4B
S214081C2013F0807F03D02C4A2A4B1A60E7E72B4A2A
S214081C30284B1A60254B1B6A03F07003102B05D03F
S214081C40202BDCD1244A234B1A60D8E7244A214BA0
S214081C501A60D4E71D4B1B6A13F0807F0CD01E4A0F
S214081C601C4B1A60194B1B6B03F00303022B16D090
S214081C701C4A184B1A60C2E7184A164B1A60134BD0
S214081C801B6A03F07003102B05D0202BEAD1124AEA
S214081C90104B1A60E6E7124A0E4B1A60E2E70B4A48
S214081CA0916A926A0B48C1F30A41036801FB033341
S214081CB0D2B2B3FBF2F30360A1E7064A13680A49F7
S214081CC0A1FB03135B081360704700BF00040E40B7
S214081CD010120E4028010020001BB70000093D0026
S214081CE000127A00001C4E0EABAAAAAA0A4B1B6862
S214081CF053B1094B1B681A180849914208DB10466D
S214081D00054A106018467047054A034B1A60F0E704
S214081D104FF0FF30704700BF78110020FC3F0820C6
S214081D20004008202DE9F04184B00391642800F0B3
S214081D30DD80662840F02781BDF80D709E4C9DF822
S214081D400C303A469D4920469D4DA84721466720B7
S214081D509C4CA0479C496720A0479C4D2946672075
S214081D60A0470E209A4B9847002840F0CD80994906
S214081D706720A047984C21466720924EB04797495F
S214081D806720B04729466720B0470F20904B9847F2
S214081D90002840F0BE808F496720B047214667205C
S214081DA0DFF82082C0478E496720C0478D4E3146EF
S214081DB06720C0471020864B9847002840F0AE8022
S214081DC084496720C04721466720DFF8F881C04766
S214081DD085496720C04731466720C04711207C4B9D
S214081DE09847002840F09F807A496720C0472146D8
S214081DF06720DFF8D081C0477C496720C047314656
S214081E006720C0471820724B9847002840F09080FB
S214081E1070496720C04721466720DFF8A881C04779
S214081E2073496720C04731466720C0471920684B6A
S214081E309847002840F0818066496720C0472146B9
S214081E406720604EB0476B496720B0472946672031
S214081E50B0471A205E4B9847002873D15D49672023
S214081E60B04721466720574EB04763496720B047BA
S214081E7029466720B0471B20554B9847002866D14F
S214081E8054496720B047214667204E4EB0475B4905
S214081E906720B04729466720B0471C204C4B984718
S214081EA0002859D14B496720B04721466720454E40
S214081EB0B04753496720B04729466720B0471D20DA
S214081EC0434B984700284CD142496720B0472146E3
S214081ED067203C4B98479DF80C30013B042B00F2DA
S214081EE0A480DFE803F043535A619B004549672006
S214081EF0344B9847039B1B0223F07F4323F0FF03D2
S214081F0043F00103039317E73F4967202D4B984793
S214081F1030E73D4967202B4B98473FE73A4967200B
S214081F20284B98474FE738496720264B98475EE77F
S214081F3035496720234B98476DE733496720214B7F
S214081F4098477CE7304967201E4B984789E72E4913
S214081F5067201C4B984796E72B496720194B9847EC
S214081F60A3E729496720174B9847B0E72020274B57
S214081F7098474FF47A730093039B013366222449EB
S214081F801046244CA04704B0BDE8F0812020224B20
S214081F90984721201D4B9847EBE721201E4B984772
S214081FA022201A4B9847E4E722201B4B9847232009
S214081FB0164B9847DDE700BFEC1200205C9A080035
S214081FC0494B0800553F08006C9A0800789A0800A4
S214081FD0C11308007C9A0800089D0800849A080027
S214081FE0909A0800949A08009C9A0800A09A0800FC
S214081FF0A89A0800AC9A0800BC9A0800C89A080074
S214082000D89A0800489A0800809A0800DD13080045
S214082010251D0800E5410800F71308002320134B88
S21408202098472420124B9847A3E720200F4CA04738
S2140820302120A0472220A0472320A0472420A047ED
S21408204027B1013FBFB2ADF80D7027B9094967201F
S214082050094B984797E700230093039B1B0A6422C3
S21408206006496620064CA047F0E700BFF7130800AD
S214082070DD130800E89A0800553F0800251D0800EB
S214082080E541080010B542F2166398421ED01C4976
S21408209000201C4B98470446A8B11B4B984701469E
S2140820A020461A4B984742F21663984220D012D917
S2140820B043F22B13984217D04CF29863984202D1F9
S2140820C06520134B9847134B984710BD1249672055
S2140820D0124B984710BD40F234639842F3D1002162
S2140820E066200B4B9847EEE735200D4B9847EAE7F6
S2140820F009496720094B984730200A4B9847E2E77A
S2140821008C9B08005D440800954B080015240800C1
S214082110CD29080019440800789B0800553F080098
S214082120DD130800F713080070B590B05149002079
S214082130514B9847002800F0888004464F4B984734
S214082140014620464E4B984743F22B13984200F020
S214082150878050D840F2346398427AD042F21663A9
S214082160984272D1474B984742490020424B9847BD
S214082170454B98470646002867D044496720444C94
S214082180A047444D324644492846444B984729467A
S2140821906720A0474FF080513020414B9847414B6D
S2140821A003AD93E8070085E8070019203E4B9847DB
S2140821B03E4C032120463E4B9847294620463D4B39
S2140821C098470C23079364230A933223099303251D
S2140821D010A941F8285D2046374B984729462046DF
S2140821E0364B98470096002342F21662344966201A
S2140821F0344CA04729E04CF29863984220D04DF61C
S2140822002E43984221D11F4B98471A4900201A4B53
S214082210984718B31C4B984704461E4D02462A4951
S21408222028461E4B984729466720194B984700238F
S21408223000932346642225496620224CA04704E0E2
S2140822406520234CA0476420A0470E4B984710B043
S21408225070BD012166201E4B9847F6E70124E6E785
S2140822604FF0605135200E4B98473520194B98474C
S214082270EBE700BF8C9B08005D440800954B080000
S2140822801524080019440800554A0800589B0800F9
S214082290553F0800EC1200206C9B0800494B0800CC
S2140822A0311408003C9A08003116080000C008409F
S2140822B05918080025170800691708004F1808005D
S2140822C085200800E5410800489B0800251D0800F1
S2140822D0CD290800F713080010B582B0434900203E
S2140822E0434B984750B10446424B98470146204610
S2140822F0414B98474BF24033984203D03F4B9847A0
S21408230002B010BD3E4967203E4B98473E4B9B683F
S2140823103E4A1360023303F00F03092B10DC1178D2
S21408232063F303011170384BDA68384B5A60009330
S21408233004234FF480527F216620354CA047DDE702
S214082340324A13786FF303031370C3F30213052B93
S21408235005DC0133117863F306111170E3E72B4BA4
S2140823601A786FF306121A705B7803F00F03092BBE
S21408237006DC264A0133517863F303015170D2E72D
S214082380224A53786FF303035370C3F30213052BE3
S21408239005DC0133517863F306115170C3E71B4B14
S2140823A05A786FF306125A709B7803F00F03092BBE
S2140823B006DC164A0133917863F303019170B2E79D
S2140823C0124A93786FF303039370C3F30113022B37
S2140823D005DC0133917863F305119170A3E70B4B85
S2140823E09A786FF305129A709DE700BF8C9B0800D9
S2140823F05D440800954B0800152408001944080099
S214082400209B0800553F080060120E405415002017
S2140824101507080089B110B441184FF6FF72094C29
S21408242010F8013B5340DBB254F8233083EA1222FB
S2140824308142F5D1104610BC70474FF6FF72104621
S214082440704700BF2C0100204840C0B2024B53F82A
S214082450200080EA112070472C010020074A80EAF5
S2140824600103DBB252F8233083EA112181EA1023F4
S214082470DBB252F8230080EA112070472C010020B6
S2140824800FB42DE9F84F6E4C0B9B0A9A6D492046FF
S2140824906D4DA847214667206C4B98476C486D4B96
S2140824A0984772B6BFF35F8F00226B4B1A704FF0D7
S2140824B060513320694B98474FF00508654C684FC4
S2140824C031E03320674B98476748A0473320674B6F
S2140824D0984748E03320634B98476348A047332023
S2140824E0624B984757E033205E4B98475E48A047B4
S2140824F033205E4B984767E033205A4B98475A4834
S214082500A0473320594B984779E03320554B9847D6
S2140825105548A0473320554B98474D48A047B8F133
S214082520010800F0868033204E4B98475048A04755
S21408253033204E4B98474F48A047DDF82890B9F10E
S214082540090FBED9A7FB0923DB085E005BB100258F
S214082550DFF830B1DFF830A13320D8475046A0471F
S2140825600135B542F8D14348A047A7FB0936F60817
S21408257006EB8606B9EB4606ACD076000BD00025EF
S214082580DFF800A1DFF800913320D0474846A0477F
S2140825900135B542F8D12E48A047DDF82C90B9F1A0
S2140825A0630FA0D9344BA3FB09235B095E005BB11C
S2140825B00025DFF8D0B0DFF8D0A03320D847504643
S2140825C0A0470135B542F8D12A48A047A7FB0923FA
S2140825D0DB08A7FB0326F60806EB8606B3EB4606DB
S2140825E08AD076000BD00025DFF898B0DFF898A0E0
S2140825F03320D8475046A0470135B542F8D11D4884
S214082600A047A7FB0936F60806EB8606B9EB46068A
S2140826103FF47BAF760080D00025DFF868A0DFF8AF
S21408262068903320D0474846A0470135B542F8D1D0
S21408263073E71248124B9847BDE8F84F04B0704746
S214082640EC120020909B0800494B0800553F0800F4
S214082650B7A16800010000202401002031140800FA
S214082660CDCCCCCCDD13080093F29C00F713080001
S21408267025E5390193B453001F85EB5100120E402F
S214082680651808001114080025ED14000FB4F0B5FD
S21408269087B00C99642921D014D8012900F00E813E
S2140826A0002900F0BB80022913D10F9B1A1F052AA8
S2140826B040F24881032B00F01B810A2B00F02D8185
S2140826C00024D1E0672940D0682900F08D8066296B
S2140826D01AD00E209E4B98470024C5E000209D4B3C
S2140826E098479D4CA0470028FCD09C4B0421C3F873
S2140826F08010C3F88011102283F8022319609848C6
S214082700984B98470024AFE00F9B0E9A0D99944873
S214082710954CA04704460C90002840F0A580934BA3
S2140827209978DA78043B9B7803F03F03009301F02E
S2140827301F0302F03F0249090220FFF7A7FF8C4B50
S2140827401A7860F382021A708EE00E9C631E0B2BBA
S21408275002D94FF0FF3487E00D9F864AD55C0F9E5E
S21408276031460120FFF792FF2844874202D94FF0EE
S214082770FF3479E0A6F26C73C72B02D94FF0FF340A
S21408278072E07D4DA5FB06356D09642303FB1565D0
S214082790632D02D94FF0FF3466E0334622463946A9
S2140827A00020FFF773FF00903B46224629466C48F8
S2140827B0724CA04704460C90002855D16B4B99786C
S2140827C0DA78043B9B7803F03F03009301F01F037D
S2140827D002F03F0249090220FFF758FF644B1A78B7
S2140827E060F382021A703FE002AB009303AB04AAC0
S2140827F005A95B48624CA047029B013B614A52F818
S2140828002320059B0193049B013B5F4951F8233025
S2140828100093039B5D490D985D4CA0470E990229CD
S21408282028D90F980D9A8318023303EB9003524A5F
S214082830A2FB002003EBD01301EB4102C1EBC2025E
S2140828405449A1FB021203EB5203A3EB5013524A5E
S214082850A2FB0312991A02EB51029208C2EBC202BB
S2140828609B1A01330C930C9C204607B0BDE8F04039
S21408287004B070470F9A501E0D9B1344043301EBA7
S2140828804102C1EBC2024349A1FB021203EB520309
S21408289003EB9003384AA2FB001203EBD213A3EB18
S2140828A052133D4AA2FB0312991A02EB51029208F0
S2140828B0C2EBC2029B1A01330C93D4E70D9B13F0AC
S2140828C0030F07D12C4AA2FB03125209642101FB0D
S2140828D012325AB9284CA4FB0324E4094FF4C872F0
S2140828E002FB1434B4FA84F46409BDE70124BBE798
S2140828F00E9C182C28D90D9A012A08D0183C64B2C8
S21408290052B2A41A002CD4BF00240124ACE7109CB1
S214082910012C94BF00240124A6E70E9C182C15D978
S2140829200D9A012A08D0183C64B252B2A41A002C98
S214082930CCBF0024012497E7109C012C8CBF0024F0
S214082940012491E701248FE700248DE700248BE714
S21408295081240800651508008915080000E100E0D4
S21408296060120E4071180800D11808006C120E404C
S21408297064150020C09B08001F85EB51D919080074
S214082980651908002C05002048050020B09B0800A3
S214082990494B0800398EE3382549922410B582B091
S2140829A004210648064B984700230093042205494D
S2140829B06620054CA04702B010BD00BF60120E404E
S2140829C0911A0800252E0800E54108000FB438B50E
S2140829D004994B1E682B00F20082DFE813F00D0105
S2140829E05D016701710183018F019B010302A90143
S2140829F0DB01FE01FE01FE01FE01FE01FE01FE01F5
S214082A00FE01FE01FE01FE01FE01FE01FE01FE01C1
S214082A10FE01FE01FE01FE01FE01FE01FE01FE01B1
S214082A20FE01FE01FE01FE01FE01FE01FE01FE01A1
S214082A30FE01FE01FE01FE01FE01FE01FE01FE0191
S214082A40FE01FE01FE01FE01FE01FE01FE01FE0181
S214082A50FE01FE01FE01FE01FE01FE01FE01FE0171
S214082A60FE01FE01FE01FE01FE01FE01FE01FE0161
S214082A70FE01FE01FE01FE01FE01FE01FE01FE0151
S214082A80FE01FE01FE01FE01FE01FE01FE01FE0141
S214082A90FE01FE01FE01FE01FE01FE01FE01FE0131
S214082AA0FE01FE016900B8000201E200ED00DD004B
S214082AB00920FFF78BFF4FF040510420AE4CA0478B
S214082AC04FF040510520A0474FF040510620A04740
S214082AD04FF040510720A0470420A84CA0470620E6
S214082AE0A0470520A0470720A54B9847A548A64C11
S214082AF0A04730210220FFF769FF4AF2B700A04737
S214082B0030210220FFF762FF43F29350A04730219E
S214082B100220FFF75BFF43F29350A04738210220BC
S214082B20FFF754FF08210220FFF750FF012102207B
S214082B30FFF74CFF06210220FFF748FF0C21022072
S214082B40FFF744FF0122914B1A6000244BE108214D
S214082B500220FFF73BFF0A20FFF738FF4FF04051EF
S214082B600420854CA0474FF040510520A0474FF061
S214082B7040510620A0474FF040510720A0470420A8
S214082B807E4CA0470620A0470520A0470720A04760
S214082B9000247E4B1C6026E17C4B1C6804F0010474
S214082BA021E1079A06990720FFF710FF05990320E9
S214082BB0FFF70CFF002416E1079A06990720FFF78F
S214082BC005FF059C2178002900F0128103250134B1
S214082BD005942846FFF7FAFE21780029F7D1002445
S214082BE001E1059C24B10720654B98470024FAE0CC
S214082BF00720624B9847F6E00920FFF7E7FE052016
S214082C005E4B98470520FFF7E1FE059C14F0800F01
S214082C104FF0030014BF5A4B584B9847E4B214F0D1
S214082C20400F4FF0020014BF554B544B984714F012
S214082C30200F4FF0010014BF514B504B984714F02B
S214082C40100F4FF0000014BF4D4B4C4B984714F034
S214082C50080F4FF02B0014BF494B484B984714F009
S214082C60040F4FF02A0014BF454B444B984714F006
S214082C70020F4FF0290014BF414B404B984714F001
S214082C80010F4FF0280014BF3D4B3C4B98470620D9
S214082C90FFF79CFE0024A6E00620384B98479DF8D0
S214082CA014100120FFF792FE00249CE00620344B07
S214082CB098479DF814100120FFF788FE002492E03C
S214082CC040F66550304CA04704202D4B984740F2FC
S214082CD0AE20A0470420294B984740F66550A047E9
S214082CE0002480E040F66550274CA0470420244B7B
S214082CF0984740F25710A047002474E040F2571057
S214082D00214CA04704201D4B984740F66550A04725
S214082D10002468E0059B03F003031D4AD15C069B6C
S214082D20194441F080010220FFF750FE00245AE0C3
S214082D304FF040510020104CA0474FF04051012062
S214082D40A0474FF040510220A0474FF040510320C3
S214082D50A0474FF040512820A0474FF04051292067
S214082D60A0474FF040512A20A0474FF040512B2053
S214082D70A047002437E000BF31140800F713080006
S214082D80DD130800DC503400010000206815002020
S214082D907C9C08004FF020510020164CA0474FF0AE
S214082DA020510120A0474FF020510220A0474FF0A5
S214082DB020510320A0474FF020512820A0474FF06D
S214082DC020512920A0474FF020512A20A0474FF035
S214082DD020512B20A047002405E00F20064B9847DB
S214082DE0002400E000242046BDE8384004B07047C0
S214082DF00024F8E7311408008124080008B5C0F15B
S214082E001400054B98474FF07C51044B9847044BE9
S214082E109847C0B208BD00BFC546080075470800F9
S214082E20154A08000FB42DE9F04387B00E99042917
S214082E3000F09B803AD906294ED05CD3072900F0CB
S214082E40ED85642940F06A869A4B00249C615C6193
S214082E501C7702221A806420974B98474FF06051DF
S214082E603420964DA8474FF060513320A8473320AA
S214082E70934B98476420934B98476420924B984707
S214082E80924E00944FF0FF33012231466620904D53
S214082E90A84700942346042231466620A847A04641
S214082EA0404607B0BDE8F04304B07047022900F07A
S214082EB0A68000F23A83012940F030860F9B013342
S214082EC00F93844A52F82320002A3BD100230F93FD
S214082ED034207B4B98473BE0109B1A784AB19DF804
S214082EE03C108A4205D0013310931A780AB18A42F8
S214082EF0F9D19046D4E7DDF8408008F1FF33109307
S214082F00B8F1000FCCD0744E66256F4C0F9B1B781B
S214082F101B09F15C2846A0470F9B1B7803F00F039C
S214082F20F15C2846A04720212846A0470F9B01337E
S214082F300F93DDF8408008F1FF331093B8F1000FC7
S214082F40E4D1ADE713F0010FC2D03420634B9847A5
S214082F500F9B604A52F82320009201225B496620A4
S214082F605B4CA0474FF000089AE705AB0FAA0EA9DE
S214082F705B485C4CA0474F4B1B8813F0040F30D0BF
S214082F8069204D4B98478046002889D00EAD55F8E5
S214082F90042B554C06AE56F8043D00930F9B534938
S214082FA02046DFF85881C0470623012221466820BC
S214082FB0414FB84704AB009333462A460EA9484803
S214082FC04B4DA8470E9B00930F9B059A49492046F0
S214082FD0C0470523002221466820B8474FF000085E
S214082FE05EE7414C059B00930F9B0E9A424920468C
S214082FF0424DA84721466720334B9847C0E72D4BDC
S2140830001B7F062B00F28382DFE813F0070082009E
S214083010850099006A026D02BA010F9AD3B2083B7E
S214083020182B2DD8DFE813F08105810581052C00C3
S2140830302C0081052C002C002C002C002C002C00C9
S2140830402C002C002C002C002C002C002C00190026
S2140830502C002C002C002C008105164C1423A36190
S214083060274BA3601B2003F8010C0125E5814FF6CA
S214083070FF71244B9847208225774FF000080FE70A
S2140830800C4C238843F004032380002565611E4BFF
S214083090636003F8012C0123A3811C4967200A4EAC
S2140830A0B0479DF83C106620B04703232377A84610
S2140830B0F6E600BF70160020CD2908003114080077
S2140830C0F71308008D260800553F0800252E08002F
S2140830D0E5410800389D08004C9D0800DD130800EF
S2140830E060120E407518080010170020909C080003
S2140830F065190800A09C0800809C0800494B080039
S21408310091160020492408006D150020B09C080080
S2140831100222914B1A77904C1423A361A3685A1C79
S214083120A2600F9A1A70E3890133E381218A9DF819
S2140831303C008A4B984720824FF00008B0E60022F1
S214083140854B5A610F9AD1B2A1F10803132B00F2EE
S2140831509480DFE803F0361E7492927492929292EC
S2140831609292929292929292920A7B4C1423A36124
S2140831707B4BA3601B2003F8010C0123E3814FF669
S214083180FF71764B98472082042323774FF0000878
S21408319086E6744B93E803000290ADF80C10090C11
S2140831A08DF80E10704B1860BDF80C209A806A4B8C
S2140831B00622DA8105221A7701229A614FF0000862
S2140831C06EE6654B9A89002A00F0B384674C224461
S2140831D00E925B6805939A4208D91A7803F8012C70
S2140831E0059B013305930E9A9A42F6D8202203F8D7
S2140831F0012C5F4D294667205E4EB047564A5168F7
S214083200013951609389013B9BB29381621C1A4431
S214083210521A6820B0478046431E059300283FF49C
S2140832203FAE6726534C29463046A047DDF8148043
S21408323008F1FF330593B8F1000FF4D130E6464B9A
S2140832409B896BB9444B1A8822F004021A804FF007
S214083250000883F81C800D216620464B98471FE619
S21408326006223D4B1A77002400940D230222424979
S2140832706620424DA847A04612E6D2B2364B9B8936
S21408328083B9202A00F05984334C6368581C606060
S2140832901A706620374B9847A3890133A3814FF0ED
S2140832A00008FDE5FF2B00F25B842B48008810F031
S2140832B0010F12D1284840682C4C1C44A04202D169
S2140832C00133254CA381441C234B5C6002706620A6
S2140832D0284B98474FF00008E2E51F4A5168234AF2
S2140832E01A4491420FD0214A13440E935A1E914213
S2140832F009D8194912781A700E9A531E0E93023A74
S21408330048689042F6D9144C63685A1C62600F9954
S2140833101970C9B26620174DA847A38901339BB216
S214083320A3816168114A1A44521A6820A847804641
S214083330431E0E9300283FF4B3AD0D4E67250D4C83
S21408334031462846A047DDF8388008F1FF330E934B
S214083350B8F1000FF4D1A3E5701600204924080040
S21408336091160020309D0800901600206C1500204D
S214083370B49C0800553F0800252E0800E5410800C3
S214083380914A938952689149521A9B1A5A1E059275
S21408339053B18F4E67258F4C31462846A047059B6C
S2140833A05A1E0592002BF7D1874DAA89874C131908
S2140833B001336B60002616550720FFF733FDAA89F0
S2140833C0131901336B60165583496720814DA8474A
S2140833D021466720A847814B984781492046814B5C
S2140833E0984704460E9068B97F496720794B9847F6
S2140833F0754B4FF0000883F81C801A8822F00402E8
S2140834001A804DE5794B984701462046784B9847F1
S21408341081B26D4B19820596764B1B88F3B199429B
S2140834201ED00123734A00E02B4632F8334024B1FD
S2140834305D1CA142F8D1059300E005936D4C04EBA2
S214083440C3035D6875B10E9C2046684B9847611C9F
S21408345001445D48A847684B9847C5E70023EDE751
S2140834600023EBE700230593644B1B8813B39942AC
S21408347022D00123614C00E02B4634F8332022B1D9
S2140834805D1C9142F8D1059300E005935B4901EB7A
S214083490C3035D6895B10E9C2046544B9847611C43
S2140834A001444948A847544B98474F496720494B19
S2140834B0984799E70023E9E70023E7E7424B1B888C
S2140834C013F0020F90D04E4C82B24E4920464E4B17
S2140834D09847214667203F4B9847474B984783E7CE
S2140834E00522394B1A77384C1423A361A3685A1C53
S2140834F0A2600F9A1A70E3890133E381218A9DF846
S2140835003C00424B984720824FF00008C8E44049E8
S2140835106720304B98472C4B4FF0000883F81C80E8
S2140835201A8822F004021A80BAE4274B9B69B3B1C2
S21408353003F1FF38244BC3F81880B8F1000F0ED1FA
S214083540197F052900F26682DFE811F009000600F7
S214083550160064029500A10000221B4B1A771A4B2E
S214083560D3F81480B8F1000F3FF49AAC08F1FF3294
S2140835705A614FF0000893E4134CE18925481C4B28
S214083580984780B220824CF2F57398420CD04CF2E1
S214083590FA73984211D00C4B1B8813F0020F56D1C1
S2140835A00022094B1A77DAE7002300931A4B064ADB
S2140835B01A4966201A4CA047D1E7034B9B898BBB58
S2140835C00022014B1A77CAE7701600206C150020F7
S2140835D0B89C0800553F0800BC9C08003144080009
S2140835E08C9B08005D440800089D0800954B080061
S2140835F015240800009B0800194408005CA0080071
S21408360010170020C49C0800494B080049240800ED
S214083610DC9C080090160020609D0800AD3D080060
S214083620E5410800994C228842F0040222800022D4
S2140836306261974E3344636096496720964DA84763
S214083640A28931466820A8470323237787E793494A
S2140836506720914CA0478D4EF28991490520FFF7C7
S214083660E1FB904D328A90492846904B9847294668
S2140836706720A04794E78E496720874B9847834B77
S21408368000221A771A8822F004021A8067E77F4C0D
S214083690E1898348874B984780B220824CF23A13D8
S2140836A0984200F00F8134D845F2E233984200F091
S2140836B0E2801ED840F2BB53984200F01E8140F2CA
S2140836C07B6398421ED1714A938971490B445268AC
S2140836D09A4207D2784967206F4B98476B4A5368D7
S2140836E001335360694B00225A6103221A77FFF7A9
S2140836F0D7BB46F60E73984234D04AF64F539842D4
S21408370000F04A81614B00225A6103221A77FFF7BC
S214083710C7BB4CF2BA63984264D01BD84CF2E3336A
S214083720984272D04CF23A439842EBD1574B5A68BB
S214083730574B9A4207D961496720574B9847534ACF
S2140837405368013B5360514B00225A6103221A7793
S214083750FFF7A6BB4CF2F57398424FD04CF6BA4327
S2140837609842CFD1494B9B892BB1494A1344474AC3
S21408377052689A4215D0454B5B68591E444A914296
S21408378017D34F4C224613F8011C0620FFF74AFBB6
S21408379078B13E4B5B68224619780620FFF742FB55
S2140837A038B93A4A5368013B5360444967203A4B54
S2140837B09847434D354B5B682A4619780620FFF72D
S2140837C031FB002840F0CB80304B5B68591E304AEE
S2140837D0914280F0DD802D4B00225A6103221A7731
S2140837E0FFF75EBB324967202B4B9847274B1A8852
S2140837F022F004021A8000221A77B0E6234B002231
S2140838005A6103221A77FFF74BBB204A53680133E5
S2140838100E931F4992890A4493420AD21B481A7883
S21408382003F8012C0E9B01330E9382890A449A42B0
S214083830F5D8202203F8012C144B59680E9A521A10
S2140838406820154B9847431E0E9350B11B4E6725AC
S214083850114C31462846A0470E9B5A1E0E92002B46
S214083860F7D10A4B9A89013A9A8100225A610322B3
S2140838701A77FFF715BB054B1A8882F001021A80E3
S21408388000225A6103221A77FFF70ABB7016002037
S2140838906C150020089D0800553F08000C9D080080
S2140838A090160020101700201C9D0800494B0800A1
S2140838B0289D080015240800B89C0800B49C080039
S2140838C0649D08009F4B5B689F4A9B1A5A1E0E927F
S2140838D053B19E4E67259E4C31462846A0470E9B00
S2140838E05A1E0E92002BF7D1964B974A5A60002222
S2140838F05A6103221A77FFF7D3BA924A93899249F4
S2140839000B4452689B1A5A1E0E9253B1914E672565
S2140839108F4C31462846A0470E9B5A1E0E92002B07
S214083920F7D1884B9A8988490A445A6000225A6116
S21408393003221A77FFF7B4BA013B63603146672063
S214083940834B984763682A4619780620FFF76AFA71
S21408395000283FF439AF6368BB42EDD834E7794CAA
S214083960794F7A4EEEE76368013B63603946672015
S214083970B0476368591E744A9142FFF42CAF2A4632
S21408398013F8011C0620FFF74DFA0028EBD022E7B3
S2140839906C4C6E4F6E4EF2E76F4D6A4B5B682A466C
S2140839A019780620FFF73EFAB8B1664C664F694E9E
S2140839B01DE00133636031466720654B98476368AE
S2140839C02A4619780620FFF72DFA0028EDD16368F5
S2140839D0A2893A449342ECD3E7E75A4C5A4F5D4ED5
S2140839E0EDE70133636031466720594B98476368B3
S2140839F02A4619780620FFF715FA20B16368A289C7
S214083A003A449342EDD34F4B00225A6103221A7769
S214083A10FFF746BA2920514B9847A0E54A4D0E9520
S214083A204D4E062432460E9B19782046FFF7FAF9C3
S214083A30804618B10E9B01330E93F3E70E9B5A1B74
S214083A4005929AB13F4A4049516092892A44934266
S214083A500CD23C494A68501C4860581C0E901B788B
S214083A6013700E9B8A892A449A42F3D805996B18D4
S214083A700E93344A93895B1A93811446062704E00A
S214083A80A3892B440E9A934214D80E9BA2892A44E3
S214083A909A427FF605AA324619783846FFF7C2F9E1
S214083AA00028EDD10E9B01330E93A2892A449A4230
S214083AB0F1D8EAE702F10109CDF83890C4F8049085
S214083AC04B4588BF4B460CD9324619783846FFF71F
S214083AD0A9F930B10E9B01330E93A2892A449A4263
S214083AE0F2D80E9B6168591A059189B1A2892A44B1
S214083AF093420DD26268511C6160591C0E911B7866
S214083B001370059921B10E9BA2892A449A42F1D8CE
S214083B10A389591AA181CDF83890B6E70D200F4B26
S214083B2098474FF00008FFF7BBB94FF00008FFF7BB
S214083B30B7B94FF00008FFF7B3B94FF00008FFF722
S214083B40AFB900BF701600206C150020B49C0800A2
S214083B50553F0800B89C0800649D080081240800AA
S214083B604FF00008FFF79CB938B5054608460A49DD
S214083B700A4B984770B10446094B984701462046B9
S214083B80084B984745F2E573984203D12B8843F0D3
S214083B9002032B8038BD00BF8C9B0800F14B080041
S214083BA0954B08001524080038B5054608460A4906
S214083BB00A4B984770B10446094B98470146204679
S214083BC0084B984745F2E573984203D12B8823F0B3
S214083BD002032B8038BD00BF8C9B0800F14B080001
S214083BE0954B08001524080038B50D46034967208C
S214083BF0034CA04729466720A04738BD9C9E08006E
S214083C00553F080008B502496720024B984708BD8B
S214083C10709D0800553F080070B53A4900203A4B99
S214083C209847002856D00446384B98470146204601
S214083C30374B984747F22733984204D04EF2A913D9
S214083C40984224D070BD334900202F4B9847C0B106
S214083C50314B9847C4B22F4900202B4B984790B158
S214083C602D4B9847C5B22B490020274B984760B183
S214083C70294B9847C3B22A4621466620274CA047B8
S214083C8070BD0024E7E70025EDE70023F3E72149A8
S214083C9000201D4B9847F0B11F4B9847C4B21D49EA
S214083CA00020194B9847C0B11B4B9847C5B2194915
S214083CB00020154B984790B1174B984786B218497D
S214083CC06720184B984733462A4621466720134CE8
S214083CD0A04730B170BD0024E1E70025E7E70026DD
S214083CE0EDE7114D294667200E4CA0470F4E31468A
S214083CF068200A4B984731466720A0472946672020
S214083D00A047E7E78C9B08005D440800954B080031
S214083D10152408008C9E0800554A08008D260800C1
S214083D20949E0800553F0800089D0800EC120020E5
S214083D3070B582B004460D46038843F0040303803A
S214083D40104E0A4610493046104B984731466720B1
S214083D500F4B984755B90F4967200D4B98470E4BA0
S214083D60013BFDD10D480E4B9847FEE74FF47A739A
S214083D7000936B1E22460B4966200B4CA04702B0E8
S214083D8070BD00BFEC120020649E0800494B080076
S214083D90553F08000495080020A1070000120E40B1
S214083DA065180800313D0800E541080010B582B0E6
S214083DB00446038843F0040303800846054B9847E7
S214083DC0002300930346224603496620034CA04777
S214083DD002B010BD554A0800313D0800E54108000C
S214083DE02DE9F0438BB001A94448454B984745490F
S214083DF06720454CA047019A013AD2B2434F413258
S214083E0043493846434B984739466720A0474249B6
S214083E106720A047029A414B53F822106720A04714
S214083E203F4E31466720A0473E496720A0473E4D93
S214083E30039B55F823106720A04731466720A04704
S214083E403A496720A047049B55F823106720A047E7
S214083E5031466720A04736496720A047059A354B64
S214083E6053F822106720A04731466720A0470699D6
S214083E70192938D0304B002401341A7B12B10C3380
S214083E808A42F9D12D4967201F4DA847DFF8A88038
S214083E904FEA440909EB040308EB830359686720D3
S214083EA0A84727496720A8474C4408EB8408D8F851
S214083EB008106720A84731466720A8472149672089
S214083EC0A847079A204B53F822106720A847314680
S214083ED06720A847089B43B91C4967200A4B9847A0
S214083EE00BB0BDE8F0830024CCE7099A18490748C8
S214083EF0084B984739466720A847EDE740070E4025
S214083F0021020800789D0800553F0800EC120020A2
S214083F10B49D0800494B0800C49D08007805002099
S214083F20089D0800D09D080098050020DC9D080024
S214083F30E89D0800EC050020AC9E0800F49D0800EB
S214083F40009E0800089E0800D8050020289E080045
S214083F50149E08000FB4F8B50699A1F16403052B62
S214083F6000F2DD80DFE813F00600DB003B005A00B5
S214083F708700B4006C4B6D4A1A605A6008206C4B78
S214083F8098474FF000610C206A4CA0476A490B20FE
S214083F90A0476A496A486B4B984738B94FF480720D
S214083FA0694B1A60664C694E694F06E01820694BE3
S214083FB09847F3E706A92046B8472046B04705467F
S214083FC00028F7D15E4C2046634B984701212046CF
S214083FD0624B98472846BDE8F84004B07047524BF5
S214083FE01A68511C1960079911701A685C4B9A4236
S214083FF003D3A3F580624C4B1A604B4B1A685B6878
S2140840009A4206D04FF400714D48544B9847012504
S214084010E0E7002117204F4B9847F3E70023069365
S214084020079B19461A78FAB13F4C4D4E444D226804
S214084030501C2060013307930B781370069B0133DE
S21408404006932368B34224BF384B2360226863680C
S2140840509A420BD04FF400712846404B9847079B6E
S21408406019461A78002AE2D1069DB3E700211720E0
S214084070384B9847EEE700230693089B0BB32A4C69
S214084080374E2F4D23685A1C2260079A511C0791F9
S21408409012781A70089B013B0893069B0133069317
S2140840A02368B34224BF214B2360226863689A4280
S2140840B009D04FF400712846284B9847089B002BD8
S2140840C0E0D1069D86E700211720224B9847F0E7A7
S2140840D000230693089B03B3224D66242026079BDD
S2140840E01B781B09E95C2046FFF734FF079B1B7803
S2140840F003F00F03E95C2046FFF72CFF3146204605
S214084100FFF728FF079B01330793089B013B08939B
S214084110069A01320692002BE1D1069D5AE70C203A
S2140841200C4B9847002555E75017002058170020D5
S214084130311608003114080001000008CCA7080052
S21408414000060E40D51A080000E100E0171B08001C
S2140841501F1B080081240800131B08000B1B0800FF
S214084160581B00204C9D080010B582B01648174B07
S2140841709847044610F4007F11D0154A5368126811
S214084180934211D05A1C12494A6019780E4BD961CD
S214084190104B9A4203D3A3F580620D4B5A6014F075
S2140841A0010F07D102B010BD4FF4007106480A4B44
S2140841B09847F4E7044B9B690022009202220749BD
S2140841C06620074CA047EDE700060E40131B0800C4
S2140841D050170020581B00200F1B0800252E08002B
S2140841E0E54108000FB4F0B583B00899642928D0D3
S2140841F01ED966296BD0672940F0CD80684B984752
S214084200684A53681268934200F0AE801D685C687E
S21408421008949E681033644A9342C0F0A280634AAA
S214084220604B5A60624B984731462046A84748E09C
S214084230012940F0B080002508955E4C2F4666267A
S2140842409AE0584B594A1A605A605A4B03F5C861A7
S2140842500022DA6010338B42FBD1574B02221A66D3
S2140842605A655A62C3F88020196F21F0020119674F
S2140842705A601620514B9847514C524A0021204606
S214084280514B984740F2EE22002120464F4B984764
S21408429040F20D22002120464D4B9847002120462B
S2140842A04C4B98474C4B4FF48002C3F88020C3F819
S2140842B08021002183F816131A6004222046474BF3
S2140842C09847002003B0BDE8F04004B07047344B70
S2140842D098470C9D45B300230893364BDB68A3B17B
S2140842E001230893334A00201C46D16951B1013393
S2140842F010322046642BF8D100211620384B9847F8
S214084300642302E070B9642BF6D02A491B01CA1848
S2140843100998C8500A9B53600B9B9360D560244B42
S2140843209847CEE70893EEE71E4B1A68099911607E
S2140843301B680A9A5A600B9A9A6010331A4A934274
S2140843400BD2184A1360174B1A685B689A42E6D174
S21408435000211520224B9847E1E7144A114B1A60B2
S214084360F1E7104A53605DE7114B9847A9E7013516
S21408437008951034642DA4D0E368002BF7D0013BD1
S214084380E360002BF3D1A368626821680097304683
S214084390FFF728FFEBE70B20114B984791E700BF84
S2140843A069160800981C0020981C0020581B00203E
S2140843B0A5160800A01C0020000C0E4031160800A8
S2140843C00000084003C00900951A0800BD1A080036
S2140843D0B51A0800AD1A080000E100E0C51A080082
S2140843E08124080008B500210648074B9847012095
S2140843F0064B98470320064B98470120054B9847DD
S21408440008BD00BF00000840CD1A0800E5410800B6
S214084410252E08008D030800034B1B6813B1034ABA
S21408442012781A70704700BF801100207C11002097
S2140844300023024A1370024A136070477C1100205A
S214084440801100200B783BB1984205D011F8013F47
S21408445013B18342FAD10346184670472DE9F8434C
S21408446000282BD01D4A10601C4B1D682C78002C89
S21408447030D088461A4E194F41462046B04720B1DC
S21408448001353D602C78002CF6D1164B1D602C7833
S214084490F4B12E46124FDFF84C9041462046B847F6
S2140844A028B90136C9F800603478002CF5D10E4BCF
S2140844B01C70002333702846BDE8F883094B1D6836
S2140844C0002DF8D0084B1B782B70044B1D60CBE7EB
S2140844D02E46ECE7034B1D602E46E8E784110020C5
S2140844E045440800801100207C11002000B583B0E8
S2140844F072B6BFF35F8F104E002434700F48104B0F
S2140845009847104B9847104B984764200F4DA8477C
S21408451064200F4B984701233370BFF35F8F62B652
S2140845200094234664220B496620A8476725074C53
S2140845302846A047FCE700BF2401002050120E4082
S214084540311B08007512080065160800E5410800CA
S214084550252E08002901080080F0004002E000BF70
S21408456081F0004142001FBF5FEA410392EA030F51
S2140845707FEA226C7FEA236C6AD04FEA1262D2EB9B
S2140845801363C1BFD218414048404140B8BF5B42A0
S214084590192B88BF704710F0004F40F4000020F039
S2140845A07F4018BF404211F0004F41F4000121F04F
S2140845B07F4118BF494292EA030F3FD0A2F1010299
S2140845C041FA03FC10EB0C00C3F1200301FA03F1D7
S2140845D000F0004302D5494260EB4000B0F5000FFA
S2140845E013D3B0F1807F06D340084FEA310102F1B9
S2140845F00102FE2A51D2B1F1004F40EBC25008BF6B
S21408460020F0010040EA03007047490040EB000034
S21408461010F4000FA2F10102EDD1B0FA80FCACF163
S214084620080CB2EB0C0200FA0CF0AABF00EBC25062
S21408463052421843BCBFD0401843704792F0000F50
S21408464081F4000106BF80F400000132013BB5E7A3
S2140846504FEA41037FEA226C18BF7FEA236C21D019
S21408466092EA030F04D092F0000F08BF084670477E
S21408467090EA010F1CBF0020704712F07F4F04D14C
S214084680400028BF40F00040704712F100723CBF5F
S21408469000F50000704700F0004343F0FE4040F489
S2140846A0000070477FEA226216BF08467FEA236347
S2140846B00146420206BF5FEA412390EA010F40F432
S2140846C0800070474FF0000304E000BF10F000437E
S2140846D048BF40425FEA000C08BF704743F0964365
S2140846E001464FF000001CE050EA010208BF704780
S2140846F04FF000030AE000BF50EA010208BF704707
S21408470011F0004302D5404261EB41015FEA010C1B
S21408471002BF84460146002043F0B64308BFA3F113
S2140847208053A3F50003BCFA8CF2083AA3EBC253F5
S21408473010DB01FA02FC634400FA02FCC2F1200214
S214084740BCF1004F20FA02F243EB020008BF20F04B
S2140847500100704702F1200201FA02FCC2F12002B1
S21408476050EA4C0021FA02F243EB020008BF20EAA6
S214084770DC7070474FF0FF0C1CEAD0521EBF1CEAD4
S214084780D15392EA0C0F93EA0C0F6FD01A4480EAC2
S214084790010C400218BF5FEA41211ED04FF00063AB
S2140847A043EA501043EA5111A0FB01310CF00040D7
S2140847B0B1F5000F3EBF490041EAD3715B0040EAFD
S2140847C0010062F17F02FD2A1DD8B3F1004F40EBCD
S2140847D0C25008BF20F00100704790F0000F0CF0A0
S2140847E0004C08BF49024CEA502040EA51207F3A64
S2140847F0C2BFD2F1FF0340EAC250704740F400003F
S2140848004FF00003013A5DDC12F1190FDCBF00F02F
S21408481000407047C2F10002410021FA02F1C2F1DD
S214084820200200FA02FC5FEA310040F1000053EA79
S2140848304C0308BF20EADC70704792F0000F00F0C7
S214084840004C02BF400010F4000F013AF9D040EACD
S2140848500C0093F0000F01F0004C02BF490011F461
S214084860000F013BF9D041EA0C018FE70CEAD1535F
S21408487092EA0C0F18BF93EA0C0F0AD030F0004CDF
S21408488018BF31F0004CD8D180EA010000F0004093
S214084890704790F0000F17BF90F0004F084691F051
S2140848A0000F91F0004F14D092EA0C0F01D142028B
S2140848B00FD193EA0C0F03D14B0218BF084608D154
S2140848C080EA010000F0004040F0FE4040F400009E
S2140848D0704740F0FE4040F4400070474FF0FF0C31
S2140848E01CEAD0521EBF1CEAD15392EA0C0F93EA78
S2140848F00C0F69D0A2EB030280EA010C49024FEACA
S214084900402037D04FF0805343EA111143EA101382
S2140849100CF000408B4238BF5B0042F17D024FF43A
S214084920000C8B4224BF5B1A40EA0C00B3EB510F15
S21408493024BFA3EB510340EA5C00B3EB910F24BFFE
S214084940A3EB910340EA9C00B3EBD10F24BFA3EB83
S214084950D10340EADC001B0118BF5FEA1C1CE0D14B
S214084960FD2A3FF650AF8B4240EBC25008BF20F0FE
S214084970010070470CF0004C4CEA50207F32C2BF52
S214084980D2F1FF0340EAC250704740F400004FF0EF
S2140849900003013A37E792F0000F00F0004C02BF20
S2140849A0400010F4000F013AF9D040EA0C0093F0EA
S2140849B0000F01F0004C02BF490011F4000F013B44
S2140849C0F9D041EA0C0195E70CEAD15392EA0C0FAC
S2140849D008D142027FF47DAF93EA0C0F7FF470AFE4
S2140849E0084676E793EA0C0F04D14B023FF44CAF27
S2140849F008466EE730F0004C18BF31F0004CCAD1BC
S214084A0030F000427FF45CAF31F000437FF43CAFF7
S214084A105FE700BF42000ED2B2F1FE4F0BD34FF055
S214084A209E03B3EB126209D44FEA002343F0004317
S214084A3023FA02F070474FF00000704712F1610F3A
S214084A4001D1420202D14FF0FF3070474FF000000C
S214084A50704700BF0A22002100F098B970B50F4EC3
S214084A600F4D761BB61018BF002405D0013455F834
S214084A70043B9847A642F9D10A4E0B4D05F0F0FFC5
S214084A80761BB61018BF002406D0013455F8043B30
S214084A909847A642F9D170BD70BD00BF6CAA080041
S214084AA06CAA080074AA08006CAA080070B48607E6
S214084AB046D0541E002A41D0CAB2034602E014F17A
S214084AC0FF343BD303F8012B9D07F8D1032C2ED9CE
S214084AD0CDB245EA05250F2C45EA054519D92646DF
S214084AE003F11002103E0F2E42F8105C42F80C5CE0
S214084AF042F8085C42F8045C02F11002F2D8A4F10D
S214084B00100222F00F0204F00F041032032C134494
S214084B100DD91E462246043A032A46F8045BFAD8FC
S214084B20221F22F003020432134404F003042CB1BB
S214084B30C9B21C4403F8011B9C42FBD170BC7047E9
S214084B4014460346C2E700BF0EB40146F0B56FF040
S214084B5000454FF402774FF6FF769CB021AC54F828
S214084B60042B0B4B02910691186802A92346019460
S214084B70ADF8147004950795ADF8166000F01CF9AA
S214084B800022029B1A701CB0BDE8F04003B07047C4
S214084B902C06002020F0030110F00300C0F10000EE
S214084BA051F8043B00F1040C4FEACC0C6FF00002FD
S214084BB01CBF22FA0CF213434FF0010C4CEA0C2CE3
S214084BC04CEA0C4CA3EB0C0222EA030212EACC12C3
S214084BD004BF51F8043B0430F4D0C2F1000102EAE5
S214084BE00102B2FA82F2C2F11F0200EBD20070474D
S214084BF0024A012312685C3200F002B82C06002034
S214084C00F0B418B307460D4617F8016B01E0A64244
S214084C1017D015F8014B002CF9D1E6B10C4617F859
S214084C20015B01E0002BF9D014F8013B9D42F9D155
S214084C3055B1002307F8013C064617603046F0BC1D
S214084C40704753B13846DDE72F46F5E71068002869
S214084C50D8D10646F2E71660F0E7176006460370F6
S214084C60ECE700BF2DE9F84FDDF828900F468046A0
S214084C7016461D468A4600E0A2465446484614F89C
S214084C8001BB02F0F9FA5844427812F00802F3D150
S214084C90BBF12D0F4FD0BBF12B0F04BF94F800B01B
S214084CA00AF102041DB1102D56D0AC4604E0BBF143
S214084CB0300F60D00A25AC46002A0CBF6FF00049BA
S214084CC04FF000490021B9FBFCFE08460CFB1E9A73
S214084CD005E029D001210CFB003014F801BBABF12C
S214084CE03003092B05D9ABF14103192B0BD8ABF1CF
S214084CF037039D420FDDB1F1FF3FEED08645E8D27F
S214084D004FF0FF31E9E7ABF16103192B03D8ABF19C
S214084D1057039D42EFDC4B1C13D002B1404246B10C
S214084D20C1B93760BDE8F88F9A45D3DA4FF0FF313E
S214084D30D3E7BDE8F88F94F800B001220AF1020420
S214084D40B0E72223C8F80030EEB1671E4846376041
S214084D50BDE8F88F8146F8E7BBF1300FA5D1237878
S214084D6003F0DF03582BA0D14FF0100C94F801B0D5
S214084D7065460234A0E7237803F0DF03582BF3D008
S214084D800825AC4698E74846BDE8F88F084B70B546
S214084D901D68084E6C6B82B0002C08BF344613465C
S214084DA000940A4601462846FFF75CFF02B070BD2D
S214084DB02C0600205C0A00202DE9F04FC3B00C46F4
S214084DC00B9192460F930C9002F05AFA0368184615
S214084DD01A93FFF7DFFEA3891990190603D52369EE
S214084DE0002B01F0358000230DF1C809C84615933D
S214084DF01393149318931B93099316931793279357
S214084E002693CDF894909AF800305446EBB1252BAB
S214084E1002D11AE0252B03D014F8013F002BF9D154
S214084E20A4EB0A058DB1269B279A01332A44072B43
S214084E30C8F800A0C8F804502792269300F38A8082
S214084E4008F10808099B2B4409932378002B00F0E7
S214084E50898000234FF0FF301A468DF877301946C0
S214084E600D939B46637804F1010A0A900AF1010A39
S214084E70A3F12000582800F2B783DFE810F04C03AF
S214084E80B503B5035403B503B503B503B503B503B6
S214084E90B50359005903B50366001402B5032F027B
S214084EA0A503A503A503A503A503A503A503A503B5
S214084EB0A503B503B503B503B503B503B503B50335
S214084EC0B503B503B5038B02D302B503D302B50306
S214084ED0B503B503B5031B03B503B5032003B50334
S214084EE0B503B503B503B5033402B503B5034B02E2
S214084EF0B503B503B503B503B503B503B503B503E5
S214084F00B503B50376029E03D302D302D302630326
S214084F109E03B503B5036803B5037503DD018C036B
S214084F205E03B503F201B5038700B503B503320384
S214084F300F9C236818460D932346002803F10403A4
S214084F400F9304DA0D9B5B420D934BF0040B9AF813
S214084F5000308BE725AA0B990C9803F031F840B976
S214084F60C8466FE7279B23B10C9825AA0B9903F030
S214084F7027F80B9B9B8913F0400F099B18BF4FF02F
S214084F80FF330993099843B0BDE8F08F1BF0200F54
S214084F90119340F0AF810F9A1BF0100F134640F0A4
S214084FA09A851BF0400F00F096850025012314888B
S214084FB004320F92002217468DF877200A994A1C69
S214084FC000F010822BF08002079254EA050240F0A7
S214084FD00F82002940F03184002B40F039851BF001
S214084FE001030E9300F06286302342AE06F8413D78
S214084FF00A9B0E9A9342B8BF13460893002312934F
S21408500017B1089B01330893079B13F0020310930C
S21408501002D0089B02330893079B13F0840540F0E0
S21408502010830D9B089AA3EB020BBBF1000F40F30D
S2140850300883BBF1100F40F3B287279C43462146EE
S214085040A8461027269A0C9C0B9D06E0ABF1100B81
S214085050BBF1100F03F1080318DD0132AB4810311D
S214085060072A2791269283E88100EFDD25AA29469C
S214085070204602F0A5FF00287FF47BAFABF1100BAB
S214085080BBF1100F4B462799269AE6DC45460C4698
S214085090984601329D4B5C44072A2794269288E856
S2140850A0080800F3C3829DF8777008F1080887B1EE
S2140850B00121269B0C440B440DF17702072B2794FD
S2140850C02693C8F80410C8F8002000F3CD8308F12A
S2140850D00808109B7BB10221269B0C4401331EAAAC
S2140850E0072B27942693C8F80410C8F8002000F366
S2140850F0118408F10808802D00F004830A9B0E9A94
S2140851009F1A002F37DD102F40F37986804D4246D0
S2140851102146B0464FF0100B2E46269B0C9C0B9D46
S21408512004E0103F102F02F1080215DD013310319C
S214085130072B2791269382E84008F2DD25AA294600
S214085140204602F03DFF00287FF413AF103F102FD3
S2140851504A462799269BE9DC35460C46464690463D
S21408516001333C44072B2794269388E8A00000F3D5
S214085170708308F10808079BDF0500F16482269B08
S2140851800E9901330C44072B2794C8F80060C8F81A
S2140851900410269300F3B38308F10808079B5B07FF
S2140851A03BD50D9B089A9D1A002D36DD102D40F331
S2140851B021871026269B0C9FDDF82CB004E0103DB6
S2140851C0102D08F1080816DD0133504A1034072B55
S2140851D02794269388E84400F1DD25AA59463846E0
S2140851E002F0EEFE00287FF4C4AE103D102DC8462F
S2140851F0279C269BE8DC0133444A2C44072B27943B
S214085200269388E8240008DD25AA0B990C9802F056
S214085210D7FE00287FF4ADAE279C099B0D9A089907
S2140852208A42ACBF9B185B180993002C40F0FB829F
S2140852300023C8462693E6E511931BF0200340F0AA
S21408524045811BF0100240F066841BF0400300F016
S21408525062840F9913460A4604320C8800250F927A
S214085260A8E600250F9A119316688DF87750141D36
S214085270002E00F0CD860A9A531C00F01B8629469D
S214085280304602F0C7FA002800F00D87831B0A95FF
S2140852900E930F94CDF81CB023EAE3730893129587
S2140852A09DF87770ACE69AF800300AF101042A2BCC
S2140852B000F0C287A3F130000928A24600F218873A
S2140852C000231C461AF8013B04EB840400EB440454
S2140852D0A3F130000928F5D90A94C9E54BF0800BEC
S2140852E09AF80030C2E54BF0100B1BF0200F119314
S2140852F03FF451AE0F9C073424F0070303F108026D
S214085300D3E900450F92012354E600BF20A8080001
S21408531030A808001193002A40F0AD87BE4B1BF05A
S214085320200F189340F0E7800F9A1BF0100F1346D3
S21408533040F0D8831BF0400F00F0D48300250433D8
S21408534014880F931BF0010F00F0E38054EA05035E
S21408535000F0DF8030239DF844208DF878308DF8F3
S21408536079204BF0020B022324E601221193002336
S21408537011460F98089202681F468DF877300A93F0
S2140853801293031DCDF81CB00E918DF8A0200F9334
S21408539028AE39E61193002A40F084874BF0100BAC
S2140853A01BF0200F40F075840F9A1BF0100F134661
S2140853B040F09D831BF0400F00F09983B2F900403F
S2140853C00433E5170F9322462B46002A73F1000391
S2140853D0C0F298830A999DF877704A1C4FF001032B
S2140853E07FF4F0AD54EA050200F02982CDF81CB02F
S2140853F0012B00F00E83022B40F09C824E46189834
S214085400230943EA0573290904F00F020D461C46D2
S214085410835C06F8013D54EA0503F1D1A9EB0603BF
S2140854200E93E5E51193002A40F038870F9C1BF091
S214085430080F04F1070400F0CF8424F0070303F1F3
S21408544008020F921A685B6815921493149B159DB0
S21408545023F00044284621464FF0FF326F4B03F0F6
S2140854606DFE002840F03484284621464FF0FF326F
S2140854706A4B03F045FE002840F02A8415A80DC89C
S214085480149903F033FE002840F0D4859DF8777011
S21408549003231A4608930023614E19460A93614B64
S2140854A00E92119A2BF0800007901291472AD8BFC7
S2140854B01E46A5E54BF0080B9AF80030D6E44BF0EC
S2140854C0100B11931BF020033FF4BBAE0F9C073460
S2140854D024F0070303F10802D3E900450F920023DE
S2140854E068E51193002A40F0C2864F4B1BF0200F48
S2140854F018933FF419AF0F9C1BF0010F04F1070433
S21408550024F0070303F108020F92D3E900457FF45D
S2140855101DAF02234EE59AF8003000297FF4A6ACAA
S21408552001222021A2E44BF0010B9AF800309DE4FA
S2140855309AF8003001222B2198E44BF0200B9AF8B9
S214085540003093E44BF0400B9AF800308EE49AF85B
S21408555000306C2B03BF9AF801304BF0200B0AF191
S214085560010A4BF0100B81E4002A40F07C861BF001
S214085570200F40F052841BF0100F40F038841BF0C8
S214085580400F00F034840F9A136804320F92BDF867
S21408559024201A8037E4782330220F988DF8793043
S2140855A01193031D0F93204B046818934BF0020BBE
S2140855B08DF8782000250223FCE41193002A3FF496
S2140855C0EFAE8DF87710EBE600200446A3F1300026
S2140855D01AF8013B04EB840400EB4404A3F1300002
S2140855E00928F5D90D9443E41193002A40F04A8619
S2140855F0119A002A3FF4B6AC002301211F460891F1
S2140856008DF8A020CDF81CB08DF877300A93129349
S2140856100E9128AEF8E400BFECA70800FFFFEF7F66
S214085620E0A70800DCA7080000A8080025AA0B9930
S2140856300C9802F0C5FC00287FF49BACC8469DF881
S2140856407770279C33E5119B652B40F39A8015A845
S2140856500DC8149903F040FD002800F0938101213D
S214085660269BB54A0B440C44072B27942693C8F868
S2140856700410C8F8002000F3C68308F108081F9B2A
S214085680139A279C934203DB079BDD077FF586ADBD
S214085690269B199901331A9A0C44072BC8F8002040
S2140856A0C8F804102794269300F3C48308F1080862
S2140856B0139B5E1E002E7FF771AD102E40F3758586
S2140856C022461027269B9D4DDDF830B00B9C05E042
S2140856D008F10808103E102E40F3258201331032D8
S2140856E0072B2792269388E8A000F1DD25AA2146F5
S2140856F0584602F065FC00287FF43BACC846279A5B
S214085700269BE7E70D9B089A9F1A002F7FF7F6ACB3
S214085710102F40F3A884894D42462146B0464FF0E4
S214085720100B2E46269B0C9C0B9D04E0103F102F5A
S21408573002F1080215DD01331031072B2791269355
S21408574082E84008F2DD25AA2946204602F038FC01
S21408575000287FF40EAC103F102F4A462799269B48
S214085760E9DC35460C464646904601333C44072B52
S2140857702794269388E8A00000F39E8208F108087C
S214085780BCE4139B012B40F34F820123269F1C4445
S2140857901F44072F2794C8F800602697C8F80430D7
S2140857A000F35F8208F10808199A01371A9B144417
S2140857B0072F27942697C8F80030C8F8042000F367
S2140857C05C8208F1080815A80DC8149903F084FC33
S2140857D0139B002840F04181013B013701361C44E9
S2140857E0072FC8F8006026972794C8F8043000F3F7
S2140857F0668108F108081B9A0137144421AB072F65
S21408580027942697C8F80420C8F800307FF7C4AC59
S21408581025AA0B990C9802F0D3FB00287FF4A9ABB5
S214085820C846279CBAE425AA0B990C9802F0C8FB30
S21408583000283FF4FDACFFF79CBBDDF81CB0012B3D
S21408584000F07E81022B71D1CDF81CB00024002513
S214085850D4E525AA0B990C9802F0B2FB00287FF431
S21408586088ABC846279C86E425AA0B990C9802F0B4
S214085870A7FB00287FF47DABC846279C29E40120B7
S214085880269B2D4A03440444072B27942693C8F8DE
S2140858900400C8F8002040F3D88225AA0B990C9873
S2140858A002F08EFB00287FF464ABC8461F99279C3D
S2140858B029B9139B1BB9079BD8077FF56FAC1998B6
S2140858C0269B0246013322441A9C072B2792C8F8C7
