S010000054657374334153462E7372656367
S2140800001826072005080800010808000108080047
S21408001001080800010808000108080000000000A0
S21408002000000000000000000000000001080800B2
S2140800300108080000000000010808000108080080
S214080040010808000108080001080800010808005F
S214080050010808000108080001080800010808004F
S21408006001080800010808000000000075060800DE
S214080070890608009D060800B10608000000000072
S2140800800000000001080800010808000108080030
S214080090010808000108080001080800010808000F
S2140800A00108080000000000010808000108080010
S2140800B001080800010808000108080001080800EF
S2140800C001080800010808000108080001080800DF
S2140800D001080800010808000108080001080800CF
S2140800E001080800010808000108080001080800BF
S2140800F00108080010B5054C237833B9044B13B132
S2140801000448AFF300800123237010BD6405072060
S21408011000000000640B08000C4B43B10C4810B5F7
S2140801200C49AFF300800C48036823B910BD0A4891
S214080130036833B97047094B002BF7D0BDE8104069
S2140801401847064B002BF5D0184700BF00000000E4
S214080150640B080068050720640B08000000000010
S21408016010B40B01934214D9C9004B0803EBC20222
S214080170B2FBF1F2D3085C1E4FF6FE718C4201D931
S214080180012017E0416841F4002141600CE001209D
S21408019010E0590801EBC202B2FBF3F2D3085C1E6A
S2140801A04FF6FE718C42F2D8120402F4E0221A438B
S2140801B00262002010BC7047084BC0F8E4300023E9
S2140801C043604362836288230360242303604FF4FA
S2140801D0807303604FF40023036070470041535553
S2140801E070B505460C4616460F4B984700220F4B2F
S2140801F01A60A4B13246216828460D4B9847024635
S21408020078B96368A1680B4321690B43E1680B431F
S21408021006490B6069680B436B60104670BD012287
S214080220FBE70122F9E700BFB901080080050720AF
S21408023061010800436913F0020FFBD0C1F30801FF
S214080240C161002070470000F8B572B6BFF35F8F33
S21408025000241C4B1C701C4B98471C4B98474FF0AF
S21408026060513B201A4DA8473B201A4B984711204F
S214080270194B9847194E1A4A1A4930461A4B984746
S2140802804FF000610B20A8474FF000610A20A847EE
S21408029078213046154B9847154E164D0F4F00E0FF
S2140802A001346309A6FB0323DB0905FB1343002B74
S2140802B0F6D1612138460D4B98473B200E4B9847A0
S2140802C0EEE700BF2C010720FD02080061030800C6
S2140802D0B90408007F040800AD070800008009403C
S2140802E000BD0105240B0800E101080035020800DE
S2140802F0C55A7C0AA08601009904080010B50E4865
S2140803000E4B98473E2100200D4B98470D4CA047B2
S2140803100028FCD00C4B98470C4A0D4B9A620D4CA3
S214080320A0470028FCD010200B4B98470B4B98474B
S2140803300148024B984710BD00BD0105A5000720DF
S214080340290708007D0708008D070800013F0D20D3
S21408035000060E409D070800C50608009D08080010
S21408036010B54FF40042164B5A600B20154CA047A8
S2140803700C20A0470D20A0470E20A0474FF0605144
S2140803803B20114CA0474FF060515520A0474FF036
S21408039060515620A0470D496820A0470C495C20AC
S2140803A0A0470C4A4FF440710B480C4B98474FF047
S2140803B000612B20A0474FF000612A20A04710BDFF
S2140803C0501A0E40AD070800B90408007900002846
S2140803D00100002801000008000E0E4089050800EC
S2140803E04264B1F1805F16D00BD849B1B1F1006F05
S2140803F005D1036F016F0B4023EA020303674260CF
S2140804007047B1F1405FFBD0B1F1605FF8D0B1F151
S214080410205FF4D17047036F13430367EFE7416427
S21408042012F0010F14BF4166016612F00A0F14BFDE
S2140804300162416212F0020F07D112F0080F18BFCE
S214080440C0F88410416101607047C0F88010F9E771
S21408045010B4019C416444B9016643B1016542B9D0
S21408046041630161016010BC70474166F5E741656C
S214080470F5E70163F5E7C06C7047806C7047430981
S21408048003F5001303F207735B0200F01F00012256
S21408049002FA00F018637047430903F5001303F2E5
S2140804A007735B02996B00F01F020120904001421F
S2140804B014BF58631863704770B582B00D46430979
S2140804C003F5001303F207735C0201F0F043B3F17F
S2140804D0205F31D016D8B3F1006F1BD0B3F1805F20
S2140804E016D100F01F000126864032464FF0805194
S2140804F02046224B984715F0010F14BF66662666FD
S214080500012017E0B3F1405F21D0B3F1605F1ED041
S21408051000200FE000F01F000126864032464FF00C
S21408052000612046154B984715F0010F14BF666604
S2140805302666012002B070BD00F01F0101262A467B
S21408054006FA01F120460E4B98473046F2E705F0CA
S214080550605200F01F01012605EA06030093C5F362
S2140805608003B2F1605F14BF0022012206FA01F18F
S2140805702046044CA0473046DCE700BFE1030800ED
S2140805801F0408005104080070B582B005460E46E0
S214080590144602F0F043B3F1205F27D011D8B3F128
S2140805A0006F16D0B3F1805F11D10A464FF0805124
S2140805B0194B984714F0010F14BF6E662E6601207B
S2140805C012E0B3F1405F15D0B3F1605F12D000209F
S2140805D00AE00A464FF000610F4B984714F0010FE7
S2140805E014BF6E662E66012002B070BD0B4B98478E
S2140805F00120F9E704F0605204F001030093C4F305
S2140806008003B2F1605F14BF0022012231462846FB
S214080610034CA0470120E7E7E10308001F04080091
S214080620510408002DE9F041044688460E4B9847C9
S214080630054620460D4B9847054013D00C4C04F150
S214080640600603E0B4420DD010345DB12068404522
S214080650F8D161682942F5D0E3689847636825EAC7
S2140806600305EFE7BDE8F081770408007B0408007F
S2140806708405072008B50B210148024B984708BD9A
S214080680000E0E402506080008B50C210148024B4E
S214080690984708BD00100E402506080008B50D212D
S2140806A00148024B984708BD00120E402506080070
S2140806B008B50E210148024B984708BD00140E40A5
S2140806C025060800174A136B23F0700318431063B7
S2140806D0936E13F0080F0AD14FF4006311498A6E1F
S2140806E012F0080F03D1013BF9D1012070470D4ADB
S2140806F0136B23F0030343F002031363936E13F0A4
S214080700080F0AD14FF4006306498A6E12F0080FE4
S21408071005D1013BF9D10120704700207047002021
S214080720704700BF00060E40C8B9114A136A09028E
S21408073089B223F45C1323F0030343F45C1343F0F9
S21408074001030B431362936E13F0010FFBD0084AA4
S214080750136A43F09B7343F480331362704704496B
S2140807600B6A044A1A40044B13430B62704700BFD7
S21408077000060E40FCFFC8FE02003701024B986ECA
S21408078000F48030704700BF00060E404FF000525D
S214080790014B9A62704700BF00060E40024B986EE7
S2140807A000F00200704700BF00060E402C281ED836
S2140807B01F280CD8114B9A6901238340934318D0FD
S2140807C0012303FA00F00D4B18610020704720380B
S2140807D00A4BD3F808210123834093430BD0012307
S2140807E003FA00F0054BC3F800010020704701200B
S2140807F07047002070470020704700BF00060E4074
S214080800FEE7000008B51C4B1C4A9A4210D01C4B49
S214080810194A9A420CD2013B9B1A23F0030304336D
S2140808201344164951F8040B42F8040B9A42F9D1BE
S214080830144B154A9A420AD2013B9B1A23F003032B
S21408084004331344002142F8041B9342FBD10F4B98
S21408085023F0604222F07F020D498A6003F160436C
S214080860B3F5801F03D28B6843F000538B60094BA7
S2140808709847094B9847FEE700000720640B0800D6
S21408088064050720180607206405072000000800EE
S21408089000ED00E0B5090800490208003D4B1B6B57
S2140808A003F00303032B0ED8DFE803F0021C3838E6
S2140808B0394B5B6913F0800F14BF4FF400424FF4B6
S2140808C0FA42364B1A60334B1B6B03F07003702BDF
S2140808D057D0304B1A6B3149C2F302120B68D3401B
S2140808E00B6070472B4B1B6A13F0807F03D02C4A93
S2140808F02A4B1A60E7E72B4A284B1A60254B1B6AD7
S21408090003F07003102B05D0202BDCD1244A234B90
S2140809101A60D8E7244A214B1A60D4E71D4B1B6A95
S21408092013F0807F0CD01E4A1C4B1A60194B1B6BA9
S21408093003F00303022B16D01C4A184B1A60C2E7B2
S214080940184A164B1A60134B1B6A03F07003102BD9
S21408095005D0202BEAD1124A104B1A60E6E7124A55
S2140809600E4B1A60E2E70B4A916A926A0B48C1F38B
S2140809700A41036801FB0333D2B2B3FBF2F3036008
S214080980A1E7064A13680A49A1FB03135B0813602C
S214080990704700BF00060E40101A0E4030010720B0
S2140809A0001BB70000093D0000127A00001C4E0E1E
S2140809B0ABAAAAAA70B50F4E0F4D761BB61018BF75
S2140809C0002405D0013455F8043B9847A642F9D1CF
S2140809D00A4E0B4D00F0B4F8761BB61018BF00246C
S2140809E006D0013455F8043B9847A642F9D170BDA5
S2140809F070BD00BF4C0B08004C0B0800540B0800D9
S214080A004C0B0800024B13B1024800F005B87047BB
S214080A1000000000250A0800002301461A4618466A
S214080A2000F01EB838B50A4C0A4D641BA4100AD04C
S214080A3004F18043013B05EB8305013C55F8043976
S214080A409847002CF9D1BDE8384000F083B800BFBD
S214080A50640B0800600B0800704700BF704700BFB3
S214080A602DE9F8432C4D0646286898460F469146C9
S214080A70FFF7F2FF294B1C68D4F84831002B3ED00C
S214080A805A681F2A1CDC02F1010E76B1012103EB1D
S214080A908204C4F88890D3F8880191400843022E4F
S214080AA0C3F88801C4F8088123D00232C3F804E0EA
S214080AB0286843F82270FFF7D1FF0020BDE8F883C6
S214080AC0174B0BB34FF4C870AFF300800346D8B18A
S214080AD00020D4F848114FF0010E586019600246FD
S214080AE0C4F84831C3F88801C3F88C01002EDCD05E
S214080AF0CCE7D3F88C010143C3F88C11D5E704F58D
S214080B00A673C4F84831BBE72868FFF7A7FF4FF07D
S214080B10FF30BDE8F88300BF600507203C0B0800DF
S214080B200000000000C20100C0000000000800002D
S214080B300000000000000000000000003801072048
S214080B40F8B500BFF8BC08BC9E467047050A080002
S214080B5019010800F8B500BFF8BC08BC9E467047E7
S208080B60F500080087
S214080B644FF48063204A136002F5007213601F4B2B
S214080B741B6A13F0807F07D11D4A1C4B1A621A465B
S214080B84936E13F0010FFBD01A4A184B1A621A46D2
S214080B94936E13F4803FFBD0144A136B23F00303BD
S214080BA443F001031363936E13F0080FFBD0124A45
S214080BB40E4B9A621A46936E13F0020FFBD011225C
S214080BC40A4B1A631A46936E13F0080FFBD01222C8
S214080BD4064B1A631A46936E13F0080FFBD0074A9F
S214080BE4074B1A60704700BF000A0E4000060E4006
S214080BF40908370009083701013F0D2000BD010523
S214080C04300107201B4B984215D91B4B984219D91B
S214080C141A4B98421ED91A4B984223D9194B984214
S214080C2494BF4FF480634FF4A063174A136002F529
S214080C340072136070470023134A136002F50072AB
S214080C44136070474FF480730F4A136002F50072FE
S214080C54136070474FF400730B4A136002F5007272
S214080C64136070474FF44073074A136002F5007226
S214080C7413607047BFEA21017FF0FA02FF8FD003A2
S214080C84FFB3C4047F4A5D05000A0E400100000055
S214080C9400093D00000000000000000024040720AE
S214080CA48C040720F404072000000000000000005D
S214080CB40000000000000000000000000000000023
S214080CC40000000000000000000000000000000013
S214080CD40000000000000000000000000000000003
S214080CE400000000000000000000000000000000F3
S214080CF400000000000000000000000000000000E3
S214080D0400000000000000000000000000000000D2
S214080D1400000000000000000000000000000000C2
S214080D2400000000000000000000000000000000B2
S214080D3400000000000000000000000000000000A2
S214080D4401000000000000000E33CDAB34126DE63F
S214080D54ECDE05000B0000000000000000000000A8
S214080D640000000000000000000000000000000072
S214080D740000000000000000000000000000000062
S214080D840000000000000000000000000000000052
S214080D940000000000000000000000000000000042
S2080810C4F4050720FB
S804080805E6
