S00D00004E6F7961752E737265630B
S214080000C83407209D180800991808009918080091
S21408001099180800991808009918080000000000A8
S214080020000000000000000000000000991808000A
S2140800309918080000000000991808009918080088
S2140800409918080099180800190608009918080051
S21408005099180800991808009918080099180800AF
S2140800609918080099180800000000000D170800E5
S2140800702117080035170800491708000000000077
S21408008000000000B90E0800991808009918080022
S214080090991808009918080099180800991808006F
S2140800A09918080000000000991808003511080083
S2140800B0991808009918080099180800991808004F
S2140800C0991808009918080099180800991808003F
S2140800D0991808009918080099180800991808002F
S2140800E0991808009918080099180800991808001F
S2140800F09918080010B5054C237833B9044B13B18A
S2140801000448AFF300800123237010BD400F07207A
S21408011000000000946908000C4B43B10C4810B569
S2140801200C49AFF300800C48036823B910BD0A4891
S214080130036833B97047094B002BF7D0BDE8104069
S2140801401847064B002BF5D0184700BF00000000E4
S21408015094690800440F072094690800000000000E
S21408016021B9436823F0010343607047436843F0AE
S21408017001034360704730B485688468A54203D09D
S21408018085688468AC42FBD161B1C4F3015000EBCA
S2140801908005C4F3034000EB450014F4800F18BF35
S2140801A00C30086042B1C4F3023101EB8101C4F39C
S2140801B0032000EB4101116043B1C4F3021202EBC5
S2140801C0820204F00F0404EB42041C6030BC704743
S2140801D0F0B4446814F0010F05D00C293DD90C3949
S2140801E04FF4800700E000271D4CA4FB0356F608D2
S2140801F006EB8605A3EB450343EA0613A4FB026554
S214080200ED0843EA053305EB8505A2EB450543EA09
S21408021005233B43A4FB0142D20843EA025302EB00
S2140802208202A1EB420143EA0141836913F0040FFD
S214080230FBD0036843F001030360836913F0010FE2
S214080240FBD00123C3618160036823F001030360C8
S214080250C06A00F00100F0BC70470027C4E700BF82
S214080260CDCCCCCCF0B4049EC568C468A54203D0F7
S214080270C568C468AC42FBD199B1C4F3033000EB3F
S2140802808000C4F3032707EB4007C4F3021000EB13
S214080290800504F00F0000EB4500642505FB0070A0
S2140802A0086042B1C4F3005081000844C4F3034117
S2140802B001EB4001116043B1C4F3017202EB820204
S2140802C0C4F3036101EB42021A6016B1C4F3425448
S2140802D03460F0BC7047000070B42A4DA5FB034696
S2140802E0F608039C640544EA067406EB8606A3EB48
S2140802F0460344EA0363A5FB0264E40843EA04539E
S21408030004EB8404A2EB440243EA02421E4BA3FB1E
S21408031001439B0942EA03121C4BA3FB01435B09FA
S214080320A5FB0364E40804EB8404A3EB44031A4324
S214080330A5FB0143DB0803EB8304A1EB440142EA77
S2140803400122A5FB0315ED0805EB8505A3EB45057E
S21408035042EA0532836913F0040FFBD0036843F0C2
S21408036002030360836913F0010FFBD00123C36106
S214080370C260036823F002030360C06A00F002004C
S21408038070BC7047CDCCCCCCD34D62101F85EB51DA
S21408039010B489014318022444504FF0FF31996283
S2140803A0196A5A6010BC7047890105234350704784
S2140803B000EB81114A61704700EB8111CA617047F2
S2140803C000EB81114A62704700EB8111086A70479A
S2140803D010B40B01934214D9C9004B0803EBC202B0
S2140803E0B2FBF1F2D3085C1E4FF6FE718C4201D9BF
S2140803F0012017E0416841F4002141600CE001202B
S21408040010E0590801EBC202B2FBF3F2D3085C1EF7
S2140804104FF6FE718C42F2D8120402F4E0221A4318
S2140804200262002010BC7047084BC0F8E430002376
S21408043043604362836288230360242303604FF487
S214080440807303604FF400230360704700415355E0
S21408045070B505460C4616460F4B984700220F4BBC
S2140804601A60A4B13246216828460D4B98470246C2
S21408047078B96368A1680B4321690B43E1680B43AD
S21408048006490B6069680B436B60104670BD012215
S214080490FBE70122F9E700BF290408005C0F0720E4
S2140804A0D103080040230360704710230360704799
S2140804B081607047C16070474069704789B110B461
S2140804C041184FF6FF72094C10F8013B5340DBB257
S2140804D054F8233083EA12228142F5D1104610BC24
S2140804E070474FF6FF721046704700BF3801072066
S2140804F00FB42DE9F84F0A9BDFF89C80A8FB032869
S2140805004FEAD80808EB880AA3EB4A0A3B251C4C96
S214080510DFF888B001E01B48A04728461A4B9847E2
S2140805201A48A04728461A4B98475846A047B8F195
S214080530000F0FD00026DFF85090164F2846C84701
S2140805403846A0472846124B98473846A0470136F3
S2140805504645F3D15846A047BAF1000FDBD000262F
S214080560DFF824900B4F2846C8473846A047284649
S214080570074B98473846A04701365645F3D1CAE791
S21408058001000720808D5B008D140800001BB70053
S214080590A7140800804F1200CDCCCCCCC0C62D00C6
S2140805A070B505460E46134B1A6801321A60124C8F
S2140805B012492046124B984721466720114B984708
S2140805C00B2D00D070BDB6F5803FFBD14FF48032BE
S2140805D04FF020510C480D4B984728B94FF40001AE
S2140805E009480B4B9847EDE74FF400010648094BBE
S2140805F0984770BD600F07209C13072060650800A9
S214080600791B0800210D0800000E0E40A5130800EF
S2140806109D130800A113080070470000022924D87B
S214080620531E0432104400EB9300224AA2FB032315
S21408063000EBD310A0EB531089B201EB4103C1EBDA
S214080640C3011D4B83FB0123C917C1EB6301084493
S2140806501A4BA3FB0023C21A03EB52039B08C3EBF7
S214080660C303C01A0130C0B27047931C184400EB8D
S2140806709200104BA3FB023200EBD210A0EB5212F2
S21408068089B201EB4103C1EBC3010B4880FB013083
S214080690C917C1EB60010A440848A0FB0230131AC8
S2140806A000EB53008008C0EBC000101A0130C0B23F
S2140806B0704700BF1F85EB51398EE33825499224D1
S2140806C00FB42DE9F04186B00C99022900F0B481E8
S2140806D069D9042900F0CD81642940F00B824FF0D7
S2140806E060513B20B34B98473B20B34B9847642058
S2140806F0B24B98470024B24B1C700220B14DA84755
S2140807000B20A847B04D01260096234622464FF4F4
S21408071000012846AD4FB8470096234622464FF0BC
S21408072080712846B84732464FF480312846A84B91
S2140807309847A84B009340234FF480320B21284655
S214080740A54FB8474FF480312846A44B98474FF436
S2140807500062A34B1A6005F5466521462846A14B5C
S214080760984703230222314628469F4DA8479F4FA5
S214080770009423460222394666209D4DA8474FF42A
S214080780FA7600962346042239466620A84700963D
S2140807902346642297496620A847002006B0BDE88D
S2140807A0F04104B07047012940F0A481844B1B78BF
S2140807B0062B00F23B8101A252F823F0D907080065
S2140807C071080800150908009B0708009B07080021
S2140807D09B0708009B0708000D9DECB2A4F10803D0
S2140807E0182B35D801A252F823F000BF9B07080043
S2140807F09B0708009B0708005108080051080800D6
S2140808009B0708005108080051080800510808000E
S2140808105108080051080800510808005108080047
S2140808205108080051080800510808005108080037
S21408083051080800510808009B07080051080800DE
S2140808405108080051080800510808009B070800CE
S21408085069496720594FB847594E684BB36003F843
S214080860015C0125F56021466620B847357094E797
S2140808700D9AD1B2A1F10803132B3AD801A050F86B
S21408088023F000BF9B0708009B0708009B0708008B
S214080890F3080800F3080800D5080800F30808005D
S2140808A0F3080800F3080800F3080800F30808002F
S2140808B0F3080800F3080800F3080800F30808001F
S2140808C0F3080800F3080800F3080800F30808000F
S2140808D09B0708003A4A91684B1C936000230B70EC
S2140808E0022111700093012240496620404CA0471F
S2140808F053E7334BDB68FD2B3FF64FAF304B98681A
S214080900441C9C600270DA680132DA6066202B4B61
S214080910984742E73A496720284CA047394D294668
S2140809206720A04738496720A04738492846384BEB
S214080930984707460C9018B90022214B1A702CE7E6
S214080940344B984701463846334B984785B21C4B7C
S2140809501D8200230593314B1B88DBB19D421BD0BB
S21408096001232E4E00E0234636F8331021B15C1CD6
S2140809708D42F8D1059300E00593284901EBC3039F
S2140809805C685CB13846234B98471C4901440020F4
S214080990A047D1E70023F0E70023EEE7204C82B219
S2140809A020492046204B984721466720034B984706
S2140809B0C2E700BFE1140800A7140800210D0800CC
S2140809C01810072045180800000E0E402D140800C1
S2140809D0FB130800A10508009D16080081140800EE
S2140809E000E100E061010800D1010800C106080026
S2140809F0390F080055110800F86408002D10072064
S214080A00FC6408002C100720046508000865080028
S214080A10211C0800C51B0800BD0408002466080041
S214080A209C1307200C650800791B08009DF83410F5
S214080A306620334B9847B0E60D9C01340D94314B35
S214080A4053F8243033B114F0010F04D03B202E4B5A
S214080A50984703E000243B202C4B9847294B53F833
S214080A60243000932346022229496620294CA047B1
S214080A7093E6294B1B784BB14FF4967300930023EB
S214080A80042223496620234CA04786E602AF234C5F
S214080A903B4603AA04A92046214DA847214E029B9F
S214080AA00093039B049A20493046204DA847009798
S214080AB003AB04AA05A920461D4CA047039F049C27
S214080AC0DDF814801B4AA2FB083252092146384634
S214080AD0194B98470338194B53F82020CDF8048053
S214080AE0013C174B53F8243000933B4615493046D3
S214080AF0A847C1E7144B1B680E2098474DE600BF71
S214080B00210D08004C650800A71408008D1408007D
S214080B10C1060800390F080018100720601A0E4092
S214080B20770108009C13072024650800791B080035
S214080B30650208001F85EB511D0608003C050720C6
S214080B4058050720386508003805072010B582B014
S214080B5008464049404B984708B902B010BD0446BD
S214080B603E4B9847014620463D4B984782B247F28F
S214080B7027339A420DD04EF2A9139A4234D0394CF4
S214080B8039492046394B984721466720384B9847BD
S214080B90E3E738490020304B9847B0B9354900207C
S214080BA02D4B9847B0B9334900202B4B9847B0B91E
S214080BB0314B1B68314A1268314909683148324C52
S214080BC0A0471020314B9847C7E7314B98472C4B26
S214080BD01860E3E72E4B9847284B1860E3E72C4B42
S214080BE09847254B1860E3E7224900201A4B984798
S214080BF0D8B920490020184B9847D8B91D49002075
S214080C00154B9847D8B91B490020134B9847D8B9B5
S214080C10194B1B68194A1268194909681D48006863
S214080C20009018481C4CA04797E7194B9847144B58
S214080C301860DEE7164B9847104B1860DEE7144B33
S214080C4098470D4B1860DEE7114B9847114B186014
S214080C50DEE700BF08650800211C0800C51B080061
S214080C60BD0408009C1307200C650800791B0800C3
S214080C70210D08003C660800481107203C11072093
S214080C8040110720601A0E40D10108008D14080094
S214080C90851A080044110720D9020800F8B51B4B2E
S214080CA0DB6B13F4000F18D1194E1A4C06F1200707
S214080CB035460FCD20606160A260E3602E46103492
S214080CC0BD42F5D12B7823704FF400020F4B1A6300
S214080CD010496720104B9847F8BD104E0D4C06F18A
S214080CE0200735460FCD20606160A260E3602E467F
S214080CF01034BD42F5D12B8823804FF40002034BF5
S214080D005A6304496720044B9847F8BD00120E4002
S214080D10686608009C130720210D08004466080032
S214080D200FB4F8B50699A1F16403042B00F2A2806B
S214080D30DFE803F045A076230300089D002D6AD05F
S214080D404F4C504EA6F5807723685A1C2260079AA7
S214080D50511C079112781A70013D08952368B34212
S214080D6028BF2760226863689A427DD002214648D9
S214080D70464B9847002DE7D14DE0079D2A462B782D
S214080D80002B48D001353E4C3E4EA6F580772368AA
S214080D90591C2160079512781A702368B34228BF39
S214080DA02760226863689A4258D002213648374B33
S214080DB098472A4615F8013B002BE8D12BE0304B24
S214080DC0334A5A601A601120324CA0472E4D324AD8
S214080DD032492846324B98474FF000610B20314E77
S214080DE0B0474FF000610A20B04701212846274B3C
S214080DF098474FF400322C4B1A6028462B4B9847DE
S214080E0028462B4B98470B20A0470C20A0470D20C0
S214080E10A0470E20A0470020BDE8F84004B0704761
S214080E20174B1A68511C1960079911701A68154BE8
S214080E309A4203D3A3F58072114B1A60104B1A68B6
S214080E405B689A4204D002210F48104B9847E2E7A5
S214080E50184B1B68662117209847F4E7154B1B6844
S214080E60672117209847A0E7124B1B6867211720B1
S214080E7098477BE70F4B1B680D209847CBE700BFCA
S214080E804C1107205412072000800940B1040800BE
S214080E90541107204518080000BD01058C66080097
S214080EA051040800E114080000E100E0A504080069
S214080EB0AB0408003805072030B583B01748184B30
S214080EC09847044610F0010F16D114F0020F11D0FF
S214080ED0144A5368126893421AD05A1C11494A6039
S214080EE019780E4BD961104B9A4203D3A3F580723A
S214080EF00C4B5A6003B030BD084B9B690022009229
S214080F00C3F30803012209496620094DA847DCE710
S214080F1002210248074B9847ECE700BF00800940CB
S214080F20B90408004C11072054120720C10608000F
S214080F30390F0800B50408000FB4F0B583B0089957
S214080F40642924D017D9662967D0672940F0C88055
S214080F50664A53681268934259D01A6858680890C7
S214080F6099681033624CA342C0F0A380614C5F4B73
S214080F705C6090474BE0012940F0B28002205E4B4F
S214080F809847002508955D4C2F46662699E0574BEE
S214080F90584A1A605A60594B03F1A0010022DA60D9
S214080FA010338B42FBD1564B4FF000721A665A65C7
S214080FB05A62C3F88020196F114319675A601B20BC
S214080FC0504B9847504C514A00212046504B984762
S214080FD04FF42472002120464E4B984740F2CB121D
S214080FE0002120464C4B9847002120464B4B9847FB
S214080FF04B4B4FF00062C3F88020C3F880210021D5
S21408100083F81B131A6004222046464B9847002094
S21408101003B0BDE8F04004B07047434B98470C9DBA
S2140810204DB300230893354BDB68ABB10123089317
S214081030324A00201C46D16959B101331032204685
S2140810400A2BF8D1394B1B680021162098470A232B
S21408105002E070B90A2BF5D028491B01CA1809986E
S214081060C8500A9B53600B9B9360D560304B9847DB
S214081070CDE70893EEE71D4B1A68099911601B68BF
S2140810800A9A5A600B9A9A601033194A93420CD2FD
S214081090164A1360154B1A685B689A42E6D1234BCA
S2140810A01B68002115209847E0E7124A0F4B1A6084
S2140810B0F0E70E4C63605CE70135089510340A2D9E
S2140810C0A5D0E368002BF7D0013BE360002BF3D1F3
S2140810D0A3686268216800973046FFF72DFFEBE7A4
S2140810E0124B1B680B20984791E700BFF4120720A5
S2140810F0F412072054120720C1140800FC12072017
S21408110000100E40451808000000084003C00900FB
S21408111091030800B9030800B1030800A9030800F2
S21408112000E100E0C1030800B512080038050720F2
S214081130F112080008B500210348044B984701201F
S214081140034B984708BD00BF00000840C9030800C5
S214081150390F08000FB410B582B00499642906D078
S21408116066291BD01C4B1B680F20984711E04FF0D0
S21408117060514120194CA0474FF060514220A047CB
S2140811804FF4487300930023662215491046154C01
S214081190A04702B0BDE8104004B07047059C013473
S2140811A00594114B53F8243033B114F0010F04D0D2
S2140811B041200E4B984703E0002441200C4B9847EB
S2140811C0094B53F8243000932346662204491046F8
S2140811D0044CA047DDE700BF38050720E1140800E7
S2140811E055110800390F0800A4660800A71408005F
S2140811F08D14080008B572B6BFF35F8F0D4C002338
S21408120023700D4B98470D4B984764200C4B984716
S21408121064200C4B98470C4967200C4B98470123D1
S2140812202370BFF35F8F62B66725054C2846A04734
S214081230FCE700BF88050720511208001D130800A8
S214081240390F0800C1060800C0660800210D08000E
S21408125010B50E480E4B98473E2100200D4B984778
S2140812600D4CA0470028FCD00C4B98470C4A0D4B59
S2140812709A620D4CA0470028FCD010200B4B9847CC
S2140812800B4B98470148024B984710BD00BD010517
S214081290B1000720C117080015180800251808000F
S2140812A0013F0D2000060E40351808005D1708009F
S2140812B0351908000B4B1B682BB9EFF310833BB1AD
S2140812C00022094B1A70074A1368013313607047E7
S2140812D072B6BFF35F8F0022044B1A700122024BCE
S2140812E01A70F0E7640F0720680F072088050720A4
S2140812F0074B1A68013A1A601B6843B9054B1B78F6
S2140813002BB10122044B1A70BFF35F8F62B6704789
S214081310640F0720680F07208805072010B54FF4CC
S2140813200042164B5A600B20154CA0470C20A047CD
S2140813300D20A0470E20A0474FF060513B20114CCF
S214081340A0474FF060515520A0474FF060515620F7
S214081350A0470D496820A0470C495C20A0470C4AC6
S2140813604FF440710B480C4B98474FF000612B2008
S214081370A0474FF000612A20A04710BD501A0E4023
S21408138045180800E1140800790000280100002824
S21408139001000008000E0E40B115080001637047F2
S2140813A04163704721F00061B1F1405F0CBF836B69
S2140813B0C36B134214BF0120002070474264B1F18A
S2140813C0805F16D00BD849B1B1F1006F05D1036F15
S2140813D0016F0B4023EA0203036742607047B1F1CE
S2140813E0405FFBD0B1F1605FF8D0B1F1205FF4D177
S2140813F07047036F13430367EFE7416412F0010F6A
S21408140014BF4166016612F00A0F14BF01624162FA
S21408141012F0020F07D112F0080F18BFC0F8841098
S214081420416101607047C0F88010F9E710B4019C6C
S214081430416444B9016643B1016542B9416301613B
S214081440016010BC70474166F5E74165F5E7016342
S214081450F5E712F0100F10D0C0F8B01012F0200FF9
S21408146014BFC0F8D410C0F8D01012F0400F14BF44
S214081470C0F8C010C0F8C4107047C0F8B410704761
S21408148001647047C06C7047806C7047430903F569
S214081490001303F207735B0200F01F00012202FA32
S2140814A000F018637047430903F5001303F2077347
S2140814B05B0200F01F00012202FA00F05863704732
S2140814C0430903F5001303F207735B02996B00F0F8
S2140814D01F0201209040014214BF586318637047EA
S2140814E070B582B00D46430903F5001303F207737F
S2140814F05C0201F0F043B3F1205F31D016D8B3F1A7
S214081500006F1BD0B3F1805F16D100F01F000126D4
S214081510864032464FF080512046224B984715F0B9
S214081520010F14BF66662666012017E0B3F1405F18
S21408153021D0B3F1605F1ED000200FE000F01F003E
S2140815400126864032464FF000612046154B9847E4
S21408155015F0010F14BF66662666012002B070BD3E
S21408156000F01F0101262A4606FA01F120460E4B16
S21408157098473046F2E705F0605200F01F01012652
S21408158005EA06030093C5F38003B2F1605F14BF53
S2140815900022012206FA01F12046044CA0473046F4
S2140815A0DCE700BFBD130800FB1308002D14080075
S2140815B070B582B005460E46144602F0F043B3F105
S2140815C0205F27D011D8B3F1006F16D0B3F1805F33
S2140815D011D10A464FF08051194B984714F0010F65
S2140815E014BF6E662E66012012E0B3F1405F15D078
S2140815F0B3F1605F12D000200AE00A464FF000619F
S2140816000F4B984714F0010F14BF6E662E66012024
S21408161002B070BD0B4B98470120F9E704F0605202
S21408162004F001030093C4F38003B2F1605F14BFB3
S2140816300022012231462846034CA0470120E7E74E
S214081640BD130800FB1308002D1408002DE9F0410F
S214081650044688460E4B9847054620460D4B984745
S214081660054013D00C4C04F1600603E0B4420DD0DC
S21408167010345DB120684045F8D161682942F5D03C
S214081680E3689847636825EA0305EFE7BDE8F08155
S21408169085140800891408006C0F0720F8B5184C44
S2140816A02668062E29D84FF0000C6446154F04E02D
S2140816B00134E4B2A446A64209D3A64625017D59BC
S2140816C08D42F5D107EB04156D689542F0D10D4DA6
S2140816D04FEA0E1E05EB0E0445F80E106260A36076
S2140816E00699E1600136664504BF05490E60114655
S2140816F01A46054B98470020F8BD0120F8BD00BFE4
S214081700DC0F07206C0F07205314080008B50B21C0
S2140817100148024B984708BD000E0E404D160800BB
S21408172008B50C210148024B984708BD00100E402A
S2140817304D16080008B50D210148024B984708BD0C
S21408174000120E404D16080008B50E210148024B3F
S214081750984708BD00140E404D160800174A136B2C
S21408176023F0700318431063936E13F0080F0AD122
S2140817704FF4006311498A6E12F0080F03D1013B3B
S214081780F9D1012070470D4A136B23F0030343F089
S21408179002031363936E13F0080F0AD14FF4006325
S2140817A006498A6E12F0080F05D1013BF9D10120CF
S2140817B07047002070470020704700BF00060E40A4
S2140817C0C8B9114A136A090289B223F45C1323F0D4
S2140817D0030343F45C1343F001030B431362936E55
S2140817E013F0010FFBD0084A136A43F09B7343F4C7
S2140817F080331362704704490B6A044A1A40044B44
S21408180013430B62704700BF00060E40FCFFC8FE7D
S21408181002003701024B986E00F48030704700BF14
S21408182000060E404FF00052014B9A62704700BF08
S21408183000060E40024B986E00F00200704700BF8C
S21408184000060E402C281ED81F280CD8114B9A6963
S21408185001238340934318D0012303FA00F00D4B6D
S21408186018610020704720380A4BD3F80821012356
S214081870834093430BD0012303FA00F0054BC3F8CB
S21408188000010020704701207047002070470020A4
S214081890704700BF00060E40FEE7000008B51C4B68
S2140818A01C4A9A4210D01C4B194A9A420CD2013B49
S2140818B09B1A23F0030304331344164951F8040B08
S2140818C042F8040B9A42F9D1144B154A9A420AD2A6
S2140818D0013B9B1A23F0030304331344002142F808
S2140818E0041B9342FBD10F4B23F0604222F07F0289
S2140818F00D498A6003F16043B3F5801F03D28B68F5
S21408190043F000538B60094B9847094B9847FEE70E
S2140819100000072094690800400F0720C414072019
S214081920400F07200000080000ED00E08D1A0800B0
S214081930F51108003D4B1B6B03F00303032B0ED871
S214081940DFE803F0021C3838394B5B6913F0800F68
S21408195014BF4FF400424FF4FA42364B1A60334B2A
S2140819601B6B03F07003702B57D0304B1A6B314942
S214081970C2F302120B68D3400B6070472B4B1B6AEE
S21408198013F0807F03D02C4A2A4B1A60E7E72B4ACD
S214081990284B1A60254B1B6A03F07003102B05D0E2
S2140819A0202BDCD1244A234B1A60D8E7244A214B43
S2140819B01A60D4E71D4B1B6A13F0807F0CD01E4AB2
S2140819C01C4B1A60194B1B6B03F00303022B16D033
S2140819D01C4A184B1A60C2E7184A164B1A60134B73
S2140819E01B6A03F07003102B05D0202BEAD1124A8D
S2140819F0104B1A60E6E7124A0E4B1A60E2E70B4AEB
S214081A00916A926A0B48C1F30A41036801FB0333E3
S214081A10D2B2B3FBF2F30360A1E7064A13680A4999
S214081A20A1FB03135B081360704700BF00060E4057
S214081A30101A0E408C050720001BB70000093D0051
S214081A4000127A00001C4E0EABAAAAAA0A4B1B6804
S214081A5053B1094B1B681A180849914208DB10460F
S214081A60054A106018467047054A034B1A60F0E7A7
S214081A704FF0FF30704700BFE00F0720FC7F0820BC
S214081A80C83407200A22002100F098B970B50F4E16
S214081A900F4D761BB61018BF002405D0013455F834
S214081AA0043B9847A642F9D10A4E0B4D04F05CFF5A
S214081AB0761BB61018BF002406D0013455F8043B30
S214081AC09847A642F9D170BD70BD00BF746908007A
S214081AD0746908007C6908007469080070B4860791
S214081AE046D0541E002A41D0CAB2034602E014F17A
S214081AF0FF343BD303F8012B9D07F8D1032C2ED9CE
S214081B00CDB245EA05250F2C45EA054519D92646DE
S214081B1003F11002103E0F2E42F8105C42F80C5CDF
S214081B2042F8085C42F8045C02F11002F2D8A4F10C
S214081B30100222F00F0204F00F041032032C134494
S214081B400DD91E462246043A032A46F8045BFAD8FC
S214081B50221F22F003020432134404F003042CB1BB
S214081B60C9B21C4403F8011B9C42FBD170BC7047E9
S214081B7014460346C2E700BF0EB40146F0B56FF040
S214081B8000454FF402774FF6FF769CB021AC54F828
S214081B90042B0B4B02910691186802A92346019460
S214081BA0ADF8147004950795ADF8166000F01CF9AA
S214081BB00022029B1A701CB0BDE8F04003B07047C4
S214081BC09005072020F0030110F00300C0F1000084
S214081BD051F8043B00F1040C4FEACC0C6FF00002FD
S214081BE01CBF22FA0CF213434FF0010C4CEA0C2CE3
S214081BF04CEA0C4CA3EB0C0222EA030212EACC12C3
S214081C0004BF51F8043B0430F4D0C2F1000102EAE4
S214081C100102B2FA82F2C2F11F0200EBD20070474C
S214081C20024A012312685C3200F002B890050720C9
S214081C30F0B418B307460D4617F8016B01E0A64244
S214081C4017D015F8014B002CF9D1E6B10C4617F859
S214081C50015B01E0002BF9D014F8013B9D42F9D155
S214081C6055B1002307F8013C064617603046F0BC1D
S214081C70704753B13846DDE72F46F5E71068002869
S214081C80D8D10646F2E71660F0E7176006460370F6
S214081C90ECE700BF2DE9F84FDDF828900F468046A0
S214081CA016461D468A4600E0A2465446484614F89C
S214081CB001BB02F0F9FA5844427812F00802F3D150
S214081CC0BBF12D0F4FD0BBF12B0F04BF94F800B01B
S214081CD00AF102041DB1102D56D0AC4604E0BBF143
S214081CE0300F60D00A25AC46002A0CBF6FF00049BA
S214081CF04FF000490021B9FBFCFE08460CFB1E9A73
S214081D0005E029D001210CFB003014F801BBABF12B
S214081D103003092B05D9ABF14103192B0BD8ABF1CE
S214081D2037039D420FDDB1F1FF3FEED08645E8D27E
S214081D304FF0FF31E9E7ABF16103192B03D8ABF19C
S214081D4057039D42EFDC4B1C13D002B1404246B10C
S214081D50C1B93760BDE8F88F9A45D3DA4FF0FF313E
S214081D60D3E7BDE8F88F94F800B001220AF1020420
S214081D70B0E72223C8F80030EEB1671E4846376041
S214081D80BDE8F88F8146F8E7BBF1300FA5D1237878
S214081D9003F0DF03582BA0D14FF0100C94F801B0D5
S214081DA065460234A0E7237803F0DF03582BF3D008
S214081DB00825AC4698E74846BDE8F88F084B70B546
S214081DC01D68084E6C6B82B0002C08BF344613465C
S214081DD000940A4601462846FFF75CFF02B070BD2D
S214081DE090050720C40907202DE9F04FC3B00C461C
S214081DF00B9192460F930C9002F05AFA0368184615
S214081E001A93FFF7DFFEA3891990190603D52369ED
S214081E10002B01F0358000230DF1C809C84615933C
S214081E201393149318931B93099316931793279356
S214081E302693CDF894909AF800305446EBB1252BAB
S214081E4002D11AE0252B03D014F8013F002BF9D154
S214081E50A4EB0A058DB1269B279A01332A44072B43
S214081E60C8F800A0C8F804502792269300F38A8082
S214081E7008F10808099B2B4409932378002B00F0E7
S214081E80898000234FF0FF301A468DF877301946C0
S214081E900D939B46637804F1010A0A900AF1010A39
S214081EA0A3F12000582800F2B783DFE810F04C03AF
S214081EB0B503B5035403B503B503B503B503B503B6
S214081EC0B50359005903B50366001402B5032F027B
S214081ED0A503A503A503A503A503A503A503A503B5
S214081EE0A503B503B503B503B503B503B503B50335
S214081EF0B503B503B5038B02D302B503D302B50306
S214081F00B503B503B5031B03B503B5032003B50333
S214081F10B503B503B503B5033402B503B5034B02E1
S214081F20B503B503B503B503B503B503B503B503E4
S214081F30B503B50376029E03D302D302D302630326
S214081F409E03B503B5036803B5037503DD018C036B
S214081F505E03B503F201B5038700B503B503320384
S214081F600F9C236818460D932346002803F10403A4
S214081F700F9304DA0D9B5B420D934BF0040B9AF813
S214081F8000308BE725AA0B990C9803F031F840B976
S214081F90C8466FE7279B23B10C9825AA0B9903F030
S214081FA027F80B9B9B8913F0400F099B18BF4FF02F
S214081FB0FF330993099843B0BDE8F08F1BF0200F54
S214081FC0119340F0AF810F9A1BF0100F134640F0A4
S214081FD09A851BF0400F00F096850025012314888B
S214081FE004320F92002217468DF877200A994A1C69
S214081FF000F010822BF08002079254EA050240F0A7
S2140820000F82002940F03184002B40F039851BF000
S21408201001030E9300F06286302342AE06F8413D77
S2140820200A9B0E9A9342B8BF13460893002312934E
S21408203017B1089B01330893079B13F0020310930C
S21408204002D0089B02330893079B13F0840540F0E0
S21408205010830D9B089AA3EB020BBBF1000F40F30D
S2140820600883BBF1100F40F3B287279C43462146EE
S214082070A8461027269A0C9C0B9D06E0ABF1100B81
S214082080BBF1100F03F1080318DD0132AB4810311D
S214082090072A2791269283E88100EFDD25AA29469C
S2140820A0204602F0A5FF00287FF47BAFABF1100BAB
S2140820B0BBF1100F4B462799269AE6DC45460C4698
S2140820C0984601329D4B5C44072A2794269288E856
S2140820D0080800F3C3829DF8777008F1080887B1EE
S2140820E00121269B0C440B440DF17702072B2794FD
S2140820F02693C8F80410C8F8002000F3CD8308F12A
S2140821000808109B7BB10221269B0C4401331EAAAB
S214082110072B27942693C8F80410C8F8002000F365
S214082120118408F10808802D00F004830A9B0E9A93
S2140821309F1A002F37DD102F40F37986804D4246D0
S2140821402146B0464FF0100B2E46269B0C9C0B9D46
S21408215004E0103F102F02F1080215DD013310319C
S214082160072B2791269382E84008F2DD25AA294600
S214082170204602F03DFF00287FF413AF103F102FD3
S2140821804A462799269BE9DC35460C46464690463D
S21408219001333C44072B2794269388E8A00000F3D5
S2140821A0708308F10808079BDF0500F16482269B08
S2140821B00E9901330C44072B2794C8F80060C8F81A
S2140821C00410269300F3B38308F10808079B5B07FF
S2140821D03BD50D9B089A9D1A002D36DD102D40F331
S2140821E021871026269B0C9FDDF82CB004E0103DB6
S2140821F0102D08F1080816DD0133504A1034072B55
S2140822002794269388E84400F1DD25AA59463846DF
S21408221002F0EEFE00287FF4C4AE103D102DC8462E
S214082220279C269BE8DC0133444A2C44072B27943A
S214082230269388E8240008DD25AA0B990C9802F056
S214082240D7FE00287FF4ADAE279C099B0D9A089907
S2140822508A42ACBF9B185B180993002C40F0FB829F
S2140822600023C8462693E6E511931BF0200340F0AA
S21408227045811BF0100240F066841BF0400300F016
S21408228062840F9913460A4604320C8800250F927A
S214082290A8E600250F9A119316688DF87750141D36
S2140822A0002E00F0CD860A9A531C00F01B8629469D
S2140822B0304602F0C7FA002800F00D87831B0A95FF
S2140822C00E930F94CDF81CB023EAE3730893129587
S2140822D09DF87770ACE69AF800300AF101042A2BCC
S2140822E000F0C287A3F130000928A24600F218873A
S2140822F000231C461AF8013B04EB840400EB440454
S214082300A3F130000928F5D90A94C9E54BF0800BEB
S2140823109AF80030C2E54BF0100B1BF0200F119313
S2140823203FF451AE0F9C073424F0070303F108026C
S214082330D3E900450F92012354E600BF286708003A
S214082340386708001193002A40F0AD87BE4B1BF093
S214082350200F189340F0E7800F9A1BF0100F1346D3
S21408236040F0D8831BF0400F00F0D48300250433D8
S21408237014880F931BF0010F00F0E38054EA05035E
S21408238000F0DF8030239DF844208DF878308DF8F3
S21408239079204BF0020B022324E601221193002336
S2140823A011460F98089202681F468DF877300A93F0
S2140823B01293031DCDF81CB00E918DF8A0200F9334
S2140823C028AE39E61193002A40F084874BF0100BAC
S2140823D01BF0200F40F075840F9A1BF0100F134661
S2140823E040F09D831BF0400F00F09983B2F900403F
S2140823F00433E5170F9322462B46002A73F1000391
S214082400C0F298830A999DF877704A1C4FF001032A
S2140824107FF4F0AD54EA050200F02982CDF81CB02E
S214082420012B00F00E83022B40F09C824E46189833
S214082430230943EA0573290904F00F020D461C46D2
S214082440835C06F8013D54EA0503F1D1A9EB0603BF
S2140824500E93E5E51193002A40F038870F9C1BF091
S214082460080F04F1070400F0CF8424F0070303F1F3
S21408247008020F921A685B6815921493149B159DB0
S21408248023F00044284621464FF0FF326F4B03F0F6
S2140824906DFE002840F03484284621464FF0FF326F
S2140824A06A4B03F045FE002840F02A8415A80DC89C
S2140824B0149903F033FE002840F0D4859DF8777011
S2140824C003231A4608930023614E19460A93614B64
S2140824D00E92119A2BF0800007901291472AD8BFC7
S2140824E01E46A5E54BF0080B9AF80030D6E44BF0EC
S2140824F0100B11931BF020033FF4BBAE0F9C073460
S21408250024F0070303F10802D3E900450F920023DD
S21408251068E51193002A40F0C2864F4B1BF0200F47
S21408252018933FF419AF0F9C1BF0010F04F1070432
S21408253024F0070303F108020F92D3E900457FF45D
S2140825401DAF02234EE59AF8003000297FF4A6ACAA
S21408255001222021A2E44BF0010B9AF800309DE4FA
S2140825609AF8003001222B2198E44BF0200B9AF8B9
S214082570003093E44BF0400B9AF800308EE49AF85B
S21408258000306C2B03BF9AF801304BF0200B0AF191
S214082590010A4BF0100B81E4002A40F07C861BF001
S2140825A0200F40F052841BF0100F40F038841BF0C8
S2140825B0400F00F034840F9A136804320F92BDF867
S2140825C024201A8037E4782330220F988DF8793043
S2140825D01193031D0F93204B046818934BF0020BBE
S2140825E08DF8782000250223FCE41193002A3FF496
S2140825F0EFAE8DF87710EBE600200446A3F1300026
S2140826001AF8013B04EB840400EB4404A3F1300001
S2140826100928F5D90D9443E41193002A40F04A8618
S214082620119A002A3FF4B6AC002301211F460891F0
S2140826308DF8A020CDF81CB08DF877300A93129349
S2140826400E9128AEF8E400BFF4660800FFFFEF7F9F
S214082650E8660800E46608000867080025AA0B99DB
S2140826600C9802F0C5FC00287FF49BACC8469DF881
S2140826707770279C33E5119B652B40F39A8015A845
S2140826800DC8149903F040FD002800F0938101213D
S214082690269BB54A0B440C44072B27942693C8F868
S2140826A00410C8F8002000F3C68308F108081F9B2A
S2140826B0139A279C934203DB079BDD077FF586ADBD
S2140826C0269B199901331A9A0C44072BC8F8002040
S2140826D0C8F804102794269300F3C48308F1080862
S2140826E0139B5E1E002E7FF771AD102E40F3758586
S2140826F022461027269B9D4DDDF830B00B9C05E042
S21408270008F10808103E102E40F3258201331032D7
S214082710072B2792269388E8A000F1DD25AA2146F4
S214082720584602F065FC00287FF43BACC846279A5A
S214082730269BE7E70D9B089A9F1A002F7FF7F6ACB3
S214082740102F40F3A884894D42462146B0464FF0E4
S214082750100B2E46269B0C9C0B9D04E0103F102F5A
S21408276002F1080215DD01331031072B2791269355
S21408277082E84008F2DD25AA2946204602F038FC01
S21408278000287FF40EAC103F102F4A462799269B48
S214082790E9DC35460C464646904601333C44072B52
S2140827A02794269388E8A00000F39E8208F108087C
S2140827B0BCE4139B012B40F34F820123269F1C4445
S2140827C01F44072F2794C8F800602697C8F80430D7
S2140827D000F35F8208F10808199A01371A9B144417
S2140827E0072F27942697C8F80030C8F8042000F367
S2140827F05C8208F1080815A80DC8149903F084FC33
S214082800139B002840F04181013B013701361C44E8
S214082810072FC8F8006026972794C8F8043000F3F6
S214082820668108F108081B9A0137144421AB072F64
S21408283027942697C8F80420C8F800307FF7C4AC59
S21408284025AA0B990C9802F0D3FB00287FF4A9ABB5
S214082850C846279CBAE425AA0B990C9802F0C8FB30
S21408286000283FF4FDACFFF79CBBDDF81CB0012B3D
S21408287000F07E81022B71D1CDF81CB00024002513
S214082880D4E525AA0B990C9802F0B2FB00287FF431
S21408289088ABC846279C86E425AA0B990C9802F0B4
S2140828A0A7FB00287FF47DABC846279C29E40120B7
S2140828B0269B2D4A03440444072B27942693C8F8DE
S2140828C00400C8F8002040F3D88225AA0B990C9873
S2140828D002F08EFB00287FF464ABC8461F99279C3D
S2140828E029B9139B1BB9079BD8077FF56FAC1998B6
S2140828F0269B0246013322441A9C072B2792C8F8C7
S2140829000040C8F80400269300F3318408F108084C
S2140829100029C0F20984139901338C18072B2794D1
S2140829202693C8F80060C8F804107FF74DAC25AAAF
S2140829300B990C9802F05CFB00287FF432AB279CBE
S214082940C84643E425AA0B990C9802F051FB0028C8
S2140829507FF427ABC846279CFFF7E5BB0024002575
S214082960CDF81CB0494604E024670800386708001C
S2140829703146E20842EA4572E80804F007030546CD
S2140829801446303354EA050201F8013C01F1FF36DB
S214082990EED1079AD2077FF559AD302B3FF456ADE6
S2140829A03023023906F8013CA9EB01030E930E46C4
S2140829B0FFF736BB1F9900297FF779AF129B139A4A
S2140829C09342A8BF1346002B1F460BDD269B3C44AC
S2140829D00133072B279488E8C000269300F3FB8270
S2140829E008F10808129B002FA8BFDB1B002B1F4608
S2140829F040F3D780102B40F33484BA4D4246214624
S214082A00B0464FF0100B2E46269B0C9C0B9D04E000
S214082A100832103F102F40F3B58001331031072BD2
S214082A202791269382E84008F2DD25AA2946204603
S214082A3002F0DEFA00287FF4B4AA4A462799269BB5
S214082A40E7E7002D08BF0A2CC0F090804E462046C7
S214082A5029460A22002303F0C7FB303206F8012D68
S214082A602046294600230A2203F0BEFB04460D46EC
S214082A7054EA0503EBD1A9EB06030E93FFF7D0BA89
S214082A800A9B4E460E93FFF7CBBA5E1E002E7FF7C4
S214082A90CAAE102E40F3E38322464FF0100B914D3A
S214082AA00C9C04E0103E102E08F1080815DD0137CE
S214082AB01032072F2792269788E82008F2DD25AAE5
S214082AC00B99204602F094FA00287FF46AAA103E72
S214082AD0102EC846279A269FE9DC14460137344448
S214082AE0072F2794269788E860007FF79AAE25AACE
S214082AF00B990C9802F07CFA00287FF452AA279CBF
S214082B00269FC8468FE604321C68002501230F92CC
S214082B10FFF768BA1C6804330F9300252AE41C687C
S214082B200433E51722460F932B46002A73F1000359
S214082B30BFF668AC2D27644265EB45058DF87770BF
S214082B400123FFF753BA0F9900250A4604320C688A
S214082B500F92FFF747BA144601333444072B2794DD
S214082B60269388E860007FF72FABE0E6DDF81CB018
S214082B70012342AE3034CDF81CB006F8414D0E9312
S214082B80FFF74EBA35460C464646904601333C4457
S214082B90072B2794269388E8A00000F3468208F1BE
S214082BA008081F9A139B9A4245DB079BD90742D40D
S214082BB0139B12989A1A1D1A9542A8BF1546002DFF
S214082BC00EDD2699064401312C440729C8F8006012
S214082BD02794C8F80450269100F3168208F10808CE
S214082BE0002DB4BF1646561B002E7FF7EFAA102EF0
S214082BF040F3F38222461027269B3A4DDDF830B084
S214082C000B9C04E008F10808103E102EA3DD0133E3
S214082C101032072B2792269388E8A000F2DD25AA13
S214082C202146584602F0E4F900287FF4BAA9C846B7
S214082C30279A269BE8E7269B199801331A99044495
S214082C40072B2794C8F80010C8F80400269300F34A
S214082C50CF8108F10808ABE7079BDA073FF5ADAD6B
S214082C600123269F1C441F44072F2794C8F800609A
S214082C702697C8F804307FF7D4AD25AA0B990C9888
S214082C8002F0B6F900287FF48CA9C846279C269F30
S214082C90C9E525AA0B990C9802F0AAF900287FF432
S214082CA080A9C846279C269F96E525AA0B990C98C6
S214082CB002F09EF900287FF474A9C846279C269F30
S214082CC099E50F9C073424F0070404F10801D4E9B9
S214082CD000230F9114461D46FFF78FBB4E46FFF79D
S214082CE09FB900BF3867080025AA0B990C9802F010
S214082CF07FF900287FF455A9C846279CFFF716BA1F
S214082D00159C22462046149C2346214603F02EFA9C
S214082D10002840F073820A9B0133119B23F020039E
S214082D200E9300F09C81472B00F0D6804BF48073FE
S214082D300793149B1F1E159B0893B7BF3B4600239B
S214082D4003F100472D231093119B662B00F090810A
S214082D50462B00F0A48002200E9B23A9452B0ABF11
S214082D600A9B0A9D5D1C8DE82100049120A81FA9D6
S214082D703B460390089A02910C9800F059FB119B69
S214082D800646672B40F0BA811BF0010F00F023823D
S214082D907419169A0898179B394603F0B5F900284F
S214082DA040F02481239BA34206D230215A1C23924A
S214082DB01970239B9C42F9D89B1B13930E9B472B99
S214082DC000F0A280119B652B40F3A781119B662B10
S214082DD01F9B129300F07181139B129A1946914219
S214082DE000F35D811BF0010F40F0F08122EAE273E8
S214082DF0089367230E921193109B002B7DD10A939C
S214082E009DF87770FFF714B924F007042368159324
S214082E106368149304F108030F93FFF72FBB0F9A08
S214082E20136804320F92099A1A60FFF704B8269BB3
S214082E30AF4DFFF7ADB925AA0B990C9802F0D8F854
S214082E4000287FF4AEA8C84631E40F9A1346043328
S214082E500F93099B1168DD171A462B46C1E9002314
S214082E60FEF7E9BF25AA0B990C9802F0C1F80028CE
S214082E707FF497A8C846279C32E408F108082FE58F
S214082E8040210C9801F026FA0B9A10601061002871
S214082E9000F0148240230B9A5361FEF7BCBF032050
S214082EA00A9C23A98DE81100049120A81FA9039065
S214082EB0089A3B4602910C9800F0BAFA2546064650
S214082EC0119B7419462B7FF464AF3378302B00F0CF
S214082ED087811F9D2C445CE70A9B002B08BF0123B3
S214082EE00A9323E730460A95FEF76CFE0F940E9079
S214082EF0CDF81CB00346FFF7E7B92D2700238DF859
S214082F0077700A93FFF795B81F9B1A4612930333F8
S214082F1004DB0A9B19469142BFF65EAF119B023B43
S214082F201193129B9DF84420013B002B8DF88420BA
S214082F30B4BF2D222B221F93B8BF129B8DF8852075
S214082F40B8BFC3F10103092B40F31F810DF19300AD
S214082F500146684C00E0114684FB0352DD17C5EBBA
S214082F60A20505EB8502A3EB42023032092D01F8D3
S214082F70012C2B4601F1FF32EDDC30330239DCB28E
S214082F80884202F8014C40F292810DF18601134600
S214082F9001E013F8014B834201F8014BF9D10133E4
S214082FA09B1A0DF18602134421AA9B1A139A1B93A7
S214082FB0012A13440E9340F348810E9B199A134432
S214082FC00E9323EAE37308930023129314E7279CCF
S214082FD0269AFFF776B825AA0B990C9802F008F8F7
S214082FE000287EF4DEAFC846279CFBE42346E3E6CB
S214082FF025AA0B990C9801F0FBFF00287EF4D1AFA8
S214083000C8461F9A279CD3E525AA0B990C9801F069
S214083010EFFF00287EF4C5AF1F9A139BC846279C6F
S2140830209A1ADDE5269BFFF7FEB825AA0B990C9899
S21408303001F0DEFF00287EF4B4AFC846279CB0E552
S2140830400A9B3746062B28BF06230A96129608932D
S2140830500F94CDF81CB00E93274EFEF7E9BF062353
S2140830600A9363E62D231F468DF87730FFF728BAB4
S21408307003200A9C23A98DE81100049120A81FA903
S2140830800390089A3B4602910C9800F0D1F9254621
S2140830900646041919E7269B154DFFF77EBB199AB5
S2140830A0139B1344129A0E93002A40F3C78023EA10
S2140830B0E3730893672311939EE6002B40F3E180A1
S2140830C00A9A002A40F0B0801BF0010F40F0AC804E
S2140830D008930E9390E60A9B0F9408930E930A9013
S2140830E0CDF81CB012909DF87770FEF7A1BF00BF10
S2140830F038670800676666661C670800119B472BDA
S2140831007FF446AE1BF0010F7FF4DAAE239B9B1BC1
S21408311013930E9B472B3FF4F7AE1F9B129300E7C3
S21408312000200A90FEF7BCBE4F42103135DA102454
S2140831306A4DDDF830B004E008F10808103F102F9B
S2140831402CDD01331032072B27922693C8F800503F
S214083150C8F80440F0DD25AA0B99584601F048FF48
S21408316000287EF41EAFC846279A269BE6E725AABF
S2140831700B990C9801F03CFF00287EF412AFC84665
S2140831801F99279A269BFFF7C3BB302213448DF856
S21408319087308DF8862022AB06E7504D01333A4437
S2140831A0072B88E8A0002792269308F108087FF7DF
S2140831B0B2AB25AA0B990C9801F01AFF00287EF4EA
S2140831C0F0AEC846279A269BFFF7A5BB129B199A0E
S2140831D013440E936BE7239BEEE5269B3F4DBBE41B
S2140831E0169A0898179B394602F08EFF00287FF437
S2140831F070AEC5F101051F952C44CAE5149B384EE0
S214083200002BBEBF2D231F468DF877304FF00303E3
S2140832101A4608934FF00003A8BF9DF87770194622
S2140832200A93304BFFF754B9129B199A13440A9A1B
S2140832301A4422EAE2730E920893DDE5129B0E9A70
S214083240C3F101031A441346C3E71BF001031293A4
S2140832507FF4B3AE0E9B23EAE3730893CCE51F4DC9
S2140832603CE4269B1D4D91E40F9D9AF80130286892
S214083270A24640EAE0700A90284604300F90FEF70F
S2140832800DBE0A9B13B91BF0010F02D0199B013320
S214083290CDE701231CE78DF87710FFF780B98DF886
S2140832A07710FFF73AB98DF87710FFF74FB80DF19A
S2140832B0860379E68DF87710FFF7B2B94FF0FF323C
S2140832C00C2309920C9A1360FEF774BE8DF87710DB
S2140832D0FFF7C4B88DF87710FFF778B83867080096
S2140832E0F0660800EC660800024B13B1024800F0CE
S2140832F005B8704700000000754208000023014624
S2140833001A46184601F0FEBE2DE9F04F03690F690C
S21408331083B09F4200F38880013F01F1140600F154
S214083320140A56F827305AF827200133B2FBF3F868
S214083330BB00009306EB030953440193B8F1000F52
S2140833403BD00023B4461C46D6465CF8042BDEF871
S21408335000501FFA82FB08FB0B33120C4FEA134B84
S21408336008FB02BB9AB2A21AABB21FFA8BF41A4435
S214083370C4EB154404EB224492B242EA0442E14507
S2140833804EF8042B4FEA24444FEA1B43DDD2009B39
S2140833905AF803308BB9019C231F9A450CD254F86F
S2140833A0043C4BB9A4F1080302E01A68043B1AB9B6
S2140833B09A4507F1FF37F8D30761044601F008FD80
S2140833C000282DDB5546002308F1010856F8041B93
S2140833D028688AB29A1A0B0C81B20A44C3EB1043C7
S2140833E003EB224392B242EA0342B14545F8042B66
S2140833F04FEA2343EAD25AF827200AEB87037AB91A
S2140834001A1F92450BD253F8042C42B9083B02E027
S2140834101A68043B1AB99A4507F1FF37F8D32761AB
S214083420404603B0BDE8F08F002003B0BDE8F08F3B
S2140834302DE9F04F056C9BB0044692469B46279EA6
S2140834404DB10123426C29469340AB606A6001F097
S214083450E7FA00232364BBF1000F5D4635DB002343
S21408346033609D4BAB4315D0002200235046594687
S21408347002F04AFE804600282DD00123269A1360C3
S214083480289B002B00F0BD809448186001381BB0BC
S214083490BDE8F08F42F20F73269A1360BAF1000F58
S2140834A00DD1C5F3130555B9289B8D48002BEED0D2
S2140834B000F10803289A13601BB0BDE8F08F289B1C
S2140834C08848002BE3D0C31CF4E701232BF0004503
S2140834D03360AB46C5E718AA19AB0192009352466B
S2140834E05B46204601F01EFD2B0D814671D05046E6
S2140834F0CBF3130242F07F51189FA3F2FF36CDF8A4
S214083500508041F440110022774B02F0E1F96CA399
S214083510D3E9002302F090FB6BA3D3E9002302F063
S214083520D9F9CDE90201304602F020FB68A3D3E9B9
S214083530002302F081FB02460B46DDE9020102F099
S214083540C9F9CDE9040102F027FE00220290002303
S214083550DDE9040102F0E2FD002840F06D81029DDD
S214083560162D00F257816149524601EBC5015B46AC
S214083570D1E9000102F0F0FD002800F0BE816B1EC4
S214083580029300230E93BF1B7B1E089300F14E8107
S21408359000230A93029B002BC0F23F81089A0D93E2
S2140835A011461944002308910C93249B092B2AD80A
S2140835B0052B40F358860025043B2493249B023BA6
S2140835C0032B00F23F86DFE813F0CE03C302D903CD
S2140835D05B04189F199E3E4406F23243202B40F3A4
S2140835E08781C3F1400306F212409D402AFA00F094
S2140835F0284302F0ABFA0123013E1493A1F1F871B7
S21408360081E73B4843E7002120466164259101F0A5
S214083610E1F94FF0FF3307930F930123259A04909F
S214083620206424920B93199B002BC0F2D380029A35
S2140836300E2A00F3CF802D4B03EBC203D3E90023F9
S214083640CDE90823259B002BC0F2B483DDE9085694
S21408365050462A463346594602F018FC02F09CFDAE
S214083660804602F083FA2A46334602F0E5FA024616
S2140836700B465046594602F02BF9079E049F08F160
S2140836803005012E3D7002460B4607F1010564D051
S2140836900022184B02F0D0FA0022002306460F46F6
S2140836A002F032FD002840F08280CDF828904FF0D6
S2140836B0000ADDE908894FF0000B0B9429E000BFEB
S2140836C061436F63A787D23FB3C8608B288AC63F1B
S2140836D0FB799F501344D33F0000F07F256708000E
S2140836E048670800546708000000F83F906708001D
S2140836F024670800000024400022814B02F09CFA50
S21408370052465B4606460F4602F0FEFC002840F08E
S214083710BA8342464B463046394602F0B7FB02F0BB
S2140837203BFD044602F022FA42464B4602F084FA73
S21408373002460B463046394602F0CAF804F130060F
S21408374005F8016B049E079FAE1BBE4202460B4659
S214083750D2D1A046DDF828900B9C1046194602F0F8
S214083760B9F806460F4602460B46DDE9080102F0A0
S214083770D5FC48B9DDE9080132463B4602F0C4FCF0
S214083780A8B118F0010F12D015F8018C6B1E049A18
S21408379004E09A4200F0028413F8018DB8F1390F5C
S2140837A003F10105F5D008F1010883F800804946C1
S2140837B0204601F035F90022029B2A70269A01332A
S2140837C01360289B002B00F09F8304981D601BB095
S2140837D0BDE8F08F0B9A002A3ED0249A012A40F3BF
S2140837E01183079B0C9A5F1EBA42C0F29083D71BC0
S2140837F0079B002BC0F28C840A9D079B0A9A01211E
S2140838001A440A92089A20461A44089201F0A4F923
S214083810064623E001230E93B5E600230A9A0D9385
S214083820029BD21A5B420A920C93BEE6C7F10103CA
S2140838300A9300230893ADE6029D284602F096F9FF
S21408384002460B46DDE9040102F05EFC00287FF420
S21408385086AE6B1E029382E60AADE0CD002D0CDD27
S214083860089900290B4608DDA942A8BF2B460A9AE4
S214083870ED1AD21ACB1A0A9208930C9BD3B10B9B5B
S214083880002B00F0B882002F10DD31463A4620465D
S21408389001F0FEF94A4601460646204601F066F95A
S2140838A0034649462046994601F0BAF80C9BDA1BAF
S2140838B040F0A2820121204601F04EF90D9B804679
S2140838C0002B1FDD01461A46204601F0E1F9249B2D
S2140838D08046012B40F3558200230C93D8F810300D
S2140838E008EB8303186901F0E7F8C0F1200013E03D
S2140838F0C3F120050AFA05F07BE60E9043E600BF02
S21408390000002440249B012B40F3858200230C935F
S2140839100D9B0120002BE1D1089A104410F01F00DF
S21408392000F0A180C0F12003042B40F386840A9B94
S214083930C0F11C0003440A93134603440544089345
S2140839400A9B002B05DD49461A46204601F0F0F989
S2140839508146089B002B05DD41461A46204601F0A5
S214083960E7F980460E9B002B40F08680079B002BCD
S21408397040F364820B9B002B00F09880002D05DD39
S21408398031462A46204601F0D3F906460C9B002B02
S21408399040F036830896079B049A013BD3180B938E
S2140839A017460AF00103C246DDF820B00C935146CC
S2140839B04846FFF7A9FC31460546484601F008FA8E
S2140839C05A4607905146204601F01EFAC2688046BD
S2140839D005F13003002A40F02982014648460A933A
S2140839E001F0F6F941460890204601F019F8089AC1
S2140839F00A9B32B9249921B90C9A002A00F0EE8362
S214083A00249A07990029C0F29F8205D1249919B9EA
S214083A100C99002900F09882002A00F305830B9A77
S214083A2007F1010897423B70454600F00B8349466C
S214083A3000230A22204600F0FDFF5E4581463146F7
S214083A404FF000034FF00A02204600F0E98100F02C
S214083A50F1FF5946064600230A22204600F0EAFFF0
S214083A6047468346A3E71C200A9B054403440A935B
S214083A70089B0344089363E74146484601F0A8F9C3
S214083A800028BFF673AF029F494600230A22204645
S214083A90013F029700F0CEFF0B9B8146002B40F0BB
S214083AA0B5830F9B002B40F3BE830793DDF810A069
S214083AB0079F554606E0494600230A22204600F09E
S214083AC0B9FF814641464846FFF71EFC303005F8E8
S214083AD0010BA5EB0A03BB42EDDB049B079A824663
S214083AE0012AACBF9B1801334FF0000B1D46494610
S214083AF00122204601F01CF94146814601F068F98A
S214083B00002840F33F8215F8012C6B1E049904E048
S214083B108B4200F0AE8113F8012D392A03F1010516
S214083B20F6D001321A704146204600F079FF002E82
S214083B303FF43DAEBBF1000F05D0B34503D0594660
S214083B40204600F06DFF3146204600F069FF2EE65D
S214083B5000230B93029B259A13440F930133012BE2
S214083B601F461E46B8BF012707930021172F61641A
S214083B700AD9012204235B0003F114008742114688
S214083B8002F10102F7D26164204600F023FF0E2EF0
S214083B90049020643FF647AD002D3FF444AD0299EB
S214083BA0CDE910AB002940F30382B94B01F00F02B0
S214083BB00D1103EBC203E906D3E9006740F1AF81B4
S214083BC0B44B5046D3E90823594602F05FF94FF044
S214083BD0030ACDE9120105F00F058DB1DFF8B482AE
S214083BE0EA0709D5D8E900233046394602F024F812
S214083BF006460F460AF1010A6D1008F10808EFD1CB
S214083C003B46DDE91201324602F040F9074688468F
S214083C100E9B43B10022A04B3846414602F07EFA7E
S214083C20002840F08782504601F0A0FF3A464346F7
S214083C3002F002F8994B002201F04CFE079B05465D
S214083C40A1F15076002B00F03F81029B1593079B4D
S214083C5012930B9B002B00F0FB81129A8C4B0020D2
S214083C6003EBC20353E902238D4902F00FF92A46F3
S214083C70334601F02DFE82468B463846414602F012
S214083C808BFA054601F072FF02460B463846414657
S214083C9001F01EFE30355FFA85F8049D06460F468D
S214083CA085F8008002460B4650465946013502F014
S214083CB053FA002854D132463B460020764901F094
S214083CC007FE02460B465046594602F045FA0028BB
S214083CD040F07082129A012A00F01281129B049A10
S214083CE0CDF84890134499460FE032463B460020EC
S214083CF0694901F0EDFD52465B4602F00FFA0028CE
S214083D0040F056824D4500F0F9805046594600224C
S214083D10644B01F091FF0022624B82468B46304688
S214083D20394601F089FF0F46064602F035FA804606
S214083D3001F01CFF02460B463046394601F0C8FD26
S214083D4008F130085FFA88F805F8018B52465B469A
S214083D5006460F4602F0E2F90028C6D0DDF848907D
S214083D60159B029323E500230B93259B002B40F31A
S214083D70DD801F461E460F930793F6E601230B9336
S214083D80F3E7BAF1000F7FF4A7ADCBF31303002BCC
S214083D907FF4BCAD2BF000473F0D3F05002F00F029
S214083DA00D820A9B01330A93089B0133089301236B
S214083DB00C93ADE5079B002B3FF748AC40F02282FA
S214083DC0DDE908010022384B01F036FF52465B4613
S214083DD002F0B8F9DDF81C804646002841D0259B3D
S214083DE0049DDB4302934146204600F019FE002E50
S214083DF03FF4DDACA7E60C9A4946204600F048FF9B
S214083E00814657E5149A002A00F0888103F2334366
S214083E100C9F0A9DF2E4BAF1000F7FF477ADB4E781
S214083E2000F008FE474606468346C0E5014620469B
S214083E30089300F0F5FD0122089BE2E5249B022B7F
S214083E407FF798AD079B002BC9D14146052220462F
S214083E5000F0F0FD01468046484600F0B9FF00280D
S214083E60BDDD3123029A0499013202920B704D1C73
S214083E70B9E73123029A01320292049A137052E685
S214083E8001230B9366E6DDF828900B9C8FE400BFB1
S214083E9090670800686708000000F03F00001C40B4
S214083EA00000E03F0000244000001440504601F0A7
S214083EB05DFE3A46434601F0BFFE0022C14B01F0C4
S214083EC009FD0546A1F1507641460022BE4B38460C
S214083ED001F0FEFC2A46334682468B4602F03CF941
S214083EE08046002840F010812A4606F100435046D6
S214083EF0594602F013F918B1464670E7DDF84890BF
S214083F00DDE910ABFFF78FBB0498FFF7C0BA0C9B30
S214083F100D9AFB1A1A440C970D92002768E4DDE9FF
S214083F2010234FF0020ACDE9122356E6002101239A
S214083F3020466164259300F04DFD259B0490079369
S214083F40259B20640F9327E6002AD046CDF820B09C
S214083F509A4611DD49460122204600F0E9FE414610
S214083F60814600F035FF002840F34581BAF1390F45
S214083F7000F0058105F1310AB34687F800A07D1CDC
S214083F80089ED0E504D11AF0010F01D0BBE515460E
S214083F9015F8013C6A1E302BF9D0C4E53022049986
S214083FA00A70029A15F8018C01320292FFF7FBBBE1
S214083FB000F0BB80DDE91001029B4FF0020A5D426B
S214083FC0824B05F00F0203EBC203D3E9002301F08E
S214083FD033FE2D11074688463FF41AAE7C4EEB0793
S214083FE009D5D6E900233846414601F025FE07469E
S214083FF088460AF1010A6D1006F10806EFD107E6B1
S2140840007168204600F0E6FC0546336906F10C01A7
S21408401002339A000C3000F05BFC29460122204649
S21408402000F086FE0890B6E4392BCDF820B0D046CE
S21408403000F0A58003F1010AB34687F800A07D1CAE
S214084040089E70E55A46D046B3469A4616464EE54A
S21408405012985E492A4601EBC001334651E902012F
S21408406001F0EAFDCDE916013846414602F094F81B
S214084070054601F07BFD02460B463846414601F0F0
S21408408027FC06461298049A3035012815700F4604
S21408409002F1010526D0129B049ACDF848901344E5
S2140840A04FF0000A9946DFF830B152465B46304674
S2140840B0394601F0C1FD0F46064602F06DF8804607
S2140840C001F054FD02460B463046394601F000FC26
S2140840D008F1300805F8018B4D4506460F46E4D131
S2140840E0DDF848900022DDE916013A4B01F0F2FBB4
S2140840F032463B4602F012F8002846D0159B02933B
S21408410015F8018CFFF742BB4FF000084646A8E6B4
S2140841100A9B079A9D1A0023FFF770BB189B0C9FF3
S214084120C3F136030A9DFFF769BBDDE910784FF047
S214084130020A6DE5079B002B3FF4B8AE0F9B002BD9
S2140841407FF7DEAE0022244B3846414601F074FD68
S214084150074688460AF1010001F008FD3A4643463C
S21408416001F06AFD0022174B01F0B4FB029A0F9B80
S214084170013A05461592A1F15076129369E539225F
S214084180B3463A70089E7D1CBFE4DDE9162300207E
S214084190104901F09DFB32463B4601F0DDFF08B9A9
S2140841A0AEE6154615F8013C6A1E302BF9D0D7E561
S2140841B0DDF84890159B0293FFF7E8BA0C97FFF7CF
S2140841C0A7BB00BF00001C40000014409067080012
S2140841D0686708000000E03F00002440392BCDF84F
S2140841E020B0D046DDF81CB09A46C8D0BBF1000F08
S2140841F03FF7C0AEC0E67FF4BFAE1AF0010F3FF43B
S214084200BBAEB3E64FF000084646E8E53146002365
S2140842100A22204600F00EFC0F9B0646002B07DD00
S2140842200793FFF7ABBB249B022B1FDC0F9B3CE4DA
S214084230249B022B1ADC0F9BF2E73FF481ABC0F1FC
S2140842403C0011E4002520466564294600F0C2FBC0
S2140842504FF0FF3307930F930123049025952064AE
S2140842600B93FFF7E0B90125FFF7A8B90F9B079353
S214084270E8E500BF38B50A4C0A4D641BA4100AD0FE
S21408428004F18043013B05EB8305013C55F80439EE
S2140842909847002CF9D1BDE8384002F06FBB00BF44
S2140842A08C69080088690800D0F8EC00704700BFE1
S2140842B0044A054B1268506B002808BF1846F030B1
S2140842C0704700BF90050720C4090720704700BF45
S2140842D0704700BF2DE9F04F01F10B06162E83B08C
S2140842E0054640F29E8036F0070600F1BD80B142D2
S2140842F000F2BA8000F062FBB6F5FC7FC0F085825B
S214084300730A00F0B880042B00F26C81B30903F13D
S214084310390003F1380EC100B84F39444C680839E3
S214084320A14206D10CE0002A80F2AB80E468A142E4
S21408433006D0636823F003039A1B0F2AF3DD704642
S2140843403C69DFF8CCE2744500F09E81636823F090
S21408435003039A1B0F2A00F38381002AC7F814E088
S214084360C7F810E080F29180B3F5007F80F05481A2
S2140843700122DB0879684FEAA30C134457F8338008
S21408438002FA0CF207EBC30C0A43ACF10801E16031
S214084390C4F808807A6047F83340C8F80C4001240F
S2140843A083109C4094427DD8144206D120F0030026
S2140843B06400144200F10400FAD007EBC009CC46AA
S2140843C08046DCF80C309C4507D15FE1002A80F275
S2140843D06D81DB689C4500F05981596821F003011E
S2140843E08A1B0F2AF2DDDC68D3F808C046F00108FD
S2140843F028461E4442F00105C3F80480CCF80C4059
S214084400C4F808C07E613E61C6F80CE0C6F808E04D
S21408441075605A50009300F0D7FA009B03F1080421
S2140844201EE0102920D800F0C9FA1026182302200A
S214084430724F3B445C68A3F10802944200F02F8157
S2140844406368E16823F0030323445A68A66842F0C9
S2140844500102F16028468E605A6000F0B5FA08340A
S214084460204603B0BDE8F08F00240C2320462B60BE
S21408447003B0BDE8F08F40204FF400714FF03F0EB8
S2140844804AE723445A68E168E0E723445A6828461E
S21408449042F001025A60083400F096FA204603B04B
S2140844A0BDE8F08FBC68636823F00308B04504D302
S2140844B0A8EB06030F2B00F38580DFF85891504BC6
S2140844C0D9F800201B680132334404EB080A00F0D0
S2140844D0548103F580530F3323F47F6B2BF00F0BB7
S2140844E05946284600F072FD411C024600F0FB8043
S2140844F0824500F2F680434B19685944196000F06B
S2140845004C81D9F8000001301BBFA2EB0A0A5144BF
S214084510C9F80020196012F0070100F01481C1F1F3
S2140845200800C1F580510244083102EB0B09C9F3B3
S2140845300B09A1EB0909494628460193009200F0A9
S21408454045FD431C9DE80C0000F04281801A484453
S21408455040F001001968BC424944BA6019605060CE
S21408456017D0B8F10F0F40F2FA804FF0050C6268CA
S214084570A8F10C0020F0070002F0010204EB000E80
S21408458002430F286260CEF804C0CEF808C000F2D6
S21408459016811D4BBC681A68914288BF19601B4B70
S2140845A01A689142626888BF196022F00302964230
S2140845B0A2EB060301D80F2B04DC284600F004FA09
S2140845C000244DE746F0010243F0010326446260EA
S2140845D02846BE600834736000F0F6F9204603B03B
S2140845E0BDE8F08F142B70D9542B00F2A280330B41
S2140845F003F16F0003F16E0EC1008DE6300B072045
S21408460014100720E40F07200C10072010100720AE
S214084610380B0720380F07205A0A042A5BD9142AB1
S21408462000F2AE8002F15C01C9005B3207EB010CB8
S2140846307958ACF1080C8C4500F088804A6822F05E
S2140846400302934273D289688C45F7D1DCF80C30A4
S2140846507A68E360C4F808C09C60CCF80C409EE614
S21408466046F0010C42F001012644C4F804C028466E
S2140846707E613E61C6F80CE0C6F808E07160E2505C
S21408468000F0A2F90834EBE67A6888E608F1010833
S21408469018F0030F0CF1080C7FF493AE2DE0DC68DD
S2140846A0A34208BF02303FF44BAEC9E61C46194485
S2140846B04A68DB6854F8086F42F001024A602846E8
S2140846C0F3609E6000F080F9CAE603F15C0003F12F
S2140846D05B0EC10020E69A0902F13901C90038329A
S2140846E0A4E7BC4254D0BC68626822F003025EE7C6
S2140846F059F80839994540F0868010F0030F00F104
S214084700FF30F5D17B6823EA04037B6064009C4293
S2140847103FF6C8AE002C3FF4C5AE1C4240467FF4B8
S2140847204CAE64001C4200F10400FAD045E68C4604
S2140847308CE7B3F5AA7F15D8F30B03F1780003F1DD
S214084740770EC100E8E54FF48051EEE601217B685C
S214084750921001FA02F21A437A60634679E7012357
S21408476053602AE740F25452934222D8B30C03F11E
S2140847707D0003F17C0EC100CEE503F1100BAFE619
S214084780542A29D81A0B02F16F01C9006E324DE778
S214084790204B196859441960B3E6CAF30B00002881
S2140847A07FF4AFAE08EB0B03BA6843F0010353601F
S2140847B0EFE67F204FF47E714FF07E0EACE504F1F5
S2140847C008012846009300F07FFD009B1968E0E684
S2140847D001204FF00009BDE6B2F5AA7F05D8DA0B2E
S2140847E002F17801C900773220E740F254518A4234
S2140847F005D89A0C02F17D01C9007C3216E74FF401
S2140848007E717E2212E77B6880E7F00806F10803CF
S2140848100EE600BFE40F072082B049B15AB16BB16B
S21408482013780B601278101C18BF012002B070476E
S21408483001A9002AF3D1104602B070476FF00100B4
S214084840F4E700BF830770B4CDB23DD0541E0AB358
S2140848500378AB421FD0431C05E014F1FF3419D38C
S2140848600278AA4217D013F0030F184603F1010383
S214084870F3D1032C11D84CB30378AB420BD00444C5
S214084880431C02E00278AA4205D09C42184603F16F
S2140848900103F7D1002070BC7047090289B229438A
S2140848A041EA0141036806464B40A3F1013222EA79
S2140848B0030313F0803F00F1040003D1043C032CEB
S2140848C0F0D8D8E73046D7E71446D2E72046E2E7DE
S2140848D0844641EA000313F0030349D1403A23D340
S2140848E00B6803604B6843608B688360CB68C36063
S2140848F00B6903614B6943618B698361CB69C3614B
S2140849000B6A03624B6A43628B6A8362CB6AC36232
S2140849100B6B03634B6B43638B6B8363CB6BC3631A
S21408492040304031403ADBD230320BD30B6803605C
S2140849304B6843608B688360CB68C3601030103167
S214084940103AF3D20C3205D351F8043B40F8043B36
S214084950043AF9D2043208D0D2071CBF11F8013B3A
S21408496000F8013B01D30B8803806046704700BF00
S214084970082A13D38B07B1D010F00303AED0C3F1C7
S2140849800403D21ADB071CBF11F8013B00F8013BF1
S214084990A4D331F8023B20F8023B9FE7043AD9D368
S2140849A0013A11F8013B00F8013BF9D20B78037085
S2140849B04B7843708B788370604670470148FFF7E2
S2140849C085BC00BFAC1407200148FFF781BC00BFB8
S2140849D0AC140720C36C70B505460C464BB153F8AB
S2140849E0240080B1026843F8242000230361C360D2
S2140849F070BD2122042100F0E7FBE8640346002886
S214084A00EDD1002070BD012101FA04F6721D28467A
S214084A10920000F0D9FB0028F3D044608660E4E7F3
S214084A2031B1C36C4A6853F82200086043F8221074
S214084A30704700BFF0B50C4605464FF0000E0E69ED
S214084A4083B001F1140738680EF1010E81B202FB3B
S214084A500133010C180C02FB01019BB203EB014366
S214084A60764547F8043B4FEA1143ECDC3BB1A268B5
S214084A70964207DA04EB8602013653612661204621
S214084A8003B0F0BD6168284601310193FFF7A2FF25
S214084A900746226904F10C01023292000C30FFF737
S214084AA017FFEA6C6168019B52F82100206042F803
S214084AB021403C46DEE700BF020C12040346B2B9AA
S214084AC00304102013F07F4F04BF1B02083013F0B6
S214084AD0704F04BF1B01043013F0404F04BF9B0007
S214084AE00230002B02DB5B0003D420207047002036
S214084AF0E8E70130704700BF0368014613F0070275
S214084B0007D0DA0721D4980721D49B080B60022027
S214084B10704798B298B1104613F0FF0F04BF1B0AEF
S214084B2008301A0704BF1B0904309A0704BF9B08FD
S214084B300230DA0707D45B0804D1202070471B0C24
S214084B401020E9E701300B607047002070475B08CB
S214084B500B600120704700BF10B50C460121FFF717
S214084B6039FF01224461026110BD00BF2DE9F04FF4
S214084B700C69156983B0AC428B46164604DA2246A1
S214084B80B3462C460E461546DBF8083004EB0508F7
S214084B90DBF804109845C8BF0131FFF71BFF00F18A
S214084BA0140909EB880AD145009005D24B46002126
S214084BB043F8041B9A45FBD806F1140C0CEB850346
S214084BC00BF1140B9C450BEB840E4BD2CDF804A0CE
S214084BD09A46DCF80050AFB2E7B14D465E46002173
S214084BE056F8042B286893B284B2120C07FB0343CA
S214084BF0000C07FB02020B4402EB13419BB243EA8C
S214084C000143B64545F8043B4FEA1141E8D8296008
S214084C10DCF800502D0C1DD0D9F8003048461C464C
S214084C20594600220E88240C05FB06449BB22244F3
S214084C3043EA024340F8043B51F8043B04681B0C63
S214084C40A6B205FB03638E4503EB12434FEA1342F5
S214084C50E8D803600CF1040CE24509F10409B8D859
S214084C60DDF804A0B8F1000F0BDD5AF8043CAAF1F1
S214084C70040A1BB105E05AF8043D13B9B8F1010857
S214084C80F9D10098C0F8108003B0BDE8F08F00BFD7
S214084C9012F003032DE9F041144607462ED10D46BF
S214084CA0A4101CD0BE6C96B3E3074FF0000806D4D9
S214084CB0641014D03068A8B10646E307F8D5324623
S214084CC029463846FFF752FFB5B16A68FB6C641090
S214084CD053F82210296043F822500546EAD12846A0
S214084CE0BDE8F081324631463846FFF73FFF306070
S214084CF0C0F800800646E0E70546D9E70B4A013BC0
S214084D0052F823200023FFF795FE0546C8E7012141
S214084D103846FFF75FFE40F2712101220023416109
S214084D2002610646B8640360BEE700BF586808001C
S214084D302DE9F8430B69541104EB03088B6808F156
S214084D4001059D420E4691460746496804DD5B000C
S214084D509D4201F10101FADC3846FFF73BFE002CC4
S214084D6000F1140306DD002103EB840243F8041B5C
S214084D709A42FBD1346906F1140119F01F0901EBB8
S214084D80840E1DD00022C9F1200C0C6804FA09F420
S214084D90144343F8044B51F8042B8E4522FA0CF2C0
S214084DA0F3D81A600AB108F10205FB6C7268013D77
S214084DB053F822100561316043F82260BDE8F88395
S214084DC0043B51F8042B8E4543F8042FF9D8ECE73A
S214084DD030B40B6905460069C01A0FD19B0014351C
S214084DE0143119442B4401E09D4207D253F8044D70
S214084DF051F8042D9442F7D002D3012030BC7047F6
S214084E004FF0FF30FAE700BF2DE9F84F0C698946E6
S214084E1011699246641A002C17D1890009F1140703
S214084E2002F114067B18314401E09F4265D253F81C
S214084E30045D51F8042D9542F7D067D24B46BB4621
S214084E40D14637469A46012405E061DB002409F17D
S214084E5014070AF1140BD9F80410FFF7BBFD5D46DA
S214084E604FF00008D9F810E0DAF810303E46C46073
S214084E700BEB830C07EB8E0700F1140456F8049B23
S214084E8055F8042B1FFA89F343441FFA82F8120CCC
S214084E90A3EB0803C2EB194202EB23429BB243EA98
S214084EA00243AC4544F8043B4FEA2248E6D8B742EA
S214084EB017D9A446354655F8043B99B241440A1416
S214084EC002EB134289B241EA0243AF424CF8043B74
S214084ED04FEA2248EFD8F643374427F0030704374B
S214084EE03C44043C2BB954F8043D0EF1FF3E002B1D
S214084EF0F9D0C0F810E0BDE8F88F0021FFF76AFD8A
S214084F000122002302614361BDE8F88FB346A2E799
S214084F104B4609F1140B02F11407914601249A46F0
S214084F2099E700BFF0B5012183B01C46C3F30A55C4
S214084F301646FFF74FFDC4F3130407460DB144F4B5
S214084F408014019406B302A840F8086DFFF7D4FD54
S214084F50002830D19DE80C007A61002B0CBF012197
S214084F600221BB613961D5B9089A07EB8103A0F223
S214084F70324010601869FFF79FFD099BC0EB41108F
S214084F801860384603B0F0BD01A8FFF7B5FD01224A
S214084F90019B114620303A617B61002DE4D0A5F2D2
S214084FA03343089A03441360099BC0F13500186020
S214084FB0384603B0F0BD019BC0F12002009903FA01
S214084FC002F20A43C34001937A61C6E738B5002364
S214084FD0064C054608462360FCF738FD431C00D0FF
S214084FE038BD2368002BFBD02B6038BDC0140720C3
S214084FF02DE9F04F936883B09046002B70D0824618
S2140850000C4617688D68086842E0A38913F4906F09
S2140850102ED06569216905EB4505A0EB010B05EB6C
S214085020D5750BF101006D103044A8422A4684BF9E
S21408503005462A465B0538D511465046FFF74AF915
S21408504000283CD05A4621690190FFF741FCA28906
S214085050019B22F4906242F08002A281A5EB0B022B
S21408506003EB0B006561B346354623612060A260FA
S2140850705A46494600F00EFAD8F80830A268206862
S214085080551B58449E1BA5602060C8F808603EB3B0
S2140850907E683B460837002EFAD0AE42D3F800901A
S2140850A0AB46B2D23546B346E2E7504600F056FA6B
S2140850B003460028D2D12169504600F005F90C2392
S2140850C000224FF0FF30CAF80030A38943F04003AF
S2140850D0A381C8F80820C8F8042003B0BDE8F08FFC
S2140850E00020C8F8040003B0BDE8F08F19B1FF2A05
S2140850F003D80A700121084670478A234FF0FF310B
S2140851000360F8E72DE9F8432C4D064628689846CC
S2140851100F469146FFF7DAF8294B1C68D4F8483151
S214085120002B3ED05A681F2A1CDC02F1010E76B10D
S214085130012103EB8204C4F88890D3F888019140D3
S2140851400843022EC3F88801C4F8088123D0023227
S214085150C3F804E0286843F82270FFF7B9F800207F
S214085160BDE8F883174B0BB34FF4C870AFF3008055
S2140851700346D8B10020D4F848114FF0010E586005
S21408518019600246C4F84831C3F88801C3F88C0190
S214085190002EDCD0CCE7D3F88C010143C3F88C1181
S2140851A0D5E704F5A673C4F84831BBE72868FFF7C7
S2140851B08FF84FF0FF30BDE8F88300BFC00907201E
S2140851C0E06608000000000010B502FB01F1FFF7DA
S2140851D081F80446D8B150F8042C22F00302043AA9
S2140851E0242A18D8132A14D900231B2A03604360DC
S2140851F016D9242A8360C36011BF00F11002036128
S214085200436100F118020023136053609360204640
S21408521010BD0246F7E70021FCF760FC204610BDEB
S21408522000F10802EFE700BFF8B50C46234F064624
S214085230FFF7C4FBBB68C4F57E615D680F3125F0D7
S2140852400305294421F47F6121F00F01A1F580545C
S214085250B4F5805F07DB00213046FFF7B7FEBB6872
S2140852602B44984204D03046FFF7AEFB0020F8BD2A
S21408527061423046FFF7AAFE01300DD0104BBA68DF
S21408528019682D1B45F001053046091B5560196045
S214085290FFF79AFB0120F8BD00213046FFF796FE7F
S2140852A0BA68831A0F2BDEDD064C0549246843F0DE
S2140852B00103001B53600860D5E700BF300B0720CA
S2140852C0E40F0720380F0720002944D02DE9F041C5
S2140852D00D468046FFF772FB55F8047C6949A5F130
S2140852E0080427F00103E2188E685068B24220F0DE
S2140852F003005ED0FE0750600BD455F8087C01F119
S214085300080EE41BA5683B4475456DD0E768EF605A
S214085310BD6015186D68ED073ED543F00102626062
S214085320E350B3F5007F17D20122DB0898104D68CA
S214085330134451F83370824001EBC3002A430838FF
S214085340E060A7604A6041F83340FC604046BDE82C
S214085350F041FFF739BB70475A0A042A52D89A090F
S21408536002F13907FF0002F13805C819CA5908388A
S21408537090424FD0516821F003018B4232D2926896
S2140853809042F7D1C368A060E3609C60C460404662
S214085390BDE8F041FFF718BB95683B4F0344BD4294
S2140853A040D0D06843F00102E86085606260E35050
S2140853B0B7E7FF07034407D455F8085C641BE268A0
S2140853C0A0682B44C2609060304A43F0010012681F
S2140853D0606093428C60B9D32D4B40461968FFF73E
S2140853E023FFB3E71046CDE711184968C90744D428
S2140853F091680344D26843F00100CA609160606017
S214085400E350A3E7142A16D802F15C07FF0002F15E
S2140854105B05AAE70123AA104D6893402B434B600F
S2140854200346B0E743F001024C610C61E560A560F5
S2140854306260E3508AE7542A06D81A0B02F16F070F
S214085440FF0002F16E0590E7B2F5AA7F06D8DA0BE0
S21408545002F17807FF0002F1770586E740F254501C
S214085460824206D89A0C02F17D07FF0002F17C05FD
S2140854707BE74FF47E777E2577E743F0010161608E
S214085480136063E7300B0720380B07203C0F072014
S214085490141007208842F0B50DD98B1898420AD206
S2140854A08418002A51D0224613F8014D994202F872
S2140854B0014DF9D1F0BD0F2A48D941EA00039B07F0
S2140854C046D1154600F1100401F1100353F8106C8C
S2140854D0103D44F8106C53F80C6C0F2D44F80C6C07
S2140854E053F8086C04F1100444F8186C53F8046C6C
S2140854F003F1100344F8146CE8D8A2F1100323F063
S2140855000F0302F00F0E1033BEF1030F19440344C5
S21408551021D90E4674461D1F56F8047B043C032CFE
S21408552045F8047FF8D8AEF1040424F003040434E4
S2140855302144234402F0030262B1013B0A4411F8F5
S214085540014B8A4203F8014FF9D1F0BD0346F3E751
S2140855500346F2E7F0BD7246EEE700BF002900F00A
S21408556094802DE9F04F0C46154683B0804605F129
S2140855700B06FFF723FA54F804EC162E2EF0030752
S214085580A4F108093CD810221646B5423DD89742E1
S21408559043DAC64B09EB07009968884200F0C380D7
S2140855A0436823F0010101444968C9074DD51EF038
S2140855B0010F00F09B8029464046FEF78BFE054605
S2140855C000283BD054F8043CA0F1080223F001035D
S2140855D04B449A4200F02B813A1F242A00F2188185
S2140855E0132A00F2EB8003462246116819605168B8
S2140855F0596092689A6021464046FFF765FE1DE0AE
S21408560026F00706002E3246BFDA00250C23284669
S214085610C8F8003003B0BDE8F08F2546BB1B0F2B3B
S214085620D9F804201DD802F001023A4309EB070115
S214085630C9F804204B6843F001034B604046FFF767
S214085640C3F9284603B0BDE8F08F23F00303F91822
S21408565091421DDBC36882682546D3600F469A6070
S214085660DCE702F0010209EB060143F001033243CE
S214085670C9F804204F444B607B68083143F00103A7
S2140856807B604046FFF720FED8E71146FEF722BEAD
S2140856901EF0010F8FD154F8081CA9EB010ADAF89E
S2140856A0041021F003010B443B44934226DB554685
S2140856B0C16880683A1FC160886055F8080FDAF834
S2140856C00C10242AC160886026D8132A40F28180EC
S2140856D021681B2ACAF808106168CAF80C1000F27C
S2140856E0AD8004F108000AF1100274E054F8083C92
S2140856F0A9EB030ADAF8041021F003017B18934299
S214085700FFF659AF5546DAF80C1055F8080F3A1F49
S214085710242AC1608860D8D9214628461F46D14623
S214085720FFF7B8FE7AE7416806F1100021F0030B90
S214085730BB44834558DA1EF0010F7FF43CAF54F89B
S214085740081CA9EB010ADAF8041021F003018B44BF
S2140857505845D3DC5546DAF80C1055F8080F3A1FAA
S214085760242AC160886000F28D80132A40F2878060
S21408577021681B2ACAF808106168CAF80C1000F2DB
S214085780888004F108010AF1100208681060486869
S214085790506089689160ABEB06020AEB060142F09E
S2140857A0010299604A60DAF80430404603F00103C3
S2140857B01E43CAF80460FFF707F942E723681B2A66
S2140857C003606368436027D800F1080304F1080201
S2140857D00BE720462A4601681F4611604168D146F5
S2140857E051608368936019E7ABEB060B09EB06017B
S2140857F04BF0010299604A6054F8043C404603F0B6
S21408580001031E4344F8046CFFF7DEF8254618E744
S2140858102146FFF73FFEEEE6A368242A8360E36886
S214085820C36018D000F1100304F11002DDE650F84A
S214085830043C254623F003031F44EFE6A168242A08
S214085840CAF81010E168CAF814100DD004F1100058
S2140858500AF11802BFE7226900F1180302616169BC
S21408586004F118024161C0E6226904F11800CAF87A
S214085870182061690AF12002CAF81C10ABE7214615
S2140858802A4682E7214628460193FFF703FE019B36
S21408589081E7A168242ACAF81010E168CAF814102B
S2140858A006D004F110010AF118026EE7300B072043
S2140858B0226904F11801CAF8182060690AF1200262
S2140858C0CAF81C0061E700BF81F0004102E000BF93
