:0200000280007C
:10000000603407207910080075100800751008008A
:100010007510080075100800751008000000000039
:100020000000000000000000000000007510080043
:100030007510080000000000751008007510080019
:10004000751008007510080075100800751008007C
:10005000751008007510080075100800751008006C
:10006000751008007510080000000000E90E080077
:10007000FD0E0800110F0800250F08000000000009
:1000800000000000F5070800751008007510080052
:10009000751008007510080075100800751008002C
:1000A000751008000000000075100800710A0800B3
:1000B000751008007510080075100800751008000C
:1000C00075100800751008007510080075100800FC
:1000D00075100800751008007510080075100800EC
:1000E00075100800751008007510080075100800DC
:1000F0007510080010B5054C237833B9044B13B1C3
:100100000448AFF300800123237010BDF00E0720D8
:1001100000000000AC5E08000C4B43B10C4810B569
:100120000C49AFF300800C48036823B910BD0A489E
:10013000036833B97047094B002BF7D0BDE8104076
:100140001847064B002BF5D0184700BF00000000F1
:10015000AC5E0800F40E0720AC5E08000000000052
:1001600010B489014318022444504FF0FF319962C2
:10017000196A5A6010BC70478901052343507047C3
:1001800000EB81114A61704700EB8111CA61704731
:1001900000EB81114A62704700EB8111086A7047D9
:1001A00010B40B01934214D9C9004B0803EBC202EF
:1001B000B2FBF1F2D3085C1E4FF6FE718C4201D9FE
:1001C000012017E0416841F4002141600CE001206A
:1001D00010E0590801EBC202B2FBF3F2D3085C1E37
:1001E0004FF6FE718C42F2D8120402F4E0221A4358
:1001F0000262002010BC7047084BC0F8E4300023B6
:1002000043604362836288230360242303604FF4C6
:10021000807303604FF4002303607047004153551F
:1002200070B505460C4616460F4B984700220F4BFB
:100230001A60A4B13246216828460D4B9847024601
:1002400078B96368A1680B4321690B43E1680B43EC
:1002500006490B6069680B436B60104670BD012254
:10026000FBE70122F9E700BFF90108000C0F0720A6
:10027000A10108004023036070471023036070470A
:1002800081607047C16070474069704789B110B4A0
:1002900041184FF6FF72094C10F8013B5340DBB296
:1002A00054F8233083EA12228142F5D1104610BC63
:1002B00070474FF6FF721046704700BF38010720A5
:1002C0000FB42DE9F84F0A9BDFF89C80A8FB0328A8
:1002D0004FEAD80808EB880AA3EB4A0A3B251C4CD6
:1002E000DFF888B001E01B48A04728461A4B984722
:1002F0001A48A04728461A4B98475846A047B8F1D5
:10030000000F0FD00026DFF85090164F2846C84740
:100310003846A0472846124B98473846A047013632
:100320004645F3D15846A047BAF1000FDBD000266E
:10033000DFF824900B4F2846C8473846A047284688
:10034000074B98473846A04701365645F3D1CAE7D0
:1003500001000720808D5B00D70C0800001BB70050
:10036000F10C0800804F1200CDCCCCCCC0C62D00C3
:100370000FB4F0B583B00899022900F025816429F3
:1003800006D001291ED09F4B1B680E20984713E012
:100390004FF060513B209C4B98473B209B4B98472C
:1003A00064209B4B984700239A4A137000930222C3
:1003B00099496620994CA047002003B0BDE8F04061
:1003C00004B07047934B1B78062B00F2F78001A214
:1003D00052F823F0F1030800890408002D050800F5
:1003E000B9030800B9030800B9030800B9030800FD
:1003F000099DECB2A4F10803182B35D801A252F8DC
:1004000023F000BFB9030800B9030800B9030800CE
:100410006904080069040800B903080069040800B9
:1004200069040800690408006904080069040800F8
:1004300069040800690408006904080069040800E8
:1004400069040800690408006904080069040800D8
:10045000B903080069040800690408006904080079
:1004600069040800B90308006D496720684FB84760
:10047000684E6C4BB36003F8015C0125F5602146C2
:100480006620B847357097E7099AD1B2A1F1080301
:10049000132B3AD801A050F823F000BFB90308008D
:1004A000B9030800B90308000B0508000B05080094
:1004B000ED0408000B0508000B0508000B050800FB
:1004C0000B0508000B0508000B0508000B050800CC
:1004D0000B0508000B0508000B0508000B050800BC
:1004E0000B0508000B050800B9030800494A91688C
:1004F0004B1C936000230B700221117000930122AA
:1005000045496620454CA04756E7424BDB68FD2B2A
:100510003FF652AF3F4B9868441C9C600270DA680B
:100520000132DA6066203A4B984745E73E4967203A
:10053000374CA0473D4D29466720A0473C496720DE
:10054000A0473C4928463C4B98470646089018B9B6
:100550000022304B1A702FE7384B9847014630463F
:10056000374B984784B22B4B1C82364B1B88B3B158
:100570009C4216D00023334D013335F8331009B1B6
:100580008C42F9D12F4901EBC3035C685CB1304662
:100590002A4B9847234901440020A047D8E700236D
:1005A000F0E70023EEE7284C82B228492046284B8A
:1005B000984721466720164B9847C9E79DF82410B5
:1005C0006620134B9847F7E6099C01340994214BA8
:1005D00053F8243033B114F0010F04D03B200B4BFF
:1005E000984703E000243B201B4B9847194B53F8D6
:1005F000243000932346022207496620074CA04777
:10060000DAE600BF380507202D0D0800F10C0800C0
:100610006D060800C00F0720710308007508080068
:10062000705B0800D50F0720745B0800D40F07200B
:100630007C5B0800805B0800F51308009913080034
:100640008D020800B05B080034130720845B0800AB
:100650004D1308009C5B0800D70C080008B5672004
:10066000014B984708BD00BF6D0608000FB4F8B5F0
:100670000699A1F16403042B00F29A80DFE803F0ED
:1006800045986E230300089D002D62D04B4C4C4EC4
:10069000A6F5807723685A1C2260079A511C07919F
:1006A00012781A70013D08952368B34228BF27606D
:1006B000226863689A4275D002214248424B9847AB
:1006C000002DE7D145E0079D2A462B78002B40D02E
:1006D00001353A4C3A4EA6F580772368591C2160C3
:1006E000079512781A702368B34228BF27602268E2
:1006F00063689A4250D002213248334B98472A46C9
:1007000015F8013B002BE8D123E02C4B2F4A5A600F
:100710001A6011202E4B98472A4C2E4A2E4920460B
:100720002E4B98474FF000610B202D4DA8474FF0FE
:1007300000610A20A84701212046234B98474FF427
:100740000032284B1A602046274B98472046274BFB
:1007500098470020BDE8F84004B07047174B1A686E
:10076000511C1960079911701A68154B9A4203D3EE
:10077000A3F58072114B1A60104B1A685B689A429D
:1007800004D002210F48104B9847E2E7184B1B6832
:10079000662117209847F4E7154B1B68672117203F
:1007A0009847A8E7124B1B6867211720984783E7F3
:1007B0000F4B1B680D209847CBE700BFE4100720C4
:1007C000EC1107200080094081020800EC1007208E
:1007D0002110080000BD0105C05B080021020800CF
:1007E0002D0D080000E100E0750208007B02080002
:1007F0003805072030B583B01748184B9847044692
:1008000010F0010F16D114F0020F11D0144A5368E2
:10081000126893421AD05A1C11494A6019780E4B3B
:10082000D961104B9A4203D3A3F580720C4B5A60E6
:1008300003B030BD084B9B6900220092C3F308034C
:10084000012209496620094DA847DCE70221024838
:10085000074B9847ECE700BF008009408902080079
:10086000E4100720EC110720710308007508080048
:10087000850208000FB4F0B583B00899642924D02C
:1008800017D9662967D0672940F0C880664A53683F
:100890001268934259D01A685868089099681033C2
:1008A000624CA342C0F0A380614C5F4B5C609047F8
:1008B0004BE0012940F0B28002205E4B98470025B2
:1008C00008955D4C2F46662699E0574B584A1A60AA
:1008D0005A60594B03F1A0010022DA6010338B42B9
:1008E000FBD1564B4FF000721A665A655A62C3F834
:1008F0008020196F114319675A601B20504B98478D
:10090000504C514A00212046504B98474FF42472D6
:10091000002120464E4B984740F2CB120021204642
:100920004C4B9847002120464B4B98474B4B4FF080
:100930000062C3F88020C3F88021002183F81B13D4
:100940001A6004222046464B9847002003B0BDE8B9
:10095000F04004B07047434B98470C9D4DB30023C3
:100960000893354BDB68ABB101230893324A002072
:100970001C46D16959B10133103220460A2BF8D1F7
:10098000394B1B680021162098470A2302E070B9F2
:100990000A2BF5D028491B01CA180998C8500A9B90
:1009A00053600B9B9360D560304B9847CDE708931D
:1009B000EEE71D4B1A68099911601B680A9A5A6084
:1009C0000B9A9A601033194A93420CD2164A13605C
:1009D000154B1A685B689A42E6D1234B1B680021CD
:1009E00015209847E0E7124A0F4B1A60F0E70E4CCB
:1009F00063605CE70135089510340A2DA5D0E368E3
:100A0000002BF7D0013BE360002BF3D1A3686268B1
:100A1000216800973046FFF72DFFEBE7124B1B686C
:100A20000B20984791E700BF8C1207208C120720FB
:100A3000EC1107200B0D08009412072000100E4047
:100A4000211008000000084003C0090061010800EF
:100A500089010800810108007901080000E100E037
:100A600091010800510B0800380507208D0B080084
:100A700008B500210348044B98470120034B9847D1
:100A800008BD00BF00000840990108007508080073
:100A900008B572B6BFF35F8F0D4C002323700D4B6A
:100AA00098470D4B984764200C4B984764200C4B9B
:100AB00098470C4967200C4B984701232370BFF3DC
:100AC0005F8F62B66725054C2846A047FCE700BF4C
:100AD0003C050720ED0A0800B90B0800750808005E
:100AE00071030800D85B08006D06080010B50E48B9
:100AF0000E4B98473E2100200D4B98470D4CA047C8
:100B00000028FCD00C4B98470C4A0D4B9A620D4CB8
:100B1000A0470028FCD010200B4B98470B4B984760
:100B20000148024B984710BD00BD0105B1000720E8
:100B30009D0F0800F10F080001100800013F0D2073
:100B400000060E4011100800390F080011110800AE
:100B50000B4B1B682BB9EFF310833BB10022094B01
:100B60001A70074A136801331360704772B6BFF3F7
:100B70005F8F0022044B1A700122024B1A70F0E7BB
:100B8000100F0720140F07203C050720074B1A6899
:100B9000013A1A601B6843B9054B1B782BB101223F
:100BA000044B1A70BFF35F8F62B67047100F0720B7
:100BB000140F07203C05072010B54FF40042164BD8
:100BC0005A600B20154CA0470C20A0470D20A047D1
:100BD0000E20A0474FF060513B20114CA0474FF032
:100BE00060515520A0474FF060515620A0470D4955
:100BF0006820A0470C495C20A0470C4A4FF4407184
:100C00000B480C4B98474FF000612B20A0474FF04A
:100C100000612A20A04710BD501A0E402110080084
:100C20002D0D0800790000280100002801000008AF
:100C3000000E0E40FD0D08004264B1F1805F16D039
:100C40000BD849B1B1F1006F05D1036F016F0B40B3
:100C500023EA0203036742607047B1F1405FFBD0B3
:100C6000B1F1605FF8D0B1F1205FF4D17047036F4C
:100C700013430367EFE7416412F0010F14BF4166AD
:100C8000016612F00A0F14BF0162416212F0020FF6
:100C900007D112F0080F18BFC0F88410416101603D
:100CA0007047C0F88010F9E710B4019C416444B962
:100CB000016643B1016542B941630161016010BC45
:100CC00070474166F5E74165F5E70163F5E7C06CFC
:100CD0007047806C7047430903F5001303F20773F4
:100CE0005B0200F01F00012202FA00F01863704757
:100CF000430903F5001303F207735B0200F01F00C2
:100D0000012202FA00F058637047430903F500130B
:100D100003F207735B02996B00F01F020120904001
:100D2000014214BF586318637047000070B582B069
:100D30000D46430903F5001303F207735C0201F04B
:100D4000F043B3F1205F31D016D8B3F1006F1BD060
:100D5000B3F1805F16D100F01F00012686403246B5
:100D60004FF080512046224B984715F0010F14BFD9
:100D700066662666012017E0B3F1405F21D0B3F12B
:100D8000605F1ED000200FE000F01F0001268640AB
:100D900032464FF000612046154B984715F0010F81
:100DA00014BF66662666012002B070BD00F01F0108
:100DB00001262A4606FA01F120460E4B9847304696
:100DC000F2E705F0605200F01F01012605EA060374
:100DD0000093C5F38003B2F1605F14BF00220122CB
:100DE00006FA01F12046044CA0473046DCE700BF7C
:100DF000390C0800770C0800A90C080070B582B007
:100E000005460E46144602F0F043B3F1205F27D0AA
:100E100011D8B3F1006F16D0B3F1805F11D10A463B
:100E20004FF08051194B984714F0010F14BF6E66B4
:100E30002E66012012E0B3F1405F15D0B3F1605F80
:100E400012D000200AE00A464FF000610F4B98478D
:100E500014F0010F14BF6E662E66012002B070BD43
:100E60000B4B98470120F9E704F0605204F00103AE
:100E70000093C4F38003B2F1605F14BF002201222B
:100E800031462846034CA0470120E7E7390C08000B
:100E9000770C0800A90C08002DE9F04104468846AB
:100EA0000E4B9847054620460D4B9847054013D0FA
:100EB0000C4C04F1600603E0B4420DD010345DB177
:100EC00020684045F8D161682942F5D0E368984729
:100ED000636825EA0305EFE7BDE8F081CF0C080061
:100EE000D30C0800180F072008B50B210148024B4E
:100EF000984708BD000E0E40990E080008B50C2159
:100F00000148024B984708BD00100E40990E08009A
:100F100008B50D210148024B984708BD00120E404C
:100F2000990E080008B50E210148024B984708BDEC
:100F300000140E40990E0800174A136B23F070033B
:100F400018431063936E13F0080F0AD14FF4006337
:100F500011498A6E12F0080F03D1013BF9D101202B
:100F600070470D4A136B23F0030343F0020313632E
:100F7000936E13F0080F0AD14FF4006306498A6E8E
:100F800012F0080F05D1013BF9D101207047002074
:100F900070470020704700BF00060E40C8B9114AD4
:100FA000136A090289B223F45C1323F0030343F4A8
:100FB0005C1343F001030B431362936E13F0010FB4
:100FC000FBD0084A136A43F09B7343F480331362E7
:100FD000704704490B6A044A1A40044B13430B62DE
:100FE000704700BF00060E40FCFFC8FE020037013C
:100FF000024B986E00F48030704700BF00060E4030
:101000004FF00052014B9A62704700BF00060E403D
:10101000024B986E00F00200704700BF00060E40C1
:101020002C281ED81F280CD8114B9A690123834005
:10103000934318D0012303FA00F00D4B18610020F0
:10104000704720380A4BD3F808210123834093438B
:101050000BD0012303FA00F0054BC3F80001002078
:10106000704701207047002070470020704700BF84
:1010700000060E40FEE7000008B51C4B1C4A9A42D1
:1010800010D01C4B194A9A420CD2013B9B1A23F0F8
:10109000030304331344164951F8040B42F8040BBC
:1010A0009A42F9D1144B154A9A420AD2013B9B1A33
:1010B00023F0030304331344002142F8041B93423A
:1010C000FBD10F4B23F0604222F07F020D498A6072
:1010D00003F16043B3F5801F03D28B6843F00053E4
:1010E0008B60094B9847094B9847FEE700000720A3
:1010F000AC5E0800F00E07205C140720F00E0720FD
:101100000000080000ED00E061120800910A0800EC
:101110003D4B1B6B03F00303032B0ED8DFE803F0FA
:10112000021C3838394B5B6913F0800F14BF4FF441
:1011300000424FF4FA42364B1A60334B1B6B03F0FC
:101140007003702B57D0304B1A6B3149C2F3021227
:101150000B68D3400B6070472B4B1B6A13F0807FEA
:1011600003D02C4A2A4B1A60E7E72B4A284B1A6017
:10117000254B1B6A03F07003102B05D0202BDCD10C
:10118000244A234B1A60D8E7244A214B1A60D4E73B
:101190001D4B1B6A13F0807F0CD01E4A1C4B1A603B
:1011A000194B1B6B03F00303022B16D01C4A184B80
:1011B0001A60C2E7184A164B1A60134B1B6A03F0F9
:1011C0007003102B05D0202BEAD1124A104B1A6065
:1011D000E6E7124A0E4B1A60E2E70B4A916A926AFE
:1011E0000B48C1F30A41036801FB0333D2B2B3FBDE
:1011F000F2F30360A1E7064A13680A49A1FB03134F
:101200005B081360704700BF00060E40101A0E40C6
:1012100040050720001BB70000093D0000127A00BE
:10122000001C4E0EABAAAAAA0A4B1B6853B1094B6D
:101230001B681A180849914208DB1046054A1060DD
:1012400018467047054A034B1A60F0E74FF0FF302D
:10125000704700BF880F0720FC7F082060340720FC
:1012600070B50F4E0F4D761BB61018BF002405D079
:10127000013455F8043B9847A642F9D10A4E0B4D6C
:1012800004F0FEFD761BB61018BF002406D0013412
:1012900055F8043B9847A642F9D170BD70BD00BF18
:1012A0008C5E08008C5E0800945E08008C5E08006E
:1012B00070B4860746D0541E002A41D0CAB20346F5
:1012C00002E014F1FF343BD303F8012B9D07F8D162
:1012D000032C2ED9CDB245EA05250F2C45EA05454C
:1012E00019D9264603F11002103E0F2E42F8105C69
:1012F00042F80C5C42F8085C42F8045C02F110020F
:10130000F2D8A4F1100222F00F0204F00F04103200
:10131000032C13440DD91E462246043A032A46F8EC
:10132000045BFAD8221F22F003020432134404F0B3
:1013300003042CB1C9B21C4403F8011B9C42FBD12D
:1013400070BC704714460346C2E700BF0EB40146A6
:10135000F0B56FF000454FF402774FF6FF769CB082
:1013600021AC54F8042B0B4B02910691186802A98A
:1013700023460194ADF8147004950795ADF81660F6
:1013800000F072F80022029B1A701CB0BDE8F04019
:1013900003B070474405072020F0030110F003005C
:1013A000C0F1000051F8043B00F1040C4FEACC0CF2
:1013B0006FF000021CBF22FA0CF213434FF0010C35
:1013C0004CEA0C2C4CEA0C4CA3EB0C0222EA030274
:1013D00012EACC1204BF51F8043B0430F4D0C2F13D
:1013E000000102EA0102B2FA82F2C2F11F0200EB2E
:1013F000D2007047024A012312685C3200F002B842
:1014000044050720F0B418B307460D4617F8016BE2
:1014100001E0A64217D015F8014B002CF9D1E6B136
:101420000C4617F8015B01E0002BF9D014F8013BE2
:101430009D42F9D155B1002307F8013C06461760DB
:101440003046F0BC704753B13846DDE72F46F5E72C
:1014500010680028D8D10646F2E71660F0E717605A
:1014600006460370ECE700BF2DE9F04FC3B00C4611
:101470000B9192460F930C9002F056FA03681846AF
:101480001A93FFF789FFA3891990190603D52369D9
:10149000002B01F0358000230DF1C809C8461593D3
:1014A0001393149318931B930993169317932793ED
:1014B0002693CDF894909AF800305446EBB1252B42
:1014C00002D11AE0252B03D014F8013F002BF9D1EB
:1014D000A4EB0A058DB1269B279A01332A44072BDA
:1014E000C8F800A0C8F804502792269300F38A8019
:1014F00008F10808099B2B4409932378002B00F07E
:10150000898000234FF0FF301A468DF87730194656
:101510000D939B46637804F1010A0A900AF1010ACF
:10152000A3F12000582800F2B783DFE810F04C0345
:10153000B503B5035403B503B503B503B503B5034C
:10154000B50359005903B50366001402B5032F0211
:10155000A503A503A503A503A503A503A503A5034B
:10156000A503B503B503B503B503B503B503B503CB
:10157000B503B503B5038B02D302B503D302B5039C
:10158000B503B503B5031B03B503B5032003B503CA
:10159000B503B503B503B5033402B503B5034B0278
:1015A000B503B503B503B503B503B503B503B5037B
:1015B000B503B50376029E03D302D302D3026303BD
:1015C0009E03B503B5036803B5037503DD018C0302
:1015D0005E03B503F201B5038700B503B50332031B
:1015E0000F9C236818460D932346002803F104033B
:1015F0000F9304DA0D9B5B420D934BF0040B9AF8AA
:1016000000308BE725AA0B990C9803F017F840B926
:10161000C8466FE7279B23B10C9825AA0B9903F0C6
:101620000DF80B9B9B8913F0400F099B18BF4FF0DF
:10163000FF330993099843B0BDE8F08F1BF0200FEA
:10164000119340F0AF810F9A1BF0100F134640F03A
:101650009A851BF0400F00F0968500250123148821
:1016600004320F92002217468DF877200A994A1CFF
:1016700000F010822BF08002079254EA050240F03D
:101680000F82002940F03184002B40F039851BF097
:1016900001030E9300F06286302342AE06F8413D0E
:1016A0000A9B0E9A9342B8BF1346089300231293E5
:1016B00017B1089B01330893079B13F002031093A3
:1016C00002D0089B02330893079B13F0840540F077
:1016D00010830D9B089AA3EB020BBBF1000F40F3A4
:1016E0000883BBF1100F40F3B287279C4346214685
:1016F000A8461027269A0C9C0B9D06E0ABF1100B18
:10170000BBF1100F03F1080318DD0132AB481031B3
:10171000072A2791269283E88100EFDD25AA294632
:10172000204602F08BFF00287FF47BAFABF1100B5B
:10173000BBF1100F4B462799269AE6DC45460C462E
:10174000984601329D4B5C44072A2794269288E8EC
:10175000080800F3C3829DF8777008F1080887B184
:101760000121269B0C440B440DF17702072B279493
:101770002693C8F80410C8F8002000F3CD8308F1C0
:101780000808109B7BB10221269B0C4401331EAA42
:10179000072B27942693C8F80410C8F8002000F3FC
:1017A000118408F10808802D00F004830A9B0E9A2A
:1017B0009F1A002F37DD102F40F37986804D424667
:1017C0002146B0464FF0100B2E46269B0C9C0B9DDD
:1017D00004E0103F102F02F1080215DD0133103133
:1017E000072B2791269382E84008F2DD25AA294697
:1017F000204602F023FF00287FF413AF103F102F84
:101800004A462799269BE9DC35460C4646469046D3
:1018100001333C44072B2794269388E8A00000F36B
:10182000708308F10808079BDF0500F16482269B9E
:101830000E9901330C44072B2794C8F80060C8F8B0
:101840000410269300F3B38308F10808079B5B0795
:101850003BD50D9B089A9D1A002D36DD102D40F3C7
:1018600021871026269B0C9FDDF82CB004E0103D4C
:10187000102D08F1080816DD0133504A1034072BEB
:101880002794269388E84400F1DD25AA5946384676
:1018900002F0D4FE00287FF4C4AE103D102DC846DF
:1018A000279C269BE8DC0133444A2C44072B2794D1
:1018B000269388E8240008DD25AA0B990C9802F0ED
:1018C000BDFE00287FF4ADAE279C099B0D9A0899B8
:1018D0008A42ACBF9B185B180993002C40F0FB8236
:1018E0000023C8462693E6E511931BF0200340F041
:1018F00045811BF0100240F066841BF0400300F0AD
:1019000062840F9913460A4604320C8800250F9210
:10191000A8E600250F9A119316688DF87750141DCC
:10192000002E00F0CD860A9A531C00F01B86294633
:10193000304602F0ADFA002800F00D87831B0A95AF
:101940000E930F94CDF81CB023EAE373089312951D
:101950009DF87770ACE69AF800300AF101042A2B62
:1019600000F0C287A3F130000928A24600F21887D0
:1019700000231C461AF8013B04EB840400EB4404EA
:10198000A3F130000928F5D90A94C9E54BF0800B82
:101990009AF80030C2E54BF0100B1BF0200F1193AA
:1019A0003FF451AE0F9C073424F0070303F1080203
:1019B000D3E900450F92012354E600BF405C0800C4
:1019C000505C08001193002A40F0AD87BE4B1BF01D
:1019D000200F189340F0E7800F9A1BF0100F13466A
:1019E00040F0D8831BF0400F00F0D483002504336F
:1019F00014880F931BF0010F00F0E38054EA0503F5
:101A000000F0DF8030239DF844208DF878308DF889
:101A100079204BF0020B022324E6012211930023CC
:101A200011460F98089202681F468DF877300A9386
:101A30001293031DCDF81CB00E918DF8A0200F93CA
:101A400028AE39E61193002A40F084874BF0100B42
:101A50001BF0200F40F075840F9A1BF0100F1346F7
:101A600040F09D831BF0400F00F09983B2F90040D5
:101A70000433E5170F9322462B46002A73F1000327
:101A8000C0F298830A999DF877704A1C4FF00103C1
:101A90007FF4F0AD54EA050200F02982CDF81CB0C5
:101AA000012B00F00E83022B40F09C824E461898CA
:101AB000230943EA0573290904F00F020D461C4669
:101AC000835C06F8013D54EA0503F1D1A9EB060356
:101AD0000E93E5E51193002A40F038870F9C1BF028
:101AE000080F04F1070400F0CF8424F0070303F18A
:101AF00008020F921A685B6815921493149B159D47
:101B000023F00044284621464FF0FF326F4B03F08C
:101B100069FE002840F03484284621464FF0FF3209
:101B20006A4B03F041FE002840F02A8415A80DC836
:101B3000149903F02FFE002840F0D4859DF87770AB
:101B400003231A4608930023614E19460A93614BFA
:101B50000E92119A2BF0800007901291472AD8BF5D
:101B60001E46A5E54BF0080B9AF80030D6E44BF082
:101B7000100B11931BF020033FF4BBAE0F9C0734F6
:101B800024F0070303F10802D3E900450F92002374
:101B900068E51193002A40F0C2864F4B1BF0200FDE
:101BA00018933FF419AF0F9C1BF0010F04F10704C9
:101BB00024F0070303F108020F92D3E900457FF4F4
:101BC0001DAF02234EE59AF8003000297FF4A6AC41
:101BD00001222021A2E44BF0010B9AF800309DE491
:101BE0009AF8003001222B2198E44BF0200B9AF850
:101BF000003093E44BF0400B9AF800308EE49AF8F2
:101C000000306C2B03BF9AF801304BF0200B0AF127
:101C1000010A4BF0100B81E4002A40F07C861BF097
:101C2000200F40F052841BF0100F40F038841BF05E
:101C3000400F00F034840F9A136804320F92BDF8FD
:101C400024201A8037E4782330220F988DF87930D9
:101C50001193031D0F93204B046818934BF0020B54
:101C60008DF8782000250223FCE41193002A3FF42C
:101C7000EFAE8DF87710EBE600200446A3F13000BC
:101C80001AF8013B04EB840400EB4404A3F1300098
:101C90000928F5D90D9443E41193002A40F04A86AF
:101CA000119A002A3FF4B6AC002301211F46089187
:101CB0008DF8A020CDF81CB08DF877300A931293E0
:101CC0000E9128AEF8E400BF0C5C0800FFFFEF7F28
:101CD000005C0800FC5B0800205C080025AA0B994A
:101CE0000C9802F0ABFC00287FF49BACC8469DF832
:101CF0007770279C33E5119B652B40F39A8015A8DC
:101D00000DC8149903F03CFD002800F093810121D7
:101D1000269BB54A0B440C44072B27942693C8F8FE
:101D20000410C8F8002000F3C68308F108081F9BC0
:101D3000139A279C934203DB079BDD077FF586AD53
:101D4000269B199901331A9A0C44072BC8F80020D6
:101D5000C8F804102794269300F3C48308F10808F8
:101D6000139B5E1E002E7FF771AD102E40F375851C
:101D700022461027269B9D4DDDF830B00B9C05E0D8
:101D800008F10808103E102E40F32582013310326E
:101D9000072B2792269388E8A000F1DD25AA21468B
:101DA000584602F04BFC00287FF43BACC846279A0B
:101DB000269BE7E70D9B089A9F1A002F7FF7F6AC4A
:101DC000102F40F3A884894D42462146B0464FF07B
:101DD000100B2E46269B0C9C0B9D04E0103F102FF1
:101DE00002F1080215DD01331031072B27912693EC
:101DF00082E84008F2DD25AA2946204602F01EFCB2
:101E000000287FF40EAC103F102F4A462799269BDE
:101E1000E9DC35460C464646904601333C44072BE8
:101E20002794269388E8A00000F39E8208F1080812
:101E3000BCE4139B012B40F34F820123269F1C44DB
:101E40001F44072F2794C8F800602697C8F804306D
:101E500000F35F8208F10808199A01371A9B1444AD
:101E6000072F27942697C8F80030C8F8042000F3FD
:101E70005C8208F1080815A80DC8149903F080FCCD
:101E8000139B002840F04181013B013701361C447F
:101E9000072FC8F8006026972794C8F8043000F38D
:101EA000668108F108081B9A0137144421AB072FFB
:101EB00027942697C8F80420C8F800307FF7C4ACF0
:101EC00025AA0B990C9802F0B9FB00287FF4A9AB66
:101ED000C846279CBAE425AA0B990C9802F0AEFBE1
:101EE00000283FF4FDACFFF79CBBDDF81CB0012BD4
:101EF00000F07E81022B71D1CDF81CB000240025AA
:101F0000D4E525AA0B990C9802F098FB00287FF4E1
:101F100088ABC846279C86E425AA0B990C9802F04A
:101F20008DFB00287FF47DABC846279C29E4012067
:101F3000269B2D4A03440444072B27942693C8F874
:101F40000400C8F8002040F3D88225AA0B990C9809
:101F500002F074FB00287FF464ABC8461F99279CED
:101F600029B9139B1BB9079BD8077FF56FAC19984C
:101F7000269B0246013322441A9C072B2792C8F85D
:101F80000040C8F80400269300F3318408F10808E3
:101F90000029C0F20984139901338C18072B279468
:101FA0002693C8F80060C8F804107FF74DAC25AA46
:101FB0000B990C9802F042FB00287FF432AB279C6F
:101FC000C84643E425AA0B990C9802F037FB002879
:101FD0007FF427ABC846279CFFF7E5BB002400250C
:101FE000CDF81CB0494604E03C5C0800505C080099
:101FF0003146E20842EA4572E80804F00703054664
:102000001446303354EA050201F8013C01F1FF3671
:10201000EED1079AD2077FF559AD302B3FF456AD7C
:102020003023023906F8013CA9EB01030E930E465A
:10203000FFF736BB1F9900297FF779AF129B139AE0
:102040009342A8BF1346002B1F460BDD269B3C4442
:102050000133072B279488E8C000269300F3FB8206
:1020600008F10808129B002FA8BFDB1B002B1F469E
:1020700040F3D780102B40F33484BA4D42462146BA
:10208000B0464FF0100B2E46269B0C9C0B9D04E097
:102090000832103F102F40F3B58001331031072B69
:1020A0002791269382E84008F2DD25AA294620469A
:1020B00002F0C4FA00287FF4B4AA4A462799269B66
:1020C000E7E7002D08BF0A2CC0F090804E4620465E
:1020D00029460A22002303F0C3FB303206F8012D03
:1020E0002046294600230A2203F0BAFB04460D4687
:1020F00054EA0503EBD1A9EB06030E93FFF7D0BA20
:102100000A9B4E460E93FFF7CBBA5E1E002E7FF75A
:10211000CAAE102E40F3E38322464FF0100B914DD0
:102120000C9C04E0103E102E08F1080815DD013764
:102130001032072F2792269788E82008F2DD25AA7B
:102140000B99204602F07AFA00287FF46AAA103E22
:10215000102EC846279A269FE9DC144601373444DE
:10216000072F2794269788E860007FF79AAE25AA64
:102170000B990C9802F062FA00287FF452AA279C6F
:10218000269FC8468FE604321C68002501230F9263
:10219000FFF768BA1C6804330F9300252AE41C6813
:1021A0000433E51722460F932B46002A73F10003F0
:1021B000BFF668AC2D27644265EB45058DF8777056
:1021C0000123FFF753BA0F9900250A4604320C6821
:1021D0000F92FFF747BA144601333444072B279474
:1021E000269388E860007FF72FABE0E6DDF81CB0AF
:1021F000012342AE3034CDF81CB006F8414D0E93A9
:10220000FFF74EBA35460C464646904601333C44ED
:10221000072B2794269388E8A00000F3468208F154
:1022200008081F9A139B9A4245DB079BD90742D4A3
:10223000139B12989A1A1D1A9542A8BF1546002D95
:102240000EDD2699064401312C440729C8F80060A8
:102250002794C8F80450269100F3168208F1080864
:10226000002DB4BF1646561B002E7FF7EFAA102E86
:1022700040F3F38222461027269B3A4DDDF830B01A
:102280000B9C04E008F10808103E102EA3DD01337A
:102290001032072B2792269388E8A000F2DD25AAAA
:1022A0002146584602F0CAF900287FF4BAA9C84668
:1022B000279A269BE8E7269B199801331A9904442C
:1022C000072B2794C8F80010C8F80400269300F3E1
:1022D000CF8108F10808ABE7079BDA073FF5ADAD02
:1022E0000123269F1C441F44072F2794C8F8006031
:1022F0002697C8F804307FF7D4AD25AA0B990C981F
:1023000002F09CF900287FF48CA9C846279C269FE0
:10231000C9E525AA0B990C9802F090F900287FF4E2
:1023200080A9C846279C269F96E525AA0B990C985C
:1023300002F084F900287FF474A9C846279C269FE0
:1023400099E50F9C073424F0070404F10801D4E94F
:1023500000230F9114461D46FFF78FBB4E46FFF733
:102360009FB900BF505C080025AA0B990C9802F099
:1023700065F900287FF455A9C846279CFFF716BACF
:10238000159C22462046149C2346214603F02AFA37
:10239000002840F073820A9B0133119B23F0200335
:1023A0000E9300F09C81472B00F0D6804BF4807395
:1023B0000793149B1F1E159B0893B7BF3B46002332
:1023C00003F100472D231093119B662B00F09081A1
:1023D000462B00F0A48002200E9B23A9452B0ABFA8
:1023E0000A9B0A9D5D1C8DE82100049120A81FA96D
:1023F0003B460390089A02910C9800F059FB119B00
:102400000646672B40F0BA811BF0010F00F02382D3
:102410007419169A0898179B394603F0B1F90028E9
:1024200040F02481239BA34206D230215A1C2392E0
:102430001970239B9C42F9D89B1B13930E9B472B2F
:1024400000F0A280119B652B40F3A781119B662BA6
:102450001F9B129300F07181139B129A19469142AF
:1024600000F35D811BF0010F40F0F08122EAE2737E
:10247000089367230E921193109B002B7DD10A9332
:102480009DF87770FFF714B924F0070423681593BB
:102490006368149304F108030F93FFF72FBB0F9A9F
:1024A000136804320F92099A1A60FFF704B8269B4A
:1024B000AF4DFFF7ADB925AA0B990C9802F0BEF805
:1024C00000287FF4AEA8C84631E40F9A13460433BF
:1024D0000F93099B1168DD171A462B46C1E90023AB
:1024E000FEF7E9BF25AA0B990C9802F0A7F800287F
:1024F0007FF497A8C846279C32E408F108082FE526
:1025000040210C9801F022FA0B9A1060106100280B
:1025100000F0148240230B9A5361FEF7BCBF0320E6
:102520000A9C23A98DE81100049120A81FA90390FB
:10253000089A3B4602910C9800F0BAFA25460646E6
:10254000119B7419462B7FF464AF3378302B00F065
:1025500087811F9D2C445CE70A9B002B08BF012349
:102560000A9323E730460A95FEF716FF0F940E9064
:10257000CDF81CB00346FFF7E7B92D2700238DF8EF
:1025800077700A93FFF795B81F9B1A46129303338F
:1025900004DB0A9B19469142BFF65EAF119B023BDA
:1025A0001193129B9DF84420013B002B8DF8842051
:1025B000B4BF2D222B221F93B8BF129B8DF885200C
:1025C000B8BFC3F10103092B40F31F810DF1930044
:1025D0000146684C00E0114684FB0352DD17C5EB51
:1025E000A20505EB8502A3EB42023032092D01F86A
:1025F000012C2B4601F1FF32EDDC30330239DCB225
:10260000884202F8014C40F292810DF18601134696
:1026100001E013F8014B834201F8014BF9D101337A
:102620009B1A0DF18602134421AA9B1A139A1B933D
:10263000012A13440E9340F348810E9B199A1344C8
:102640000E9323EAE37308930023129314E7279C65
:10265000269AFFF776B825AA0B990C9801F0EEFFA1
:1026600000287EF4DEAFC846279CFBE42346E3E661
:1026700025AA0B990C9801F0E1FF00287EF4D1AF58
:10268000C8461F9A279CD3E525AA0B990C9801F000
:10269000D5FF00287EF4C5AF1F9A139BC846279C20
:1026A0009A1ADDE5269BFFF7FEB825AA0B990C9830
:1026B00001F0C4FF00287EF4B4AFC846279CB0E503
:1026C0000A9B3746062B28BF06230A9612960893C4
:1026D0000F94CDF81CB00E93274EFEF7E9BF0623EA
:1026E0000A9363E62D231F468DF87730FFF728BA4B
:1026F00003200A9C23A98DE81100049120A81FA99A
:102700000390089A3B4602910C9800F0D1F92546B7
:102710000646041919E7269B154DFFF77EBB199A4B
:10272000139B1344129A0E93002A40F3C78023EAA6
:10273000E3730893672311939EE6002B40F3E18037
:102740000A9A002A40F0B0801BF0010F40F0AC80E4
:1027500008930E9390E60A9B0F9408930E930A90A9
:10276000CDF81CB012909DF87770FEF7A1BF00BFA6
:10277000505C080067666666345C0800119B472B56
:102780007FF446AE1BF0010F7FF4DAAE239B9B1B58
:1027900013930E9B472B3FF4F7AE1F9B129300E75A
:1027A00000200A90FEF7BCBE4F42103135DA1024EB
:1027B0006A4DDDF830B004E008F10808103F102F32
:1027C0002CDD01331032072B27922693C8F80050D6
:1027D000C8F80440F0DD25AA0B99584601F02EFFF9
:1027E00000287EF41EAFC846279A269BE6E725AA56
:1027F0000B990C9801F022FF00287EF412AFC84616
:102800001F99279A269BFFF7C3BB302213448DF8EC
:1028100087308DF8862022AB06E7504D01333A44CD
:10282000072B88E8A0002792269308F108087FF775
:10283000B2AB25AA0B990C9801F000FF00287EF49A
:10284000F0AEC846279A269BFFF7A5BB129B199AA4
:1028500013440E936BE7239BEEE5269B3F4DBBE4B1
:10286000169A0898179B394602F08AFF00287FF4D1
:1028700070AEC5F101051F952C44CAE5149B384E76
:10288000002BBEBF2D231F468DF877304FF003037A
:102890001A4608934FF00003A8BF9DF877701946B9
:1028A0000A93304BFFF754B9129B199A13440A9AB2
:1028B0001A4422EAE2730E920893DDE5129B0E9A07
:1028C000C3F101031A441346C3E71BF0010312933B
:1028D0007FF4B3AE0E9B23EAE3730893CCE51F4D60
:1028E0003CE4269B1D4D91E40F9D9AF80130286829
:1028F000A24640EAE0700A90284604300F90FEF7A6
:102900000DBE0A9B13B91BF0010F02D0199B0133B6
:10291000CDE701231CE78DF87710FFF780B98DF81C
:102920007710FFF73AB98DF87710FFF74FB80DF130
:10293000860379E68DF87710FFF7B2B94FF0FF32D2
:102940000C2309920C9A1360FEF774BE8DF8771071
:10295000FFF7C4B88DF87710FFF778B8505C08001F
:10296000085C0800045C0800024B13B1024800F048
:1029700005B8704700000000F53808000023014644
:102980001A46184601F0D8BE2DE9F04F03690F69C9
:1029900083B09F4200F38880013F01F1140600F1EB
:1029A000140A56F827305AF827200133B2FBF3F8FF
:1029B000BB00009306EB030953440193B8F1000FE9
:1029C0003BD00023B4461C46D6465CF8042BDEF808
:1029D00000501FFA82FB08FB0B33120C4FEA134B1B
:1029E00008FB02BB9AB2A21AABB21FFA8BF41A44CC
:1029F000C4EB154404EB224492B242EA0442E1459E
:102A00004EF8042B4FEA24444FEA1B43DDD2009BCF
:102A10005AF803308BB9019C231F9A450CD254F805
:102A2000043C4BB9A4F1080302E01A68043B1AB94C
:102A30009A4507F1FF37F8D30761044601F0EEFC31
:102A400000282DDB5546002308F1010856F8041B29
:102A500028688AB29A1A0B0C81B20A44C3EB10435D
:102A600003EB224392B242EA0342B14545F8042BFC
:102A70004FEA2343EAD25AF827200AEB87037AB9B0
:102A80001A1F92450BD253F8042C42B9083B02E0BE
:102A90001A68043B1AB99A4507F1FF37F8D3276142
:102AA000404603B0BDE8F08F002003B0BDE8F08FD2
:102AB0002DE9F04F056C9BB0044692469B46279E3D
:102AC0004DB10123426C29469340AB606A6001F02E
:102AD000CDFA00232364BBF1000F5D4635DB0023F4
:102AE00033609D4BAB4315D000220023504659461E
:102AF00002F046FE804600282DD00123269A13605E
:102B0000289B002B00F0BD809448186001381BB052
:102B1000BDE8F08F42F20F73269A1360BAF1000FEE
:102B20000DD1C5F3130555B9289B8D48002BEED068
:102B300000F10803289A13601BB0BDE8F08F289BB2
:102B40008848002BE3D0C31CF4E701232BF0004599
:102B50003360AB46C5E718AA19AB01920093524601
:102B60005B46204601F004FD2B0D814671D0504696
:102B7000CBF3130242F07F51189FA3F2FF36CDF83A
:102B8000508041F440110022774B02F0DDF96CA334
:102B9000D3E9002302F08CFB6BA3D3E9002302F0FE
:102BA000D5F9CDE90201304602F01CFB68A3D3E958
:102BB000002302F07DFB02460B46DDE9020102F034
:102BC000C5F9CDE9040102F023FE002202900023A2
:102BD000DDE9040102F0DEFD002840F06D81029D78
:102BE000162D00F257816149524601EBC5015B4643
:102BF000D1E9000102F0ECFD002800F0BE816B1E5F
:102C0000029300230E93BF1B7B1E089300F14E819D
:102C100000230A93029B002BC0F23F81089A0D9378
:102C200011461944002308910C93249B092B2AD8A0
:102C3000052B40F358860025043B2493249B023B3C
:102C4000032B00F23F86DFE813F0CE03C302D90363
:102C50005B04189F199E3E4406F23243202B40F33A
:102C60008781C3F1400306F212409D402AFA00F02A
:102C7000284302F0A7FA0123013E1493A1F1F87151
:102C800081E73B4843E7002120466164259101F03C
:102C9000C7F94FF0FF3307930F930123259A049050
:102CA000206424920B93199B002BC0F2D380029ACC
:102CB0000E2A00F3CF802D4B03EBC203D3E9002390
:102CC000CDE90823259B002BC0F2B483DDE908562B
:102CD00050462A463346594602F014FC02F098FD4D
:102CE000804602F07FFA2A46334602F0E1FA0246B5
:102CF0000B465046594602F027F9079E049F08F1FB
:102D00003005012E3D7002460B4607F1010564D0E7
:102D10000022184B02F0CCFA0022002306460F4690
:102D200002F02EFD002840F08280CDF828904FF070
:102D3000000ADDE908894FF0000B0B9429E000BF81
:102D400061436F63A787D23FB3C8608B288AC63FB1
:102D5000FB799F501344D33F0000F07F3D5C080097
:102D6000605C08006C5C08000000F83F985C08009C
:102D70003C5C0800000024400022814B02F098FADD
:102D800052465B4606460F4602F0FAFC002840F029
:102D9000BA8342464B463046394602F0B3FB02F056
:102DA00037FD044602F01EFA42464B4602F080FA16
:102DB00002460B463046394602F0C6F804F13006AA
:102DC00005F8016B049E079FAE1BBE4202460B46F0
:102DD000D2D1A046DDF828900B9C1046194602F08F
:102DE000B5F806460F4602460B46DDE9080102F03B
:102DF000D1FC48B9DDE9080132463B4602F0C0FC8F
:102E0000A8B118F0010F12D015F8018C6B1E049AAE
:102E100004E09A4200F0028413F8018DB8F1390FF2
:102E200003F10105F5D008F1010883F80080494657
:102E3000204601F01BF90022029B2A70269A0133DA
:102E40001360289B002B00F09F8304981D601BB02B
:102E5000BDE8F08F0B9A002A3ED0249A012A40F355
:102E60001183079B0C9A5F1EBA42C0F29083D71B56
:102E7000079B002BC0F28C840A9D079B0A9A0121B4
:102E80001A440A92089A20461A44089201F08AF9D4
:102E9000064623E001230E93B5E600230A9A0D931C
:102EA000029BD21A5B420A920C93BEE6C7F1010361
:102EB0000A9300230893ADE6029D284602F092F99A
:102EC00002460B46DDE9040102F05AFC00287FF4BB
:102ED00086AE6B1E029382E60AADE0CD002D0CDDBE
:102EE000089900290B4608DDA942A8BF2B460A9A7B
:102EF000ED1AD21ACB1A0A9208930C9BD3B10B9BF2
:102F0000002B00F0B882002F10DD31463A462046F3
:102F100001F0E4F94A4601460646204601F04CF924
:102F2000034649462046994601F0A0F80C9BDA1B5F
:102F300040F0A2820121204601F034F90D9B804629
:102F4000002B1FDD01461A46204601F0C7F9249BDD
:102F50008046012B40F3558200230C93D8F81030A3
:102F600008EB8303186901F0CDF8C0F1200013E0ED
:102F7000C3F120050AFA05F07BE60E9043E600BF98
:102F800000002440249B012B40F3858200230C93F6
:102F90000D9B0120002BE1D1089A104410F01F0076
:102FA00000F0A180C0F12003042B40F386840A9B2B
:102FB000C0F11C0003440A931346034405440893DC
:102FC0000A9B002B05DD49461A46204601F0D6F93A
:102FD0008146089B002B05DD41461A46204601F03C
:102FE000CDF980460E9B002B40F08680079B002B7E
:102FF00040F364820B9B002B00F09880002D05DDD0
:1030000031462A46204601F0B9F906460C9B002BB2
:1030100040F036830896079B049A013BD3180B9324
:1030200017460AF00103C246DDF820B00C93514662
:103030004846FFF7A9FC31460546484601F0EEF93F
:103040005A4607905146204601F004FAC26880466D
:1030500005F13003002A40F02982014648460A93D0
:1030600001F0DCF941460890204600F0FFFF089A85
:103070000A9B32B9249921B90C9A002A00F0EE83F8
:10308000249A07990029C0F29F8205D1249919B981
:103090000C99002900F09882002A00F305830B9A0E
:1030A00007F1010897423B70454600F00B83494603
:1030B00000230A22204600F0E3FF5E4581463146A8
:1030C0004FF000034FF00A02204600F0E98100F0C3
:1030D000D7FF5946064600230A22204600F0D0FFBB
:1030E00047468346A3E71C200A9B054403440A93F2
:1030F000089B0344089363E74146484601F08EF974
:103100000028BFF673AF029F494600230A222046DB
:10311000013F029700F0B4FF0B9B8146002B40F06B
:10312000B5830F9B002B40F3BE830793DDF810A0FF
:10313000079F554606E0494600230A22204600F034
:103140009FFF814641464846FFF71EFC303005F898
:10315000010BA5EB0A03BB42EDDB049B079A8246F9
:10316000012AACBF9B1801334FF0000B1D464946A6
:103170000122204601F002F94146814601F04EF954
:10318000002840F33F8215F8012C6B1E049904E0DF
:103190008B4200F0AE8113F8012D392A03F10105AD
:1031A000F6D001321A704146204600F05FFF002E33
:1031B0003FF43DAEBBF1000F05D0B34503D05946F7
:1031C000204600F053FF3146204600F04FFF2EE628
:1031D00000230B93029B259A13440F930133012B79
:1031E0001F461E46B8BF012707930021172F6164B1
:1031F0000AD9012204235B0003F11400874211461F
:1032000002F10102F7D26164204600F009FF0E2EA0
:10321000049020643FF647AD002D3FF444AD029981
:10322000CDE910AB002940F30382B94B01F00F0246
:103230000D1103EBC203E906D3E9006740F1AF814A
:10324000B44B5046D3E90823594602F05BF94FF0DE
:10325000030ACDE9120105F00F058DB1DFF8B48244
:10326000EA0709D5D8E900233046394602F020F8AC
:1032700006460F460AF1010A6D1008F10808EFD161
:103280003B46DDE91201324602F03CF9074688462A
:103290000E9B43B10022A04B3846414602F07AFA19
:1032A000002840F08782504601F09CFF3A46434692
:1032B00001F0FEFF994B002201F048FE079B0546F6
:1032C000A1F15076002B00F03F81029B1593079BE4
:1032D00012930B9B002B00F0FB81129A8C4B002069
:1032E00003EBC20353E902238D4902F00BF92A468E
:1032F000334601F029FE82468B463846414602F0AD
:1033000087FA054601F06EFF02460B4638464146F5
:1033100001F01AFE30355FFA85F8049D06460F4627
:1033200085F8008002460B4650465946013502F0AA
:103330004FFA002854D132463B460020764901F02E
:1033400003FE02460B465046594602F041FA002859
:1033500040F07082129A012A00F01281129B049AA6
:10336000CDF84890134499460FE032463B46002082
:10337000694901F0E9FD52465B4602F00BFA00286C
:1033800040F056824D4500F0F980504659460022E3
:10339000644B01F08DFF0022624B82468B46304623
:1033A000394601F085FF0F46064602F031FA8046A5
:1033B00001F018FF02460B463046394601F0C4FDC5
:1033C00008F130085FFA88F805F8018B52465B4631
:1033D00006460F4602F0DEF90028C6D0DDF8489018
:1033E000159B029323E500230B93259B002B40F3B1
:1033F000DD801F461E460F930793F6E601230B93CD
:10340000F3E7BAF1000F7FF4A7ADCBF31303002B62
:103410007FF4BCAD2BF000473F0D3F05002F00F0BF
:103420000D820A9B01330A93089B01330893012301
:103430000C93ADE5079B002B3FF748AC40F0228290
:10344000DDE908010022384B01F032FF52465B46AD
:1034500002F0B4F9DDF81C804646002841D0259BD7
:10346000049DDB4302934146204600F0FFFD002E01
:103470003FF4DDACA7E60C9A4946204600F02EFF4B
:10348000814657E5149A002A00F0888103F23343FD
:103490000C9F0A9DF2E4BAF1000F7FF477ADB4E718
:1034A00000F0EEFD474606468346C0E5014620464D
:1034B000089300F0DBFD0122089BE2E5249B022B30
:1034C0007FF798AD079B002BC9D1414605222046C6
:1034D00000F0D6FD01468046484600F09FFF0028D8
:1034E000BDDD3123029A0499013202920B704D1C0A
:1034F000B9E73123029A01320292049A137052E61C
:1035000001230B9366E6DDF828900B9C8FE400BF47
:10351000985C0800705C08000000F03F00001C4050
:103520000000E03F0000244000001440504601F03D
:1035300059FE3A46434601F0BBFE0022C14B01F062
:1035400005FD0546A1F1507641460022BE4B3846A6
:1035500001F0FAFC2A46334682468B4602F038F9DF
:103560008046002840F010812A4606F1004350466C
:10357000594602F00FF918B1464670E7DDF8489059
:10358000DDE910ABFFF78FBB0498FFF7C0BA0C9BC7
:103590000D9AFB1A1A440C970D92002768E4DDE996
:1035A00010234FF0020ACDE9122356E60021012331
:1035B00020466164259300F033FD259B049007931A
:1035C000259B20640F9327E6002AD046CDF820B033
:1035D0009A4611DD49460122204600F0CFFE4146C1
:1035E000814600F01BFF002840F34581BAF1390FF6
:1035F00000F0058105F1310AB34687F800A07D1C73
:10360000089ED0E504D11AF0010F01D0BBE51546A4
:1036100015F8013C6A1E302BF9D0C4E5302204991C
:103620000A70029A15F8018C01320292FFF7FBBB77
:1036300000F0BB80DDE91001029B4FF0020A5D4201
:10364000824B05F00F0203EBC203D3E9002301F024
:103650002FFE2D11074688463FF41AAE7C4EEB072D
:1036600009D5D6E900233846414601F021FE074638
:1036700088460AF1010A6D1006F10806EFD107E647
:103680007168204600F0CCFC0546336906F10C0158
:1036900002339A000C3000F041FC294601222046FA
:1036A00000F06CFE0890B6E4392BCDF820B0D0467F
:1036B00000F0A58003F1010AB34687F800A07D1C45
:1036C000089E70E55A46D046B3469A4616464EE5E1
:1036D00012985E492A4601EBC001334651E90201C6
:1036E00001F0E6FDCDE916013846414602F090F8BA
:1036F000054601F077FD02460B463846414601F08B
:1037000023FC06461298049A3035012815700F469E
:1037100002F1010526D0129B049ACDF8489013447B
:103720004FF0000A9946DFF830B152465B4630460A
:10373000394601F0BDFD0F46064602F069F88046A5
:1037400001F050FD02460B463046394601F0FCFBC5
:1037500008F1300805F8018B4D4506460F46E4D1C7
:10376000DDF848900022DDE916013A4B01F0EEFB4E
:1037700032463B4602F00EF8002846D0159B0293D5
:1037800015F8018CFFF742BB4FF000084646A8E64B
:103790000A9B079A9D1A0023FFF770BB189B0C9F8A
:1037A000C3F136030A9DFFF769BBDDE910784FF0DE
:1037B000020A6DE5079B002B3FF4B8AE0F9B002B70
:1037C0007FF7DEAE0022244B3846414601F070FD03
:1037D000074688460AF1010001F004FD3A464346D7
:1037E00001F066FD0022174B01F0B0FB029A0F9B1F
:1037F000013A05461592A1F15076129369E53922F6
:10380000B3463A70089E7D1CBFE4DDE91623002014
:10381000104901F099FB32463B4601F0D9FF08B947
:10382000AEE6154615F8013C6A1E302BF9D0D7E5F7
:10383000DDF84890159B0293FFF7E8BA0C97FFF765
:10384000A7BB00BF00001C4000001440985C0800AB
:10385000705C08000000E03F00002440392BCDF8E8
:1038600020B0D046DDF81CB09A46C8D0BBF1000F9E
:103870003FF7C0AEC0E67FF4BFAE1AF0010F3FF4D1
:10388000BBAEB3E64FF000084646E8E531460023FC
:103890000A22204600F0F4FB0F9B0646002B07DDB2
:1038A0000793FFF7ABBB249B022B1FDC0F9B3CE471
:1038B000249B022B1ADC0F9BF2E73FF481ABC0F193
:1038C0003C0011E4002520466564294600F0A8FB71
:1038D0004FF0FF3307930F93012304902595206445
:1038E0000B93FFF7E0B90125FFF7A8B90F9B0793EA
:1038F000E8E500BF38B50A4C0A4D641BA4100AD095
:1039000004F18043013B05EB8305013C55F8043984
:103910009847002CF9D1BDE8384002F0BBBA00BF8F
:10392000A45E0800A05E0800044A054B1268506BB4
:10393000002808BF1846F030704700BF4405072034
:10394000840D0720704700BF704700BF2DE9F04F7E
:1039500001F10B06162E83B0054640F29E8036F02C
:10396000070600F1BD80B14200F2BA8000F04CFBC6
:10397000B6F5FC7FC0F08582730A00F0B880042B96
:1039800000F26C81B30903F1390003F1380EC10074
:10399000B84F39444C680839A14206D10CE0002ADE
:1039A00080F2AB80E468A14206D0636823F0030391
:1039B0009A1B0F2AF3DD70463C69DFF8CCE27445B0
:1039C00000F09E81636823F003039A1B0F2A00F323
:1039D0008381002AC7F814E0C7F810E080F29180D4
:1039E000B3F5007F80F054810122DB0879684FEA4B
:1039F000A30C134457F8338002FA0CF207EBC30C04
:103A00000A43ACF10801E160C4F808807A6047F825
:103A10003340C8F80C40012483109C4094427DD868
:103A2000144206D120F003006400144200F10400A7
:103A3000FAD007EBC009CC468046DCF80C309C4538
:103A400007D15FE1002A80F26D81DB689C4500F0C0
:103A50005981596821F003018A1B0F2AF2DDDC68C5
:103A6000D3F808C046F0010828461E4442F001057C
:103A7000C3F80480CCF80C40C4F808C07E613E61F5
:103A8000C6F80CE0C6F808E075605A50009300F0E4
:103A9000C1FA009B03F108041EE0102920D800F0B1
:103AA000B3FA102618230220724F3B445C68A3F13E
:103AB0000802944200F02F816368E16823F0030359
:103AC00023445A68A66842F00102F16028468E60DD
:103AD0005A6000F09FFA0834204603B0BDE8F08F2A
:103AE00000240C2320462B6003B0BDE8F08F40205B
:103AF0004FF400714FF03F0E4AE723445A68E168E3
:103B0000E0E723445A68284642F001025A6008342C
:103B100000F080FA204603B0BDE8F08FBC6863680F
:103B200023F00308B04504D3A8EB06030F2B00F3E2
:103B30008580DFF85891504BD9F800201B6801327E
:103B4000334404EB080A00F0548103F580530F332B
:103B500023F47F6B2BF00F0B5946284600F05CFDD9
:103B6000411C024600F0FB80824500F2F680434B88
:103B700019685944196000F04C81D9F800000130EF
:103B80001BBFA2EB0A0A5144C9F80020196012F0C9
:103B9000070100F01481C1F10800C1F58051024411
:103BA000083102EB0B09C9F30B09A1EB09094946DE
:103BB00028460193009200F02FFD431C9DE80C0065
:103BC00000F04281801A484440F001001968BC426C
:103BD0004944BA601960506017D0B8F10F0F40F235
:103BE000FA804FF0050C6268A8F10C0020F0070085
:103BF00002F0010204EB000E02430F286260CEF8CF
:103C000004C0CEF808C000F216811D4BBC681A68CB
:103C1000914288BF19601B4B1A689142626888BF45
:103C2000196022F003029642A2EB060301D80F2B83
:103C300004DC284600F0EEF900244DE746F00102CE
:103C400043F00103264462602846BE600834736076
:103C500000F0E0F9204603B0BDE8F08F142B70D9D6
:103C6000542B00F2A280330B03F16F0003F16E0EB0
:103C7000C1008DE674090720BC0F07208C0F0720B8
:103C8000B40F0720B80F07207C0907207C0D072000
:103C90005A0A042A5BD9142A00F2AE8002F15C01B0
:103CA000C9005B3207EB010C7958ACF1080C8C456C
:103CB00000F088804A6822F00302934273D2896838
:103CC0008C45F7D1DCF80C307A68E360C4F808C0A2
:103CD0009C60CCF80C409EE646F0010C42F00101DD
:103CE0002644C4F804C028467E613E61C6F80CE054
:103CF000C6F808E07160E25000F08CF90834EBE699
:103D00007A6888E608F1010818F0030F0CF1080C36
:103D10007FF493AE2DE0DC68A34208BF02303FF48D
:103D20004BAEC9E61C4619444A68DB6854F8086F74
:103D300042F001024A602846F3609E6000F06AF992
:103D4000CAE603F15C0003F15B0EC10020E69A09AC
:103D500002F13901C9003832A4E7BC4254D0BC6832
:103D6000626822F003025EE759F80839994540F08D
:103D7000868010F0030F00F1FF30F5D17B6823EA55
:103D800004037B6064009C423FF6C8AE002C3FF405
:103D9000C5AE1C4240467FF44CAE64001C4200F1AC
:103DA0000400FAD045E68C468CE7B3F5AA7F15D817
:103DB000F30B03F1780003F1770EC100E8E54FF44F
:103DC0008051EEE601217B68921001FA02F21A435B
:103DD0007A60634679E7012353602AE740F2545240
:103DE000934222D8B30C03F17D0003F17C0EC10095
:103DF000CEE503F1100BAFE6542A29D81A0B02F1D5
:103E00006F01C9006E324DE7204B196859441960A3
:103E1000B3E6CAF30B0000287FF4AFAE08EB0B0348
:103E2000BA6843F001035360EFE67F204FF47E71E0
:103E30004FF07E0EACE504F108012846009300F037
:103E40005DFD009B1968E0E601204FF00009BDE62A
:103E5000B2F5AA7F05D8DA0B02F17801C9007732F2
:103E600020E740F254518A4205D89A0C02F17D01B4
:103E7000C9007C3216E74FF47E717E2212E77B6820
:103E800080E7F00806F108030EE600BF8C0F07205C
:103E9000830770B4CDB23DD0541E0AB30378AB4251
:103EA0001FD0431C05E014F1FF3419D30278AA4255
:103EB00017D013F0030F184603F10103F3D1032CBD
:103EC00011D84CB30378AB420BD00444431C02E03E
:103ED0000278AA4205D09C42184603F10103F7D1AB
:103EE000002070BC7047090289B2294341EA0141B0
:103EF000036806464B40A3F1013222EA030313F0A4
:103F0000803F00F1040003D1043C032CF0D8D8E733
:103F10003046D7E71446D2E72046E2E7844641EA36
:103F2000000313F0030349D1403A23D30B68036025
:103F30004B6843608B688360CB68C3600B69036127
:103F40004B6943618B698361CB69C3610B6A03620F
:103F50004B6A43628B6A8362CB6AC3620B6B0363F7
:103F60004B6B43638B6B8363CB6BC36340304031DC
:103F7000403ADBD230320BD30B6803604B684360AE
:103F80008B688360CB68C36010301031103AF3D275
:103F90000C3205D351F8043B40F8043B043AF9D203
:103FA000043208D0D2071CBF11F8013B00F8013BD6
:103FB00001D30B8803806046704700BF082A13D3E3
:103FC0008B07B1D010F00303AED0C3F10403D21AB3
:103FD000DB071CBF11F8013B00F8013BA4D331F80B
:103FE000023B20F8023B9FE7043AD9D3013A11F88B
:103FF000013B00F8013BF9D20B7803704B7843701A
:104000008B788370604670470148FFF79BBC00BF08
:10401000441407200148FFF797BC00BF4414072051
:10402000C36C70B505460C464BB153F8240080B103
:10403000026843F8242000230361C36070BD21227D
:10404000042100F0DBFBE86403460028EDD10020EA
:1040500070BD012101FA04F6721D2846920000F09D
:10406000CDFB0028F3D044608660E4E731B1C36C37
:104070004A6853F82200086043F82210704700BFD6
:10408000F0B50C4605464FF0000E0E6983B001F105
:10409000140738680EF1010E81B202FB0133010CE6
:1040A000180C02FB01019BB203EB0143764547F874
:1040B000043B4FEA1143ECDC3BB1A268964207DABD
:1040C00004EB8602013653612661204603B0F0BD41
:1040D0006168284601310193FFF7A2FF0746226974
:1040E00004F10C01023292000C30FFF717FFEA6C6A
:1040F0006168019B52F82100206042F821403C4653
:10410000DEE700BF020C12040346B2B9030410201C
:1041100013F07F4F04BF1B02083013F0704F04BF31
:104120001B01043013F0404F04BF9B000230002BF2
:1041300002DB5B0003D4202070470020E8E7013059
:10414000704700BF0368014613F0070207D0DA0783
:1041500021D4980721D49B080B600220704798B2A5
:1041600098B1104613F0FF0F04BF1B0A08301A075E
:1041700004BF1B0904309A0704BF9B080230DA070A
:1041800007D45B0804D1202070471B0C1020E9E7FE
:1041900001300B607047002070475B080B60012006
:1041A000704700BF10B50C460121FFF739FF01220F
:1041B0004461026110BD00BF2DE9F04F0C69156923
:1041C00083B0AC428B46164604DA2246B3462C46F0
:1041D0000E461546DBF8083004EB0508DBF8041042
:1041E0009845C8BF0131FFF71BFF00F1140909EB27
:1041F000880AD145009005D24B46002143F8041BA4
:104200009A45FBD806F1140C0CEB85030BF1140B4B
:104210009C450BEB840E4BD2CDF804A09A46DCF8FB
:104220000050AFB2E7B14D465E46002156F8042B70
:10423000286893B284B2120C07FB0343000C07FBFF
:1042400002020B4402EB13419BB243EA0143B64521
:1042500045F8043B4FEA1141E8D82960DCF80050EA
:104260002D0C1DD0D9F8003048461C465946002276
:104270000E88240C05FB06449BB2224443EA024309
:1042800040F8043B51F8043B04681B0CA6B205FB44
:1042900003638E4503EB12434FEA1342E8D80360F1
:1042A0000CF1040CE24509F10409B8D8DDF804A0CA
:1042B000B8F1000F0BDD5AF8043CAAF1040A1BB157
:1042C00005E05AF8043D13B9B8F10108F9D1009896
:1042D000C0F8108003B0BDE8F08F00BF12F00303F8
:1042E0002DE9F041144607462ED10D46A4101CD0EE
:1042F000BE6C96B3E3074FF0000806D4641014D0E8
:104300003068A8B10646E307F8D532462946384654
:10431000FFF752FFB5B16A68FB6C641053F82210C6
:10432000296043F822500546EAD12846BDE8F081CD
:10433000324631463846FFF73FFF3060C0F8008014
:104340000646E0E70546D9E70B4A013B52F8232031
:104350000023FFF795FE0546C8E701213846FFF721
:104360005FFE40F271210122002341610261064695
:10437000B8640360BEE700BF605D08002DE9F84344
:104380000B69541104EB03088B6808F101059D4289
:104390000E4691460746496804DD5B009D4201F1E7
:1043A0000101FADC3846FFF73BFE002C00F1140354
:1043B00006DD002103EB840243F8041B9A42FBD183
:1043C000346906F1140119F01F0901EB840E1DD0A8
:1043D0000022C9F1200C0C6804FA09F4144343F8D4
:1043E000044B51F8042B8E4522FA0CF2F3D81A60D4
:1043F0000AB108F10205FB6C7268013D53F8221006
:104400000561316043F82260BDE8F883043B51F850
:10441000042B8E4543F8042FF9D8ECE730B40B6930
:1044200005460069C01A0FD19B0014351431194498
:104430002B4401E09D4207D253F8044D51F8042D5E
:104440009442F7D002D3012030BC70474FF0FF30C8
:10445000FAE700BF2DE9F84F0C69894611699246C9
:10446000641A002C17D1890009F1140702F114060F
:104470007B18314401E09F4265D253F8045D51F846
:10448000042D9542F7D067D24B46BB46D1463746FE
:104490009A46012405E061DB002409F114070AF1C2
:1044A000140BD9F80410FFF7BBFD5D464FF0000870
:1044B000D9F810E0DAF810303E46C4600BEB830CFC
:1044C00007EB8E0700F1140456F8049B55F8042BF3
:1044D0001FFA89F343441FFA82F8120CA3EB080376
:1044E000C2EB194202EB23429BB243EA0243AC45C2
:1044F00044F8043B4FEA2248E6D8B74217D9A4460D
:10450000354655F8043B99B241440A1402EB134274
:1045100089B241EA0243AF424CF8043B4FEA2248D9
:10452000EFD8F643374427F0030704373C44043CF4
:104530002BB954F8043D0EF1FF3E002BF9D0C0F822
:1045400010E0BDE8F88F0021FFF76AFD012200238B
:1045500002614361BDE8F88FB346A2E74B4609F11B
:10456000140B02F11407914601249A4699E700BF03
:10457000F0B5012183B01C46C3F30A551646FFF778
:104580004FFDC4F3130407460DB144F480140194A5
:1045900006B302A840F8086DFFF7D4FD002830D11B
:1045A0009DE80C007A61002B0CBF01210221BB6148
:1045B0003961D5B9089A07EB8103A0F23240106047
:1045C0001869FFF79FFD099BC0EB41101860384642
:1045D00003B0F0BD01A8FFF7B5FD0122019B114614
:1045E00020303A617B61002DE4D0A5F23343089A74
:1045F00003441360099BC0F135001860384603B0CE
:10460000F0BD019BC0F12002009903FA02F20A43B7
:10461000C34001937A61C6E738B50023064C0546CE
:1046200008462360FCF700FE431C00D038BD236819
:10463000002BFBD02B6038BD581407202DE9F04F1C
:10464000936883B09046002B70D082460C46176862
:104650008D68086842E0A38913F4906F2ED06569D5
:10466000216905EB4505A0EB010B05EBD5750BF1B9
:1046700001006D103044A8422A4684BF05462A46F0
:104680005B0538D511465046FFF760F900283CD04D
:104690005A4621690190FFF741FCA289019B22F44F
:1046A000906242F08002A281A5EB0B0203EB0B00AB
:1046B0006561B346354623612060A2605A4649468B
:1046C00000F018FAD8F80830A2682068551B584442
:1046D0009E1BA5602060C8F808603EB37E683B461C
:1046E0000837002EFAD0AE42D3F80090AB46B2D2D3
:1046F0003546B346E2E7504600F060FA034600282C
:10470000D2D12169504600F0F9F80C2300224FF075
:10471000FF30CAF80030A38943F04003A381C8F8F2
:104720000820C8F8042003B0BDE8F08F0020C8F8C6
:10473000040003B0BDE8F08F2DE9F8432C4D064688
:10474000286898460F469146FFF7FCF8294B1C68ED
:10475000D4F84831002B3ED05A681F2A1CDC02F1E5
:10476000010E76B1012103EB8204C4F88890D3F8DE
:10477000880191400843022EC3F88801C4F80881DB
:1047800023D00232C3F804E0286843F82270FFF710
:10479000DBF80020BDE8F883174B0BB34FF4C8706B
:1047A000AFF300800346D8B10020D4F848114FF091
:1047B000010E586019600246C4F84831C3F88801F8
:1047C000C3F88C01002EDCD0CCE7D3F88C01014378
:1047D000C3F88C11D5E704F5A673C4F84831BBE7DC
:1047E0002868FFF7B1F84FF0FF30BDE8F88300BF4D
:1047F00070090720F85B08000000000010B502FBFC
:1048000001F1FFF7A3F80446D8B150F8042C22F0C8
:104810000302043A242A18D8132A14D900231B2A85
:104820000360436016D9242A8360C36011BF00F17E
:1048300010020361436100F118020023136053600A
:104840009360204610BD0246F7E70021FCF730FDDB
:10485000204610BD00F10802EFE700BFF8B50C4696
:10486000234F0646FFF7D0FBBB68C4F57E615D6849
:104870000F3125F00305294421F47F6121F00F0158
:10488000A1F58054B4F5805F07DB00213046FFF7C7
:10489000C3FEBB682B44984204D03046FFF7BAFBF6
:1048A0000020F8BD61423046FFF7B6FE01300DD062
:1048B000104BBA6819682D1B45F001053046091BDD
:1048C00055601960FFF7A6FB0120F8BD00213046B6
:1048D000FFF7A2FEBA68831A0F2BDEDD064C0549EE
:1048E000246843F00103001B53600860D5E700BF54
:1048F000740907208C0F07207C0D0720002944D065
:104900002DE9F0410D468046FFF77EFB55F8047C0B
:104910006949A5F1080427F00103E2188E68506880
:10492000B24220F003005ED0FE0750600BD455F871
:10493000087C01F1080EE41BA5683B4475456DD069
:10494000E768EF60BD6015186D68ED073ED543F070
:1049500001026260E350B3F5007F17D20122DB0849
:1049600098104D68134451F83370824001EBC30036
:104970002A430838E060A7604A6041F83340FC6091
:104980004046BDE8F041FFF745BB70475A0A042A8C
:1049900052D89A0902F13907FF0002F13805C81907
:1049A000CA59083890424FD0516821F003018B4218
:1049B00032D292689042F7D1C368A060E3609C60F5
:1049C000C4604046BDE8F041FFF724BB95683B4F0B
:1049D0000344BD4240D0D06843F00102E8608560E6
:1049E0006260E350B7E7FF07034407D455F8085C5B
:1049F000641BE268A0682B44C2609060304A43F0B8
:104A000001001268606093428C60B9D32D4B404620
:104A10001968FFF723FFB3E71046CDE7111849687F
:104A2000C90744D491680344D26843F00100CA60C6
:104A300091606060E350A3E7142A16D802F15C0786
:104A4000FF0002F15B05AAE70123AA104D6893401D
:104A50002B434B600346B0E743F001024C610C610D
:104A6000E560A5606260E3508AE7542A06D81A0B15
:104A700002F16F07FF0002F16E0590E7B2F5AA7F21
:104A800006D8DA0B02F17807FF0002F1770586E716
:104A900040F25450824206D89A0C02F17D07FF0082
:104AA00002F17C057BE74FF47E777E2577E743F0C4
:104AB00001016160136063E7740907207C09072026
:104AC000800D0720BC0F072082B049B15AB16BB1ED
:104AD00013780B601278101C18BF012002B07047C9
:104AE00001A9002AF3D1104602B070476FF001000F
:104AF000F4E700BF8842F0B50DD98B1898420AD26E
:104B00008418002A51D0224613F8014D994202F828
:104B1000014DF9D1F0BD0F2A48D941EA00039B07A6
:104B200046D1154600F1100401F1100353F8106C42
:104B3000103D44F8106C53F80C6C0F2D44F80C6CBD
:104B400053F8086C04F1100444F8186C53F8046C22
:104B500003F1100344F8146CE8D8A2F1100323F019
:104B60000F0302F00F0E1033BEF1030F194403447C
:104B700021D90E4674461D1F56F8047B043C032CB5
:104B800045F8047FF8D8AEF1040424F0030404349B
:104B90002144234402F0030262B1013B0A4411F8AC
:104BA000014B8A4203F8014FF9D1F0BD0346F3E708
:104BB0000346F2E7F0BD7246EEE700BF002900F0C1
:104BC00094802DE9F04F0C46154683B0804605F1E0
:104BD0000B06FFF719FA54F804EC162E2EF0030713
:104BE000A4F108093CD810221646B5423DD8974298
:104BF00043DAC64B09EB07009968884200F0C3808E
:104C0000436823F0010101444968C9074DD51EF0EE
:104C1000010F00F09B8029464046FEF797FE0546AF
:104C200000283BD054F8043CA0F1080223F0010313
:104C30004B449A4200F02B813A1F242A00F218813B
:104C4000132A00F2EB80034622461168196051686E
:104C5000596092689A6021464046FFF74FFE1DE07A
:104C600026F00706002E3246BFDA00250C23284620
:104C7000C8F8003003B0BDE8F08F2546BB1B0F2BF2
:104C8000D9F804201DD802F001023A4309EB0701CC
:104C9000C9F804204B6843F001034B604046FFF71E
:104CA000B9F9284603B0BDE8F08F23F00303F918E3
:104CB00091421DDBC36882682546D3600F469A6027
:104CC000DCE702F0010209EB060143F00103324385
:104CD000C9F804204F444B607B68083143F001035E
:104CE0007B604046FFF70AFED8E71146FEF72EBE6E
:104CF0001EF0010F8FD154F8081CA9EB010ADAF855
:104D0000041021F003010B443B44934226DB55463B
:104D1000C16880683A1FC160886055F8080FDAF8EA
:104D20000C10242AC160886026D8132A40F28180A2
:104D300021681B2ACAF808106168CAF80C1000F232
:104D4000AD8004F108000AF1100274E054F8083C48
:104D5000A9EB030ADAF8041021F003017B1893424F
:104D6000FFF659AF5546DAF80C1055F8080F3A1F00
:104D7000242AC1608860D8D9214628461F46D146DA
:104D8000FFF7B8FE7AE7416806F1100021F0030B47
:104D9000BB44834558DA1EF0010F7FF43CAF54F852
:104DA000081CA9EB010ADAF8041021F003018B4476
:104DB0005845D3DC5546DAF80C1055F8080F3A1F61
:104DC000242AC160886000F28D80132A40F2878017
:104DD00021681B2ACAF808106168CAF80C1000F292
:104DE000888004F108010AF1100208681060486820
:104DF000506089689160ABEB06020AEB060142F055
:104E0000010299604A60DAF80430404603F0010379
:104E10001E43CAF80460FFF7FDF842E723681B2A27
:104E200003606368436027D800F1080304F10802B7
:104E30000BE720462A4601681F4611604168D146AB
:104E400051608368936019E7ABEB060B09EB060131
:104E50004BF0010299604A6054F8043C404603F06C
:104E600001031E4344F8046CFFF7D4F8254618E705
:104E70002146FFF73FFEEEE6A368242A8360E3683D
:104E8000C36018D000F1100304F11002DDE650F801
:104E9000043C254623F003031F44EFE6A168242ABF
:104EA000CAF81010E168CAF814100DD004F110000F
:104EB0000AF11802BFE7226900F118030261616973
:104EC00004F118024161C0E6226904F11800CAF831
:104ED000182061690AF12002CAF81C10ABE72146CC
:104EE0002A4682E7214628460193FFF703FE019BED
:104EF00081E7A168242ACAF81010E168CAF81410E2
:104F000006D004F110010AF118026EE774090720B7
:104F1000226904F11801CAF8182060690AF1200218
:104F2000CAF81C0061E700BF19B1FF2A03D80A7054
:104F30000121084670478A234FF0FF310360F8E7EC
:104F400081F0004102E000BF83F0004330B54FEA3A
:104F500041044FEA430594EA050F08BF90EA020FA7
:104F60001FBF54EA000C55EA020C7FEA645C7FEA3A
:104F7000655C00F0E2804FEA5454D4EB5555B8BF5D
:104F80006D420CDD2C4480EA020281EA030382EACE
:104F9000000083EA010180EA020281EA0303362D60
:104FA00088BF30BD11F0004F4FEA01314FF4801C33
:104FB0004CEA113102D0404261EB410113F0004F45
:104FC0004FEA03334CEA133302D0524263EB4303FC
:104FD00094EA050F00F0A780A4F10104D5F1200E9A
:104FE0000DDB02FA0EFC22FA05F2801841F10001F5
:104FF00003FA0EF2801843FA05F359410EE0A5F1C9
:1050000020050EF1200E012A03FA0EFC28BF4CF0F9
:10501000020C43FA05F3C01851EBE37101F00045AF
:1050200007D54FF0000EDCF1000C7EEB00006EEBBC
:105030000101B1F5801F1BD3B1F5001F0CD3490846
:105040005FEA30004FEA3C0C04F101044FEA44529D
:1050500012F5800F80F09A80BCF1004F08BF5FEA24
:10506000500C50F1000041EB045141EA050130BD04
:105070005FEA4C0C404141EB010111F4801FA4F1A7
:105080000104E9D191F0000F04BF01460020B1FAFC
:1050900081F308BF2033A3F10B03B3F120020CDA34
:1050A0000C3208DD02F1140CC2F10C0201FA0CF012
:1050B00021FA02F10CE002F11402D8BFC2F1200C77
:1050C00001FA02F120FA0CFCDCBF41EA0C0190402D
:1050D000E41AA2BF01EB0451294330BD6FEA040476
:1050E0001F3C1CDA0C340EDC04F11404C4F1200261
:1050F00020FA04F001FA02F340EA030021FA04F373
:1051000045EA030130BDC4F10C04C4F1200220FAC9
:1051100002F001FA04F340EA0300294630BD21FA07
:1051200004F0294630BD94F0000F83F4801306BFCD
:1051300081F480110134013D4EE77FEA645C18BFC1
:105140007FEA655C29D094EA050F08BF90EA020F58
:1051500005D054EA000C04BF1946104630BD91EA50
:10516000030F1EBF0021002030BD5FEA545C05D153
:105170004000494128BF41F0004130BD14F5800492
:105180003CBF01F5801130BD01F0004545F0FE4106
:1051900041F470014FF0000030BD7FEA645C1ABF3B
:1051A000194610467FEA655C1CBF0B46024650EA72
:1051B000013406BF52EA033591EA030F41F400219E
:1051C00030BD00BF90F0000F04BF0021704730B524
:1051D0004FF4806404F132044FF000054FF00001F9
:1051E00050E700BF90F0000F04BF0021704730B5BA
:1051F0004FF4806404F1320410F0004548BF40428F
:105200004FF000013EE700BF42004FEAE2014FEAE3
:1052100031014FEA02701FBF12F07F4393F07F4FBE
:1052200081F06051704792F0000F14BF93F07F4FF0
:10523000704730B54FF4607401F0004521F0004133
:1052400020E700BF50EA010208BF704730B54FF0B9
:1052500000050AE050EA010208BF704730B511F0BE
:10526000004502D5404261EB41014FF4806404F1F6
:1052700032045FEA915C3FF4DCAE4FF003025FEA78
:10528000DC0C18BF03325FEADC0C18BF033202EB00
:10529000DC02C2F1200300FA03FC20FA02F001FA5A
:1052A00003FE40EA0E0021FA02F11444C1E600BFF9
:1052B00070B54FF0FF0C4CF4E06C1CEA11541DBFAC
:1052C0001CEA135594EA0C0F95EA0C0F00F0DEF877
:1052D0002C4481EA030621EA4C5123EA4C5350EA5C
:1052E000013518BF52EA033541F4801143F48013AD
:1052F00038D0A0FB02CE4FF00005E1FB02E506F03E
:105300000042E0FB03E54FF00006E1FB03569CF092
:10531000000F18BF4EF0010EA4F1FF04B6F5007F98
:1053200064F5407404D25FEA4E0E6D4146EB06060A
:1053300042EAC62141EA55514FEAC52040EA5E5093
:105340004FEACE2EB4F1FD0C88BFBCF5E06F1ED83D
:10535000BEF1004F08BF5FEA500E50F1000041EB74
:10536000045170BD06F0004646EA010140EA020021
:1053700081EA0301B4EB5C04C2BFD4EB0C0541EA43
:10538000045170BD41F480114FF0000E013C00F358
:10539000AB8014F1360FDEBF002001F0004170BD7C
:1053A000C4F10004203C35DA0C341BDC04F1140495
:1053B000C4F1200500FA05F320FA04F001FA05F221
:1053C00040EA020001F0004221F0004110EBD370EE
:1053D00021FA04F642EB06015EEA430E08BF20EA1A
:1053E000D37070BDC4F10C04C4F1200500FA04F3BD
:1053F00020FA05F001FA04F240EA020001F000414F
:1054000010EBD37041F100015EEA430E08BF20EAC1
:10541000D37070BDC4F1200500FA05F24EEA020E09
:1054200020FA04F301FA05F243EA020321FA04F038
:1054300001F0004121FA04F220EA020000EBD370EF
:105440005EEA430E08BF20EAD37070BD94F0000FEF
:105450000FD101F00046400041EB010111F4801F23
:1054600008BF013CF7D041EA060195F0000F18BFD4
:10547000704703F00046520043EB030313F4801F10
:1054800008BF013DF7D043EA0603704794EA0C0FCA
:105490000CEA135518BF95EA0C0F0CD050EA4106E0
:1054A00018BF52EA4306D1D181EA030101F000415D
:1054B0004FF0000070BD50EA410606BF1046194685
:1054C00052EA430619D094EA0C0F02D150EA013691
:1054D00013D195EA0C0F05D152EA03361CBF1046D2
:1054E00019460AD181EA030101F0004141F0FE4171
:1054F00041F470014FF0000070BD41F0FE4141F4F5
:10550000780170BD70B54FF0FF0C4CF4E06C1CEAF4
:1055100011541DBF1CEA135594EA0C0F95EA0C0FA9
:1055200000F0A7F8A4EB050481EA030E52EA033564
:105530004FEA013100F088804FEA03334FF0805585
:1055400045EA131343EA12634FEA022245EA1115B2
:1055500045EA10654FEA00260EF000419D4208BF63
:10556000964244F1FD0404F5407402D25B084FEA10
:105570003202B61A65EB03055B084FEA32024FF4BC
:1055800080104FF4002CB6EB020E75EB030E22BF19
:10559000B61A754640EA0C005B084FEA3202B6EBD9
:1055A000020E75EB030E22BFB61A754640EA5C0088
:1055B0005B084FEA3202B6EB020E75EB030E22BF18
:1055C000B61A754640EA9C005B084FEA3202B6EB19
:1055D000020E75EB030E22BFB61A754640EADC00D8
:1055E00055EA060E18D04FEA051545EA16754FEA3A
:1055F00006164FEAC30343EA52734FEAC2025FEA58
:105600001C1CC0D111F4801F0BD141EA00014FF0E6
:1056100000004FF0004CB6E711F4801F04BF0143B7
:105620000020B4F1FD0C88BFBCF5E06F3FF6AFAED3
:10563000B5EB030C04BFB6EB020C5FEA500C50F163
:10564000000041EB045170BD0EF0004E4EEA1131E6
:1056500014EB5C04C2BFD4EB0C0541EA045170BDED
:1056600041F480114FF0000E013C90E645EA060E31
:105670008DE60CEA135594EA0C0F08BF95EA0C0F5F
:105680003FF43BAF94EA0C0F0AD150EA01347FF4A7
:1056900034AF95EA0C0F7FF425AF104619462CE77E
:1056A00095EA0C0F06D152EA03353FF4FDAE1046E1
:1056B000194622E750EA410618BF52EA43067FF432
:1056C000C5AE50EA41047FF40DAF52EA43057FF4C2
:1056D000EBAE12E74FF0FF3C06E000BF4FF0010CCD
:1056E00002E000BF4FF0010C4DF804CD4FEA410C31
:1056F0007FEA6C5C4FEA430C18BF7FEA6C5C1BD0FE
:1057000001B050EA410C0CBF52EA430C91EA030F7E
:1057100002BF90EA020F0020704710F1000F91EADB
:10572000030F58BF994208BF90422CBFD8176FEAA9
:10573000E37040F0010070474FEA410C7FEA6C5C77
:1057400002D150EA013C07D14FEA430C7FEA6C5C7E
:10575000D6D152EA033CD3D05DF8040B704700BFAA
:105760008446104662468C461946634600E000BFF8
:1057700001B5FFF7B7FF002848BF10F1000F01BDCA
:105780004DF808EDFFF7F4FF0CBF012000205DF895
:1057900008FB00BF4DF808EDFFF7EAFF34BF01201A
:1057A00000205DF808FB00BF4DF808EDFFF7E0FFB3
:1057B00094BF012000205DF808FB00BF4DF808ED04
:1057C000FFF7CEFF94BF012000205DF808FB00BF6B
:1057D0004DF808EDFFF7C4FF34BF012000205DF84D
:1057E00008FB00BF4FEA410C7FEA6C5C02D150EA33
:1057F000013C0AD14FEA430C7FEA6C5C02D152EAC9
:10580000033C02D14FF0000070474FF00100704799
:105810004FEA410212F5001215D211D56FF47873D8
:10582000B3EB625212D94FEAC12343F0004343EA7B
:10583000505311F0004F23FA02F018BF4042704756
:105840004FF00000704750EA013005D111F00040E0
:1058500008BF6FF0004070474FF00000704700BF76
:1058600053B94AB9002908BF00281CBF4FF0FF31C7
:105870004FF0FF3000F07AB9ADF1080C6DE904CEBD
:1058800000F006F8DDF804E0DDE9022304B070471B
:105890002DE9F0478C460E460446089D002B50D15A
:1058A0008A4217466CD9B2FA82FEBEF1000F0BD0C5
:1058B000CEF1200C01FA0EF620FA0CFC02FA0EF7DB
:1058C0004CEA060C00FA0EF43A0CBCFBF2F9BBB23F
:1058D00002FB19CC09FB03FA4FEA144848EA0C46CC
:1058E000B2450AD9F61909F1FF3180F02581B24598
:1058F00040F22281A9F102093E44A6EB0A06B6FB5A
:10590000F2F002FB106600FB03F3A4B244EA064483
:10591000A34209D9E41900F1FF3280F00B81A342C0
:1059200040F2088102383C440021E41A40EA094070
:10593000002D62D0002324FA0EF42C606B60BDE8C9
:10594000F0878B4207D9002D55D0002185E8410012
:105950000846BDE8F087B3FA83F1002940F08F8054
:10596000B34202D3824200F2FC80841A66EB030643
:105970000120B446002D40D085E81010BDE8F08726
:1059800012B90127B7FBF2F7B7FA87FEBEF1000F95
:1059900035D10121F61B4FEA174C1FFA87F8B6FBE9
:1059A000FCF20CFB126608FB02F0230C43EA0646ED
:1059B000B04207D9F61902F1FF3302D2B04200F229
:1059C000D2801A46361AB6FBFCF00CFB106608FBB8
:1059D00000F8A3B243EA0644A04507D9E41900F150
:1059E000FF3302D2A04500F2B9801846A4EB0804A8
:1059F00040EA02409CE729462846BDE8F08707FABE
:105A00000EF7CEF1200326FA03F24FEA174CB2FB51
:105A1000FCF11FFA87F80CFB112206FA0EF620FAA9
:105A200003F301FB08F933431E0C46EA0246B14575
:105A300000FA0EF409D9F61901F1FF3280F08C80DA
:105A4000B14540F2898002393E44A6EB0906B6FB17
:105A5000FCF00CFB106200FB08F99EB246EA02461D
:105A6000B14507D9F61900F1FF3371D2B1456FD9AD
:105A700002383E44A6EB090640EA01418FE7C1F136
:105A8000200722FA07F88B4048EA030326FA07F4B6
:105A90004FEA134EB4FBFEF91FFA83FC0EFB1944C8
:105AA0008E4020FA07F809FB0CFA48EA06084FEA8C
:105AB000184646EA0444A24502FA01F200FA01F649
:105AC00008D9E41809F1FF3044D2A24542D9A9F11E
:105AD00002091C44A4EB0A04B4FBFEF00EFB1044C4
